{"contracts/TomoPool.sol":{"CandidateContract":{"abi":[{"inputs":[{"internalType":"string","name":"_candidateName","type":"string"},{"internalType":"address","name":"_coinbase","type":"address"}],"stateMutability":"nonpayable","type":"constructor"},{"anonymous":false,"inputs":[{"indexed":false,"internalType":"address","name":"_buyer","type":"address"},{"indexed":false,"internalType":"uint256","name":"_amountNormalTomo","type":"uint256"},{"indexed":false,"internalType":"address","name":"_seller","type":"address"},{"indexed":false,"internalType":"uint256","name":"_amountStakeTomo","type":"uint256"},{"indexed":false,"internalType":"uint256","name":"_price","type":"uint256"}],"name":"BuyStake","type":"event"},{"anonymous":false,"inputs":[{"indexed":false,"internalType":"address","name":"_staker","type":"address"},{"indexed":false,"internalType":"uint256","name":"_code","type":"uint256"},{"indexed":false,"internalType":"string","name":"_des","type":"string"},{"indexed":false,"internalType":"uint256","name":"_cap","type":"uint256"},{"indexed":false,"internalType":"bool","name":"_support","type":"bool"}],"name":"CommunityVote","type":"event"},{"anonymous":false,"inputs":[{"indexed":false,"internalType":"uint256","name":"_epoch","type":"uint256"},{"indexed":false,"internalType":"uint256","name":"_hardwareFeePercentage","type":"uint256"},{"indexed":false,"internalType":"uint256","name":"_amount","type":"uint256"}],"name":"PaymentHardware","type":"event"},{"anonymous":false,"inputs":[{"indexed":false,"internalType":"uint256","name":"_epoch","type":"uint256"},{"indexed":false,"internalType":"uint256","name":"_refPercentage","type":"uint256"},{"indexed":false,"internalType":"uint256","name":"_amount","type":"uint256"}],"name":"PaymentRef","type":"event"},{"anonymous":false,"inputs":[{"indexed":false,"internalType":"address","name":"_candidate","type":"address"}],"name":"Propose","type":"event"},{"anonymous":false,"inputs":[{"indexed":false,"internalType":"address","name":"_candidate","type":"address"}],"name":"Resign","type":"event"},{"anonymous":false,"inputs":[{"indexed":false,"internalType":"uint256","name":"_epoch","type":"uint256"},{"indexed":false,"internalType":"uint256","name":"_totalStaker","type":"uint256"},{"indexed":false,"internalType":"uint256","name":"_capacity","type":"uint256"}],"name":"SaveCapacityByEpoch","type":"event"},{"anonymous":false,"inputs":[{"indexed":false,"internalType":"address","name":"_staker","type":"address"},{"indexed":false,"internalType":"uint256","name":"_saleAmount","type":"uint256"},{"indexed":false,"internalType":"uint256","name":"_salePrice","type":"uint256"}],"name":"SetSellStake","type":"event"},{"anonymous":false,"inputs":[{"indexed":false,"internalType":"address","name":"_staker","type":"address"},{"indexed":false,"internalType":"uint256","name":"_amount","type":"uint256"}],"name":"Stake","type":"event"},{"anonymous":false,"inputs":[{"indexed":false,"internalType":"address","name":"_buyer","type":"address"},{"indexed":false,"internalType":"address","name":"_seller","type":"address"},{"indexed":false,"internalType":"address","name":"_team","type":"address"},{"indexed":false,"internalType":"uint256","name":"_fee","type":"uint256"}],"name":"TradingFee","type":"event"},{"anonymous":false,"inputs":[{"indexed":false,"internalType":"address","name":"_from","type":"address"},{"indexed":false,"internalType":"address","name":"_to","type":"address"},{"indexed":false,"internalType":"uint256","name":"_amount","type":"uint256"}],"name":"TransferStake","type":"event"},{"anonymous":false,"inputs":[{"indexed":false,"internalType":"address","name":"_staker","type":"address"},{"indexed":false,"internalType":"uint256","name":"_amount","type":"uint256"}],"name":"UnStake","type":"event"},{"anonymous":false,"inputs":[{"indexed":false,"internalType":"address","name":"_owner","type":"address"},{"indexed":false,"internalType":"uint256","name":"_blockNumber","type":"uint256"},{"indexed":false,"internalType":"uint256","name":"_cap","type":"uint256"}],"name":"Withdraw","type":"event"},{"anonymous":false,"inputs":[{"indexed":false,"internalType":"address","name":"_staker","type":"address"},{"indexed":false,"internalType":"bool","name":"_isStakeLocked","type":"bool"},{"indexed":false,"internalType":"uint256","name":"_withdrawalCap","type":"uint256"}],"name":"WithdrawAfterResign","type":"event"},{"anonymous":false,"inputs":[{"indexed":false,"internalType":"address","name":"_staker","type":"address"},{"indexed":false,"internalType":"uint256","name":"_reward","type":"uint256"}],"name":"WithdrawReward","type":"event"},{"anonymous":false,"inputs":[{"indexed":false,"internalType":"address","name":"_staker","type":"address"},{"indexed":false,"internalType":"uint256","name":"_reward","type":"uint256"},{"indexed":false,"internalType":"uint256","name":"_epoch","type":"uint256"}],"name":"WithdrawRewardPerEpoch","type":"event"},{"inputs":[],"name":"BLOCK_PER_EPOCH","outputs":[{"internalType":"uint256","name":"","type":"uint256"}],"stateMutability":"view","type":"function"},{"inputs":[],"name":"CandidateName","outputs":[{"internalType":"string","name":"","type":"string"}],"stateMutability":"view","type":"function"},{"inputs":[],"name":"CapBeforeResign","outputs":[{"internalType":"uint256","name":"","type":"uint256"}],"stateMutability":"view","type":"function"},{"inputs":[{"internalType":"address","name":"","type":"address"},{"internalType":"uint256","name":"","type":"uint256"}],"name":"EpochsAtWhichCapChange","outputs":[{"internalType":"uint256","name":"","type":"uint256"}],"stateMutability":"view","type":"function"},{"inputs":[{"internalType":"uint256","name":"","type":"uint256"}],"name":"EpochsReward","outputs":[{"internalType":"bool","name":"IsRewardPaid","type":"bool"},{"internalType":"uint256","name":"rewards","type":"uint256"},{"internalType":"uint256","name":"actualRewards","type":"uint256"}],"stateMutability":"view","type":"function"},{"inputs":[{"internalType":"uint256","name":"","type":"uint256"}],"name":"ListStaker","outputs":[{"internalType":"address","name":"","type":"address"}],"stateMutability":"view","type":"function"},{"inputs":[],"name":"NUM_EPOCH_UNDER60k_TO_RESIGN","outputs":[{"internalType":"uint256","name":"","type":"uint256"}],"stateMutability":"view","type":"function"},{"inputs":[],"name":"PENDING_STATUS","outputs":[{"internalType":"uint256","name":"","type":"uint256"}],"stateMutability":"view","type":"function"},{"inputs":[],"name":"PROPOSED_STATUS","outputs":[{"internalType":"uint256","name":"","type":"uint256"}],"stateMutability":"view","type":"function"},{"inputs":[],"name":"RESIGNED_STATUS","outputs":[{"internalType":"uint256","name":"","type":"uint256"}],"stateMutability":"view","type":"function"},{"inputs":[],"name":"RemainingStakeAfterResign","outputs":[{"internalType":"uint256","name":"","type":"uint256"}],"stateMutability":"view","type":"function"},{"inputs":[{"internalType":"address","name":"","type":"address"}],"name":"StakeExchange","outputs":[{"internalType":"bool","name":"isForSale","type":"bool"},{"internalType":"uint256","name":"sellStakePrice","type":"uint256"},{"internalType":"uint256","name":"amountForSale","type":"uint256"}],"stateMutability":"view","type":"function"},{"inputs":[{"internalType":"address","name":"","type":"address"}],"name":"StakerRewardWithdrawState","outputs":[{"internalType":"uint256","name":"","type":"uint256"}],"stateMutability":"view","type":"function"},{"inputs":[{"internalType":"uint256","name":"","type":"uint256"},{"internalType":"address","name":"","type":"address"}],"name":"StakersCapacity","outputs":[{"internalType":"uint256","name":"","type":"uint256"}],"stateMutability":"view","type":"function"},{"inputs":[{"internalType":"address","name":"","type":"address"}],"name":"StakersTotalReward","outputs":[{"internalType":"uint256","name":"","type":"uint256"}],"stateMutability":"view","type":"function"},{"inputs":[],"name":"TotalRewardEpochFilled","outputs":[{"internalType":"uint256","name":"","type":"uint256"}],"stateMutability":"view","type":"function"},{"inputs":[],"name":"TotalRewardWithdrawn","outputs":[{"internalType":"uint256","name":"","type":"uint256"}],"stateMutability":"view","type":"function"},{"inputs":[{"internalType":"address payable","name":"_sellStaker","type":"address"}],"name":"buyStake","outputs":[],"stateMutability":"payable","type":"function"},{"inputs":[],"name":"canResign","outputs":[{"internalType":"bool","name":"","type":"bool"}],"stateMutability":"view","type":"function"},{"inputs":[],"name":"candidateStatus","outputs":[{"internalType":"uint256","name":"","type":"uint256"}],"stateMutability":"view","type":"function"},{"inputs":[],"name":"candidateWithdrawDelay","outputs":[{"internalType":"uint256","name":"","type":"uint256"}],"stateMutability":"view","type":"function"},{"inputs":[],"name":"capacity","outputs":[{"internalType":"uint256","name":"","type":"uint256"}],"stateMutability":"view","type":"function"},{"inputs":[{"internalType":"uint256","name":"","type":"uint256"}],"name":"capacityChanges","outputs":[{"internalType":"uint256","name":"","type":"uint256"}],"stateMutability":"view","type":"function"},{"inputs":[{"internalType":"uint256","name":"","type":"uint256"}],"name":"capacityHistory","outputs":[{"internalType":"uint256","name":"","type":"uint256"}],"stateMutability":"view","type":"function"},{"inputs":[],"name":"coinbaseAddr","outputs":[{"internalType":"address","name":"","type":"address"}],"stateMutability":"view","type":"function"},{"inputs":[{"internalType":"bool","name":"support","type":"bool"}],"name":"communityVote","outputs":[],"stateMutability":"nonpayable","type":"function"},{"inputs":[{"internalType":"address","name":"_staker","type":"address"},{"internalType":"uint256","name":"_epoch","type":"uint256"}],"name":"computeStakerRewardByEpoch","outputs":[{"internalType":"uint256","name":"","type":"uint256"},{"internalType":"uint256","name":"","type":"uint256"}],"stateMutability":"view","type":"function"},{"inputs":[{"internalType":"address","name":"_staker","type":"address"}],"name":"computeTotalStakerReward","outputs":[{"internalType":"uint256","name":"","type":"uint256"}],"stateMutability":"view","type":"function"},{"inputs":[],"name":"confirmTeam","outputs":[],"stateMutability":"nonpayable","type":"function"},{"inputs":[],"name":"currentEpoch","outputs":[{"internalType":"uint256","name":"","type":"uint256"}],"stateMutability":"view","type":"function"},{"inputs":[],"name":"fillRewardsPerEpoch","outputs":[],"stateMutability":"nonpayable","type":"function"},{"inputs":[{"internalType":"uint256","name":"epoch","type":"uint256"}],"name":"getCapacityByEpoch","outputs":[{"internalType":"uint256","name":"","type":"uint256"}],"stateMutability":"view","type":"function"},{"inputs":[{"internalType":"address","name":"staker","type":"address"}],"name":"getCurrentStakerCap","outputs":[{"internalType":"uint256","name":"","type":"uint256"}],"stateMutability":"view","type":"function"},{"inputs":[{"internalType":"uint256","name":"_reward","type":"uint256"}],"name":"getHardwareFee","outputs":[{"internalType":"uint256","name":"","type":"uint256"}],"stateMutability":"view","type":"function"},{"inputs":[],"name":"getHardwareFeePercentage","outputs":[{"internalType":"uint256","name":"","type":"uint256"}],"stateMutability":"view","type":"function"},{"inputs":[{"internalType":"address","name":"_staker","type":"address"}],"name":"getLastWithdrawEpochOfStaker","outputs":[{"internalType":"uint256","name":"","type":"uint256"}],"stateMutability":"view","type":"function"},{"inputs":[],"name":"getListStaker","outputs":[{"internalType":"address[]","name":"","type":"address[]"}],"stateMutability":"view","type":"function"},{"inputs":[{"internalType":"uint256","name":"_reward","type":"uint256"}],"name":"getRefBonus","outputs":[{"internalType":"uint256","name":"","type":"uint256"}],"stateMutability":"view","type":"function"},{"inputs":[],"name":"getRefBonusPercentage","outputs":[{"internalType":"uint256","name":"","type":"uint256"}],"stateMutability":"view","type":"function"},{"inputs":[],"name":"getReferralAddress","outputs":[{"internalType":"address payable","name":"","type":"address"}],"stateMutability":"view","type":"function"},{"inputs":[{"internalType":"address","name":"_staker","type":"address"},{"internalType":"uint256","name":"_epoch","type":"uint256"}],"name":"getRewardByEpoch","outputs":[{"internalType":"uint256","name":"","type":"uint256"}],"stateMutability":"view","type":"function"},{"inputs":[{"internalType":"address","name":"_addr","type":"address"}],"name":"getStakeExchange","outputs":[{"internalType":"bool","name":"","type":"bool"},{"internalType":"uint256","name":"","type":"uint256"},{"internalType":"uint256","name":"","type":"uint256"}],"stateMutability":"view","type":"function"},{"inputs":[{"internalType":"uint256","name":"epoch","type":"uint256"},{"internalType":"address","name":"addr","type":"address"}],"name":"getStakerCapacityByEpoch","outputs":[{"internalType":"uint256","name":"","type":"uint256"}],"stateMutability":"view","type":"function"},{"inputs":[{"internalType":"address","name":"_staker","type":"address"}],"name":"getStakerCurrentReward","outputs":[{"internalType":"uint256","name":"","type":"uint256"}],"stateMutability":"view","type":"function"},{"inputs":[{"internalType":"address","name":"_staker","type":"address"}],"name":"getStakerTotalReward","outputs":[{"internalType":"uint256","name":"","type":"uint256"}],"stateMutability":"view","type":"function"},{"inputs":[{"internalType":"address","name":"_staker","type":"address"}],"name":"getWithdrawBlockNumbers","outputs":[{"internalType":"uint256[]","name":"","type":"uint256[]"}],"stateMutability":"view","type":"function"},{"inputs":[{"internalType":"address","name":"_staker","type":"address"},{"internalType":"uint256","name":"_blockNumber","type":"uint256"}],"name":"getWithdrawCap","outputs":[{"internalType":"uint256","name":"","type":"uint256"}],"stateMutability":"view","type":"function"},{"inputs":[],"name":"governance","outputs":[{"internalType":"string","name":"description","type":"string"},{"internalType":"uint256","name":"supportCap","type":"uint256"},{"internalType":"uint256","name":"epochStart","type":"uint256"}],"stateMutability":"view","type":"function"},{"inputs":[],"name":"hardwareFeePercentage","outputs":[{"internalType":"uint256","name":"","type":"uint256"}],"stateMutability":"view","type":"function"},{"inputs":[{"internalType":"uint256","name":"","type":"uint256"}],"name":"indexes","outputs":[{"internalType":"uint256","name":"","type":"uint256"}],"stateMutability":"view","type":"function"},{"inputs":[{"internalType":"address","name":"_staker","type":"address"},{"internalType":"bool","name":"checkStakeLock","type":"bool"}],"name":"isAlreadyWithdrawAfterResign","outputs":[{"internalType":"bool","name":"","type":"bool"}],"stateMutability":"view","type":"function"},{"inputs":[],"name":"isCandidateLockWithdraw","outputs":[{"internalType":"bool","name":"","type":"bool"}],"stateMutability":"view","type":"function"},{"inputs":[],"name":"isRequireReferralLock","outputs":[{"internalType":"bool","name":"","type":"bool"}],"stateMutability":"view","type":"function"},{"inputs":[],"name":"isStakeLockWithdrawn","outputs":[{"internalType":"bool","name":"","type":"bool"}],"stateMutability":"view","type":"function"},{"inputs":[{"internalType":"address","name":"_staker","type":"address"}],"name":"isVoted","outputs":[{"internalType":"bool","name":"","type":"bool"}],"stateMutability":"view","type":"function"},{"inputs":[{"internalType":"address","name":"_staker","type":"address"},{"internalType":"bool","name":"checkStakeLock","type":"bool"}],"name":"isWithdrawAfterResignAvailable","outputs":[{"internalType":"bool","name":"","type":"bool"}],"stateMutability":"view","type":"function"},{"inputs":[{"internalType":"uint256","name":"_blockNumber","type":"uint256"}],"name":"isWithdrawn","outputs":[{"internalType":"bool","name":"","type":"bool"}],"stateMutability":"view","type":"function"},{"inputs":[],"name":"lastEpochRewardFilled","outputs":[{"internalType":"uint256","name":"","type":"uint256"}],"stateMutability":"view","type":"function"},{"inputs":[],"name":"maxCap","outputs":[{"internalType":"uint256","name":"","type":"uint256"}],"stateMutability":"view","type":"function"},{"inputs":[],"name":"propose","outputs":[],"stateMutability":"nonpayable","type":"function"},{"inputs":[],"name":"referralAddress","outputs":[{"internalType":"address payable","name":"","type":"address"}],"stateMutability":"view","type":"function"},{"inputs":[],"name":"referralPercentage","outputs":[{"internalType":"uint256","name":"","type":"uint256"}],"stateMutability":"view","type":"function"},{"inputs":[],"name":"requireLockAmount","outputs":[{"internalType":"uint256","name":"","type":"uint256"}],"stateMutability":"view","type":"function"},{"inputs":[],"name":"resign","outputs":[],"stateMutability":"nonpayable","type":"function"},{"inputs":[],"name":"resignByTeam","outputs":[],"stateMutability":"nonpayable","type":"function"},{"inputs":[],"name":"saveCapacityHistory","outputs":[],"stateMutability":"nonpayable","type":"function"},{"inputs":[{"internalType":"uint256","name":"_hardwareFee","type":"uint256"}],"name":"setHardwareFeePercentage","outputs":[],"stateMutability":"nonpayable","type":"function"},{"inputs":[{"internalType":"address","name":"_staker","type":"address"},{"internalType":"uint256","name":"_epochNumber","type":"uint256"}],"name":"setLastWithdrawEpochOfStaker","outputs":[],"stateMutability":"nonpayable","type":"function"},{"inputs":[{"internalType":"uint256","name":"_maxCap","type":"uint256"}],"name":"setMaxCap","outputs":[],"stateMutability":"nonpayable","type":"function"},{"inputs":[{"internalType":"uint256","name":"_bonus","type":"uint256"}],"name":"setRefBonusPercentage","outputs":[],"stateMutability":"nonpayable","type":"function"},{"inputs":[{"internalType":"address payable","name":"_r","type":"address"}],"name":"setReferralAddress","outputs":[],"stateMutability":"nonpayable","type":"function"},{"inputs":[{"internalType":"uint256","name":"_amount","type":"uint256"}],"name":"setRequireLockAmount","outputs":[],"stateMutability":"nonpayable","type":"function"},{"inputs":[{"internalType":"bool","name":"_lock","type":"bool"}],"name":"setRequireReferralLock","outputs":[],"stateMutability":"nonpayable","type":"function"},{"inputs":[{"internalType":"uint256","name":"_amount","type":"uint256"},{"internalType":"uint256","name":"_price","type":"uint256"}],"name":"setSellStake","outputs":[],"stateMutability":"nonpayable","type":"function"},{"inputs":[{"internalType":"address payable","name":"_team","type":"address"}],"name":"setTeam","outputs":[],"stateMutability":"nonpayable","type":"function"},{"inputs":[{"internalType":"uint256","name":"_stake","type":"uint256"},{"internalType":"uint256","name":"_candidate","type":"uint256"}],"name":"setWithdrawDelay","outputs":[],"stateMutability":"nonpayable","type":"function"},{"inputs":[],"name":"stake","outputs":[],"stateMutability":"payable","type":"function"},{"inputs":[],"name":"stakerWithdrawDelay","outputs":[{"internalType":"uint256","name":"","type":"uint256"}],"stateMutability":"view","type":"function"},{"inputs":[],"name":"teamAddr","outputs":[{"internalType":"address payable","name":"","type":"address"}],"stateMutability":"view","type":"function"},{"inputs":[],"name":"teamAddress","outputs":[{"internalType":"address payable","name":"","type":"address"}],"stateMutability":"view","type":"function"},{"inputs":[{"internalType":"address","name":"to","type":"address"},{"internalType":"uint256","name":"_amount","type":"uint256"}],"name":"transferStake","outputs":[],"stateMutability":"nonpayable","type":"function"},{"inputs":[{"internalType":"uint256","name":"_amount","type":"uint256"}],"name":"unstake","outputs":[],"stateMutability":"nonpayable","type":"function"},{"inputs":[],"name":"validator","outputs":[{"internalType":"address payable","name":"","type":"address"}],"stateMutability":"view","type":"function"},{"inputs":[{"internalType":"address payable","name":"_staker","type":"address"},{"internalType":"bool","name":"checkStakeLock","type":"bool"}],"name":"withdrawAfterResign","outputs":[],"stateMutability":"nonpayable","type":"function"},{"inputs":[{"internalType":"address payable","name":"_staker","type":"address"}],"name":"withdrawAllRewardsOfStaker","outputs":[],"stateMutability":"nonpayable","type":"function"},{"inputs":[],"name":"withdrawIndex","outputs":[{"internalType":"uint256","name":"","type":"uint256"}],"stateMutability":"view","type":"function"},{"inputs":[{"internalType":"address payable","name":"_staker","type":"address"}],"name":"withdrawRewardStakerOneEpoch","outputs":[],"stateMutability":"nonpayable","type":"function"},{"inputs":[{"internalType":"address payable","name":"_staker","type":"address"}],"name":"withdrawRewardStakerOneHundredEpoch","outputs":[],"stateMutability":"nonpayable","type":"function"},{"inputs":[{"internalType":"uint256","name":"_blockNumber","type":"uint256"}],"name":"withdrawStake","outputs":[],"stateMutability":"nonpayable","type":"function"},{"inputs":[{"internalType":"address payable","name":"_staker","type":"address"},{"internalType":"uint256","name":"_blockNumber","type":"uint256"}],"name":"withdrawStakeByAnyOne","outputs":[],"stateMutability":"nonpayable","type":"function"},{"stateMutability":"payable","type":"receive"}],"evm":{"bytecode":{"linkReferences":{},"object":"60806040526934f086f3b33b684000006005556200002161038460606200020c565b600655620000346103846105a06200020c565b60075560006009819055600a819055600f600b556001600c819055600d8290556101e0600e5560158290556016805461ffff1916905560178290556021919091556023805460ff1916909117905569054b40b1f852bda000006024553480156200009d57600080fd5b506040516200502a3803806200502a833981016040819052620000c09162000259565b6000620000ce8382620003d0565b50600180546001600160a01b0319166001600160a01b0383161781556002556000600855620000fc62000161565b602090815560408051808201909152601481527f566f74696e6720666f722072657369676e696e6700000000000000000000000091810191909152601d90620001469082620003d0565b5050600480546001600160a01b0319163317905550620004f6565b600062000189610384620001826200017a43836200018e565b4390620001b3565b90620001d9565b905090565b6000816000036200019e57600080fd5b620001aa8284620004b2565b90505b92915050565b600082821115620001c357600080fd5b6000620001d18385620004c9565b949350505050565b6000808211620001e857600080fd5b6000620001d18385620004df565b634e487b7160e01b600052601160045260246000fd5b8082028115828204841417620001ad57620001ad620001f6565b634e487b7160e01b600052604160045260246000fd5b80516001600160a01b03811681146200025457600080fd5b919050565b600080604083850312156200026d57600080fd5b82516001600160401b03808211156200028557600080fd5b818501915085601f8301126200029a57600080fd5b815181811115620002af57620002af62000226565b604051601f8201601f19908116603f01168101908382118183101715620002da57620002da62000226565b81604052828152602093508884848701011115620002f757600080fd5b600091505b828210156200031b5784820184015181830185015290830190620002fc565b6000848483010152809650505050620003368186016200023c565b925050509250929050565b600181811c908216806200035657607f821691505b6020821081036200037757634e487b7160e01b600052602260045260246000fd5b50919050565b601f821115620003cb57600081815260208120601f850160051c81016020861015620003a65750805b601f850160051c820191505b81811015620003c757828155600101620003b2565b5050505b505050565b81516001600160401b03811115620003ec57620003ec62000226565b6200040481620003fd845462000341565b846200037d565b602080601f8311600181146200043c5760008415620004235750858301515b600019600386901b1c1916600185901b178555620003c7565b600085815260208120601f198616915b828110156200046d578886015182559484019460019091019084016200044c565b50858210156200048c5787850151600019600388901b60f8161c191681555b5050505050600190811b01905550565b634e487b7160e01b600052601260045260246000fd5b600082620004c457620004c46200049c565b500690565b81810381811115620001ad57620001ad620001f6565b600082620004f157620004f16200049c565b500490565b614b2480620005066000396000f3fe6080604052600436106105e55760003560e01c8063672d58b111610301578063abbe5f021161019a578063c30184b7116100ec578063db49479e11610095578063f66d93321161006f578063f66d9332146110f9578063fa7ceeec1461111b578063fed5117b1461113157600080fd5b8063db49479e1461108a578063ece0c459146110ca578063ee9bf182146110e457600080fd5b8063d11b1327116100c6578063d11b132714611034578063d161c76714611054578063d98597441461106a57600080fd5b8063c30184b714610fc6578063c980361414610ff4578063cbff75cb1461101457600080fd5b8063b3caba5a1161014e578063c03f3f6211610128578063c03f3f6214610f71578063c134b2f414610f91578063c198f8ba14610fb157600080fd5b8063b3caba5a14610f1c578063b4ad4fa414610f3c578063bd010c6414610f5157600080fd5b8063ace197ea1161017f578063ace197ea14610e99578063ada6b16e14610ed9578063b19ca21e14610eef57600080fd5b8063abbe5f0214610e34578063acc77b8714610e6c57600080fd5b806396c7944f116102535780639fd1073511610207578063a3af4e39116101e1578063a3af4e3914610db7578063a54f5f7b14610dfe578063a79aa45f14610e1457600080fd5b80639fd1073514610d57578063a28f884714610d77578063a32b36ae14610d9757600080fd5b80639b95a00d116102385780639b95a00d14610cf45780639e915cb714610d0a5780639f92337814610d3757600080fd5b806396c7944f14610cbe57806396ea8b9c14610cde57600080fd5b80637cded514116102b557806388caed011161028f57806388caed0114610c0d5780639114179414610c2d57806392f8eb9414610c9157600080fd5b80637cded51414610bcd5780637fe9f73014610be25780638276bd1914610bf857600080fd5b8063763265de116102e6578063763265de14610b825780637667180814610ba25780637a11c3da14610bb757600080fd5b8063672d58b114610b5757806369652fcf14610b6d57600080fd5b80632db49fbc1161047e5780634a5ff749116103d05780635a7c1f83116103795780635e89c173116103535780635e89c17314610aec57806362fa411e14610b21578063657db4bf14610b3757600080fd5b80635a7c1f8314610a925780635aa6e67514610ab25780635cfc1a5114610ad657600080fd5b806354cf5ca2116103aa57806354cf5ca214610a3f578063558f2b7b14610a52578063567db47d14610a7257600080fd5b80634a5ff749146109ea5780634b1731c114610a0a578063539b2bde14610a1f57600080fd5b80633a4b66f111610432578063466e47c41161040c578063466e47c414610975578063481b2b0f1461099557806348427329146109b457600080fd5b80633a4b66f1146109385780633a5381b51461094057806342c895611461095557600080fd5b806331c359fa1161046357806331c359fa146108cd57806334382b72146108eb578063381ecb851461090b57600080fd5b80632db49fbc1461088b5780632e17de78146108ad57600080fd5b80631a247222116105375780632217a361116104eb57806328e2afbc116104c557806328e2afbc1461084157806329d86d5b146108615780632b967e6e1461087657600080fd5b80632217a361146107eb57806323548b8b1461080b57806325d5971f1461082157600080fd5b80631c1e474e1161051c5780631c1e474e146107a35780631c75f085146107b85780631cdacae4146107d657600080fd5b80631a2472221461076d5780631a7865861461078357600080fd5b80630e5ef41a1161059957806311b65a761161057357806311b65a76146106f557806315a88d22146107155780631772cfb21461074d57600080fd5b80630e5ef41a146106a05780630f2fe557146106b65780630f8178e6146106cb57600080fd5b806306f381aa116105ca57806306f381aa1461064a578063095cf5c61461066a5780630b896d4f1461068a57600080fd5b8063042e11181461060157806306d98fd01461062a57600080fd5b366105fc57336088146105fa576105fa611151565b005b600080fd5b34801561060d57600080fd5b50610617600a5481565b6040519081526020015b60405180910390f35b34801561063657600080fd5b506106176106453660046146a9565b6114c3565b34801561065657600080fd5b506106176106653660046146a9565b6114f4565b34801561067657600080fd5b506105fa6106853660046146d5565b61150c565b34801561069657600080fd5b50610617600b5481565b3480156106ac57600080fd5b50610617600c5481565b3480156106c257600080fd5b50610617606481565b3480156106d757600080fd5b506023546106e59060ff1681565b6040519015158152602001610621565b34801561070157600080fd5b506106176107103660046146d5565b611554565b34801561072157600080fd5b50600354610735906001600160a01b031681565b6040516001600160a01b039091168152602001610621565b34801561075957600080fd5b506106176107683660046146d5565b6115dc565b34801561077957600080fd5b5061061760245481565b34801561078f57600080fd5b506106e561079e366004614707565b611640565b3480156107af57600080fd5b50610617600181565b3480156107c457600080fd5b506004546001600160a01b0316610735565b3480156107e257600080fd5b506105fa6116be565b3480156107f757600080fd5b506105fa610806366004614707565b6116f9565b34801561081757600080fd5b5061061760055481565b34801561082d57600080fd5b506105fa61083c36600461473c565b611b6c565b34801561084d57600080fd5b5061061761085c36600461473c565b611d59565b34801561086d57600080fd5b50600b54610617565b34801561088257600080fd5b506105fa611d6d565b34801561089757600080fd5b506108a0611eae565b6040516106219190614755565b3480156108b957600080fd5b506105fa6108c836600461473c565b611f10565b3480156108d957600080fd5b506003546001600160a01b0316610735565b3480156108f757600080fd5b5061061761090636600461473c565b6125b0565b34801561091757600080fd5b506106176109263660046146d5565b60116020526000908152604090205481565b6105fa611151565b34801561094c57600080fd5b50610735608881565b34801561096157600080fd5b506106176109703660046147a2565b6125d1565b34801561098157600080fd5b5061061761099036600461473c565b6126f1565b3480156109a157600080fd5b506016546106e590610100900460ff1681565b3480156109c057600080fd5b506106176109cf3660046146d5565b6001600160a01b031660009081526012602052604090205490565b3480156109f657600080fd5b50600454610735906001600160a01b031681565b348015610a1657600080fd5b506105fa61277d565b348015610a2b57600080fd5b506105fa610a3a3660046146d5565b6127ad565b6105fa610a4d3660046146d5565b6128ff565b348015610a5e57600080fd5b506105fa610a6d3660046146d5565b612c95565b348015610a7e57600080fd5b50600154610735906001600160a01b031681565b348015610a9e57600080fd5b506105fa610aad3660046147d2565b612e10565b348015610abe57600080fd5b50610ac7612ef7565b6040516106219392919061483d565b348015610ae257600080fd5b5061061760185481565b348015610af857600080fd5b50610b0c610b073660046146a9565b612f95565b60408051928352602083019190915201610621565b348015610b2d57600080fd5b5061061760155481565b348015610b4357600080fd5b506106e5610b52366004614707565b6130b7565b348015610b6357600080fd5b5061061760175481565b348015610b7957600080fd5b506105fa613116565b348015610b8e57600080fd5b506105fa610b9d36600461473c565b613163565b348015610bae57600080fd5b5061061761318e565b348015610bc357600080fd5b5061061760065481565b348015610bd957600080fd5b506105fa6131af565b348015610bee57600080fd5b5061061760095481565b348015610c0457600080fd5b50610617600a81565b348015610c1957600080fd5b506105fa610c28366004614862565b6132bd565b348015610c3957600080fd5b50610c74610c483660046146d5565b6001600160a01b031660009081526022602052604090208054600182015460029092015460ff90911692565b604080519315158452602084019290925290820152606001610621565b348015610c9d57600080fd5b50610617610cac36600461473c565b600f6020526000908152604090205481565b348015610cca57600080fd5b50610617610cd93660046146d5565b61338e565b348015610cea57600080fd5b50610617600d5481565b348015610d0057600080fd5b5061061761038481565b348015610d1657600080fd5b50610617610d253660046146d5565b60126020526000908152604090205481565b348015610d4357600080fd5b506105fa610d5236600461473c565b61339c565b348015610d6357600080fd5b506105fa610d723660046146a9565b6133c7565b348015610d8357600080fd5b506105fa610d923660046146a9565b6135d9565b348015610da357600080fd5b50610735610db236600461473c565b613635565b348015610dc357600080fd5b50610617610dd23660046146a9565b6001600160a01b0391909116600090815260106020908152604080832093835260019093019052205490565b348015610e0a57600080fd5b5061061760025481565b348015610e2057600080fd5b506105fa610e2f36600461473c565b61365f565b348015610e4057600080fd5b50610617610e4f3660046147a2565b601360209081526000928352604080842090915290825290205481565b348015610e7857600080fd5b50610e8c610e873660046146d5565b613698565b6040516106219190614884565b348015610ea557600080fd5b50610c74610eb43660046146d5565b60226020526000908152604090208054600182015460029092015460ff909116919083565b348015610ee557600080fd5b5061061760085481565b348015610efb57600080fd5b50610617610f0a36600461473c565b60196020526000908152604090205481565b348015610f2857600080fd5b506105fa610f373660046146d5565b613707565b348015610f4857600080fd5b506106e561374f565b348015610f5d57600080fd5b506105fa610f6c366004614862565b613776565b348015610f7d57600080fd5b506105fa610f8c3660046146d5565b6137a4565b348015610f9d57600080fd5b50610617610fac36600461473c565b613927565b348015610fbd57600080fd5b506105fa61393b565b348015610fd257600080fd5b506106e5610fe136600461473c565b6000908152600f60205260409020541590565b34801561100057600080fd5b506105fa61100f3660046146a9565b613ab8565b34801561102057600080fd5b506106e561102f3660046146d5565b613afa565b34801561104057600080fd5b506105fa61104f3660046147d2565b613b42565b34801561106057600080fd5b5061061760075481565b34801561107657600080fd5b506106176110853660046146d5565b613b7b565b34801561109657600080fd5b50610c746110a536600461473c565b601c6020526000908152604090208054600182015460029092015460ff909116919083565b3480156110d657600080fd5b506016546106e59060ff1681565b3480156110f057600080fd5b50600d54610617565b34801561110557600080fd5b5061110e613b8e565b60405161062191906148bc565b34801561112757600080fd5b50610617600e5481565b34801561113d57600080fd5b506105fa61114c36600461473c565b613c1c565b3460055461116a82601854613c5590919063ffffffff16565b111561117557600080fd5b60235460ff16156111a357602454600354611198906001600160a01b0316613b7b565b10156111a357600080fd5b6064600254106111b257600080fd5b6111bb33613b7b565b60000361121d57601b80546001810182556000919091527f3ad8aa4f87544323a9d1e5dd902f40c356527a7955687113db5f9a85ad579dc10180546001600160a01b0319163317905561120c61318e565b336000908152601160205260409020555b600061122761318e565b905061123c3461123633613b7b565b90613c55565b6000828152601360209081526040808320338452825280832093909355601490522054156112cc573360009081526014602052604090208054829190611284906001906148e5565b81548110611294576112946148f8565b9060005260206000200154146112c757336000908152601460209081526040822080546001810182559083529120018190555b6112ef565b336000908152601460209081526040822080546001810182559083529120018190555b6018546112fc9034613c55565b6018556113076131af565b600a60025403611486576001546040516001600160a01b039091166024820152600090608890349060440160408051601f198184030181529181526020820180516001600160e01b03167f6dd7d8ea0000000000000000000000000000000000000000000000000000000017905251611380919061490e565b60006040518083038185875af1925050503d80600081146113bd576040519150601f19603f3d011682016040523d82523d6000602084013e6113c2565b606091505b50509050806114185760405162461bcd60e51b815260206004820152600960248201527f566f7465206661696c000000000000000000000000000000000000000000000060448201526064015b60405180910390fd5b336000908152601e602052604090205460ff161561148457601f5461143d9034613c55565b601f556040517f4e1a6be6a2ae51edfbdb07d7c3730fbfeb63a4ba7be5955a52037ef5318bd3a79061147b903390600090601d903490600190614964565b60405180910390a15b505b604080513381523460208201527febedb8b3c678666e7f36970bc8f57abf6d8fa2e828c0da91ea5b75bf68ed101a91015b60405180910390a15050565b601460205281600052604060002081815481106114df57600080fd5b90600052602060002001600091509150505481565b6000806115018484612f95565b509150505b92915050565b3361151f6004546001600160a01b031690565b6001600160a01b03161461153257600080fd5b602580546001600160a01b0319166001600160a01b0392909216919091179055565b6000600a600254101561156957506000919050565b6000611574836115dc565b9050600061158061318e565b9050600080611590846001613c55565b90505b61159e836002613c71565b81116115d35760006115b08783612f95565b5090506115bd8382613c55565b92505080806115cb90614a40565b915050611593565b50949350505050565b6001600160a01b0381166000908152601160209081526040808320546014909252822080548391908290611612576116126148f8565b9060005260206000200154905080821161163657611631816001613c71565b611638565b815b949350505050565b600061164c83836130b7565b1561165957506000611506565b6064600254106116b557600082611671576001611674565b60005b30600090815260106020526040902060020180549192509060ff831690811061169f5761169f6148f8565b9060005260206000200154431015915050611506565b50600092915050565b6025546001600160a01b031633146116d557600080fd5b602554600480546001600160a01b0319166001600160a01b03909216919091179055565b6117038282611640565b61179b5760405162461bcd60e51b815260206004820152604260248201527f5769746864726177616c206973206e6f7420617661696c61626c65206f72205360448201527f74616b657220616c72656164792077697468647261776564207468652073746160648201527f6b65000000000000000000000000000000000000000000000000000000000000608482015260a40161140f565b60006117a683613b7b565b6001600160a01b038416600090815260106020526040902054909150819060ff161580156117f257506001600160a01b038416600090815260106020526040902054610100900460ff16155b15611899578215611852576001600160a01b0384166000908152601060205260409020805460ff1916600117905560155461184b906118458461183f83690a968163f0a57b400000613c71565b90613c8c565b90613cc1565b91506118bf565b60155461186d9061184584690a968163f0a57b400000613c8c565b6001600160a01b0385166000908152601060205260409020805461ff00191661010017905591506118bf565b6001600160a01b0384166000908152601060205260409020805461ffff19166101011790555b60006118c961318e565b90506118d58284613c71565b60008281526013602090815260408083206001600160a01b038a16845282528083209390935560148152918120805460018101825590825291812090910182905584611922576001611925565b60005b3060009081526010602052604081206002018054929350909160ff8416908110611951576119516148f8565b9060005260206000200154905085801561196e575060165460ff16155b8061198a57508515801561198a5750601654610100900460ff16155b15611ad0576000818152600f602052604081205447919060889084906119b1906001613c71565b6040516024810192909252604482015260640160408051601f198184030181529181526020820180516001600160e01b0316630441a3e760e41b179052516119f9919061490e565b6000604051808303816000865af19150503d8060008114611a36576040519150601f19603f3d011682016040523d82523d6000602084013e611a3b565b606091505b5050905080611a8c5760405162461bcd60e51b815260206004820152600f60248201527f7769746864726177206661696c65640000000000000000000000000000000000604482015260640161140f565b8715611aa4576016805460ff19166001179055611ab4565b6016805461ff0019166101001790555b611aca611ac14784613c71565b60175490613c55565b60175550505b601754611add9086613c71565b6017556040516001600160a01b0388169086156108fc029087906000818181858888f19350505050158015611b16573d6000803e3d6000fd5b50604080516001600160a01b038916815287151560208201529081018690527f9530a9230363309d20b643de1420b49a63c742d26aa552b7578659c0b823f37c906060015b60405180910390a150505050505050565b60008111611b7957600080fd5b600a60025410611d565780431015611b9057600080fd5b336000908152601060209081526040808320848452600101909152902054611bb757600080fd5b6000818152600f6020526040902054611bcf57600080fd5b3360009081526010602090815260408083208484526001908101835281842054600f909352908320549192479290916088918691611c0d9190613c71565b6040516024810192909252604482015260640160408051601f198184030181529181526020820180516001600160e01b0316630441a3e760e41b17905251611c55919061490e565b6000604051808303816000865af19150503d8060008114611c92576040519150601f19603f3d011682016040523d82523d6000602084013e611c97565b606091505b5050905080611ca557600080fd5b4783611cb18285613c71565b1015611cbc57600080fd5b3360008181526010602090815260408083208984526001018252808320839055600f9091528082208290555186156108fc0291879190818181858888f19350505050158015611d0f573d6000803e3d6000fd5b5060408051338152602081018790529081018590527ff279e6a1f5e320cca91135676d9cb6e44ca8a08c0b88342bcdb1144f6511b5689060600160405180910390a1505050505b50565b600061150660646118458461183f600b5490565b600a6002541015611d7d57600080fd5b6000611d8761318e565b9050600854600003611da257611d9e816003613c71565b6008555b600854600090611db3906001613c55565b905080611dc1836001613c71565b1115611eaa576000611dde6001611dd88585613c71565b90613c71565b90506000611df16001611dd88585613c55565b90506000611e16601754611dd8600a54611dd860095447613c5590919063ffffffff16565b90506000611e248285613cc1565b905081855b84811015611e6f576000818152601c60205260409020600101839055611e4f8284613c71565b9150611e5a81613cdb565b50508080611e6790614a40565b915050611e29565b506000848152601c602052604090206001018190556008849055611e9284613cdb565b5050600a54611ea19084613c55565b600a5550505050505b5050565b6060601b805480602002602001604051908101604052809291908181526020018280548015611f0657602002820191906000526020600020905b81546001600160a01b03168152600190910190602001808311611ee8575b5050505050905090565b3360009081526022602052604090205460ff1615611f2d57600080fd5b80611f3733613b7b565b1015611f4257600080fd5b6003546001600160a01b031633148015611f5e575060235460ff165b15611f7e57602454611f7382611dd833613b7b565b1015611f7e57600080fd5b6000611f8861318e565b905060016002540361206157611fa182611dd833613b7b565b6000828152601360209081526040808320338452909152902055601854611fc89083613c71565b60185533600090815260146020908152604082208054600181018255908352912001819055611ff56131af565b604051339083156108fc029084906000818181858888f19350505050158015612022573d6000803e3d6000fd5b5060408051338152602081018490527fb24546d975e2628748efc9aced80665e0fad66272033e5c0ea25fd3afac99795910160405180910390a1612493565b6064600254106120d95760405162461bcd60e51b815260206004820152602f60248201527f7374616b65722063616e6e6f7420756e7374616b65206f6e636520746865206e60448201527f6f64652069732072657369676e65640000000000000000000000000000000000606482015260840161140f565b601854690a968163f0a57b400000906120f29084613c71565b101561218c5760405162461bcd60e51b815260206004820152604760248201527f756e7374616b6520616d6f756e7420746f6f206c617267652c206e656564207460448201527f6f2072657369676e20746865206e6f6465206265666f726520756e7374616b6960648201527f6e67206d6f726500000000000000000000000000000000000000000000000000608482015260a40161140f565b61219982611dd833613b7b565b60008281526013602090815260408083203384529091529020556018546121c09083613c71565b601855336000908152601460209081526040822080546001810182559083529120018190556121ed6131af565b6006546000906121fd9043613c55565b6000818152600f6020526040902054909150156122825760405162461bcd60e51b815260206004820152602a60248201527f616e6f7468657220766f74657220616c726561647920756e766f746520696e2060448201527f7468697320626c6f636b00000000000000000000000000000000000000000000606482015260840161140f565b3360009081526010602090815260408083208484526001019091529020546122aa9084613c55565b33600090815260106020908152604080832085845260018082018452828520959095556002018054808601825590845282842001859055600c54858452600f9092529091208190556122fb91613c55565b600c556001546040516001600160a01b0390911660248201526044810184905260009060889060640160408051601f198184030181529181526020820180516001600160e01b03166301554df160e11b17905251612359919061490e565b6000604051808303816000865af19150503d8060008114612396576040519150601f19603f3d011682016040523d82523d6000602084013e61239b565b606091505b50509050806123ec5760405162461bcd60e51b815260206004820152600d60248201527f756e766f7465206661696c656400000000000000000000000000000000000000604482015260640161140f565b60408051338152602081018690527fb24546d975e2628748efc9aced80665e0fad66272033e5c0ea25fd3afac99795910160405180910390a1336000908152601e602052604090205460ff161561249057601f5461244a9085613c71565b601f556040517f4e1a6be6a2ae51edfbdb07d7c3730fbfeb63a4ba7be5955a52037ef5318bd3a790612487903390600090601d9089908390614964565b60405180910390a15b50505b61249c33613b7b565b600003611eaa5760005b601b548110156125ab57336001600160a01b0316601b82815481106124cd576124cd6148f8565b6000918252602090912001546001600160a01b03160361259957601b80546124f7906001906148e5565b81548110612507576125076148f8565b600091825260209091200154601b80546001600160a01b039092169183908110612533576125336148f8565b9060005260206000200160006101000a8154816001600160a01b0302191690836001600160a01b03160217905550601b80548061257257612572614a59565b600082815260209020810160001990810180546001600160a01b0319169055019055505050565b806125a381614a40565b9150506124a6565b505050565b601a81815481106125c057600080fd5b600091825260209091200154905081565b6001600160a01b03811660009081526014602052604081205481036125f857506000611506565b6001600160a01b03821660009081526014602052604081205461261d906001906148e5565b90505b6001600160a01b038316600090815260146020526040902080548290811061264a5761264a6148f8565b906000526020600020015484106126cf576001600160a01b0383166000908152601460205260408120805460139291908490811061268a5761268a6148f8565b906000526020600020015481526020019081526020016000206000846001600160a01b03166001600160a01b0316815260200190815260200160002054915050611506565b80156126e757806126df81614a6f565b915050612620565b5060009392505050565b601a546000908190612705906001906148e5565b90505b601a818154811061271b5761271b6148f8565b906000526020600020015483106127655760196000601a8381548110612743576127436148f8565b9060005260206000200154815260200190815260200160002054915050919050565b80156116b5578061277581614a6f565b915050612708565b336127906004546001600160a01b031690565b6001600160a01b0316146127a357600080fd5b6127ab613ebd565b565b6001600160a01b0381166000908152601460205260409020546127cf57600080fd5b6127d7611d6d565b60006127e2826115dc565b905060006127ee61318e565b90506000806127fe846001613c55565b90505b61280c836002613c71565b811161284157600061281e8683612f95565b50905061282b8382613c55565b925050808061283990614a40565b915050612801565b5080156128d2576040516001600160a01b0385169082156108fc029083906000818181858888f1935050505015801561287e573d6000803e3d6000fd5b50604080516001600160a01b0386168152602081018390527fbc84835063c693975166f00cffb19f01a94c2db55b1bf259238c5da3594e5066910160405180910390a16009546128ce9082613c55565b6009555b6128dd826002613c71565b6001600160a01b03909416600090815260116020526040902093909355505050565b600a600254101561290f57600080fd5b6001600160a01b03811660009081526022602052604090205460ff1661293457600080fd5b6001600160a01b03811660009081526022602052604090206002015461295957600080fd5b68056bc75e2d6310000034101561296f57600080fd5b670de0b6b3a76400006000612985826002613cc1565b905060006129933484613c71565b6001600160a01b0385166000908152602260205260408120600181015460029091015492935090916129d291670de0b6b3a76400009161184591613c8c565b90506000818310612a9e57506001600160a01b038516600090815260226020526040902060020154336108fc612a088585613c71565b6040518115909202916000818181858888f19350505050158015612a30573d6000803e3d6000fd5b506001600160a01b0386166108fc612a488487613c71565b6040518115909202916000818181858888f19350505050158015612a70573d6000803e3d6000fd5b506001600160a01b03861660009081526022602052604081206002810191909155805460ff19169055612b52565b6001600160a01b038616600090815260226020526040902060010154612ad09061184585670de0b6b3a7640000614a86565b6001600160a01b038716600090815260226020526040902060020154909150612af99082613c71565b6001600160a01b0387166000818152602260205260409020600201919091558392506108fc612b288487613c71565b6040518115909202916000818181858888f19350505050158015612b50573d6000803e3d6000fd5b505b6001600160a01b038616600081815260226020908152604091829020600101548251338152918201869052918101929092526060820183905260808201527ff8e95d915183c90f9fabac4065e57b8b1d98b33d26a71846f3c290160208f5599060a00160405180910390a1604051339085156108fc029086906000818181858888f19350505050158015612bea573d6000803e3d6000fd5b50612bf6863383614220565b6000612c0a6004546001600160a01b031690565b6040519091506001600160a01b0382169087156108fc029088906000818181858888f19350505050158015612c43573d6000803e3d6000fd5b50604080513381526001600160a01b03808a166020830152831691810191909152606081018790527fba90e8cf8805bba5f2eaad13ca5b91b6ae4ea1e0bc4ca3e38e41abbb21e0a15190608001611b5b565b6001600160a01b038116600090815260146020526040902054612cb757600080fd5b612cbf611d6d565b6000612cca826115dc565b90506000612cd661318e565b90506000612ce5826002613c71565b612cf0846064613c55565b1015612d0857612d01836064613c55565b9050612d16565b612d13826002613c71565b90505b600080612d24856001613c55565b90505b828111612d5d576000612d3a8783612f95565b509050612d478382613c55565b9250508080612d5590614a40565b915050612d27565b508015612dee576040516001600160a01b0386169082156108fc029083906000818181858888f19350505050158015612d9a573d6000803e3d6000fd5b50604080516001600160a01b0387168152602081018390527fbc84835063c693975166f00cffb19f01a94c2db55b1bf259238c5da3594e5066910160405180910390a1600954612dea9082613c55565b6009555b506001600160a01b039093166000908152601160205260409020929092555050565b6000612e1b33613b7b565b11612e2557600080fd5b600a60025414612e3457600080fd5b336000908152601e602052604090205460ff16151581151514611d5657336000908152601e60205260409020805460ff19168215801591909117909155612e9257612e8a612e8133613b7b565b601f5490613c55565b601f55612eab565b612ea7612e9e33613b7b565b601f5490613c71565b601f555b7f4e1a6be6a2ae51edfbdb07d7c3730fbfeb63a4ba7be5955a52037ef5318bd3a7336000601d612eda83613b7b565b85604051612eec959493929190614964565b60405180910390a150565b601d80548190612f069061492a565b80601f0160208091040260200160405190810160405280929190818152602001828054612f329061492a565b8015612f7f5780601f10612f5457610100808354040283529160200191612f7f565b820191906000526020600020905b815481529060010190602001808311612f6257829003601f168201915b5050505050908060020154908060030154905083565b6000806000612fa484866125d1565b9050600a6002541015612fbc576000925090506130b0565b6000612fc7856126f1565b6000868152601c602052604081206002015491925081900361309a576000612fed61318e565b600854909150600081900361300a57613007826003613c71565b90505b6000613017826001613c55565b905080613025846001613c71565b111561309657600061303c6001611dd88685613c71565b90506000613061601754611dd8600a54611dd860095447613c5590919063ffffffff16565b9050600061306f8284613cc1565b905061309061307d82613927565b611dd861308984611d59565b8490613c71565b96505050505b5050505b6130a8826118458584613c8c565b945091925050505b9250929050565b60008180156130de57506001600160a01b03831660009081526010602052604090205460ff165b8061310f57508115801561310f57506001600160a01b038316600090815260106020526040902054610100900460ff165b9392505050565b600061312133613b7b565b1161312b57600080fd5b600a6002541461313a57600080fd5b61315560646118456042601854613c8c90919063ffffffff16565b601f5410156127a357600080fd5b336131766004546001600160a01b031690565b6001600160a01b03161461318957600080fd5b600555565b60006131aa6103846118456131a3438361467b565b4390613c71565b905090565b60006131b961318e565b601854600082815260196020526040902055601a549091501561324557601a80548291906131e9906001906148e5565b815481106131f9576131f96148f8565b9060005260206000200154101561324057601a80546001810182556000919091527f057c384a7d1c54f3a1b2e5e67b2617b8224fdfd1ea7234eea573a6ff665ff63e018190555b61327b565b601a80546001810182556000919091527f057c384a7d1c54f3a1b2e5e67b2617b8224fdfd1ea7234eea573a6ff665ff63e018190555b601b546018546040805184815260208101939093528201527f80d22aa34216d742b2c5cb472135446b024327047c779a3a8cd28f17c0983c7b90606001612eec565b60006132c833613b7b565b116132d257600080fd5b600a60025410156132e257600080fd5b6132eb33613b7b565b8211156132f757600080fd5b33600090815260226020526040902060018101829055600201829055811561333857336000908152602260205260409020805460ff19166001179055613350565b336000908152602260205260409020805460ff191690555b60408051338152602081018490529081018290527f2f8935c41288df166e9b29f7b3ac57473233672eeae5a4821e5bfe666784a49a906060016114b7565b60006115068261066561318e565b336133af6004546001600160a01b031690565b6001600160a01b0316146133c257600080fd5b602455565b600081116133d457600080fd5b600a60025410611eaa57804310156133eb57600080fd5b6001600160a01b038216600090815260106020908152604080832084845260010190915290205461341b57600080fd5b6000818152600f602052604090205461343357600080fd5b6001600160a01b03821660009081526010602090815260408083208484526001908101835281842054600f90935290832054919247929091608891869161347a9190613c71565b6040516024810192909252604482015260640160408051601f198184030181529181526020820180516001600160e01b0316630441a3e760e41b179052516134c2919061490e565b6000604051808303816000865af19150503d80600081146134ff576040519150601f19603f3d011682016040523d82523d6000602084013e613504565b606091505b505090508061351257600080fd5b478361351e8285613c71565b101561352957600080fd5b6001600160a01b03861660008181526010602090815260408083208984526001018252808320839055600f9091528082208290555186156108fc0291879190818181858888f19350505050158015613585573d6000803e3d6000fd5b50604080516001600160a01b0388168152602081018790529081018590527ff279e6a1f5e320cca91135676d9cb6e44ca8a08c0b88342bcdb1144f6511b568906060015b60405180910390a1505050505050565b60006135e433613b7b565b116135ee57600080fd5b6003546001600160a01b03163314801561360a575060235460ff165b1561362a5760245461361f82611dd833613b7b565b101561362a57600080fd5b611eaa338383614220565b601b818154811061364557600080fd5b6000918252602090912001546001600160a01b0316905081565b336136726004546001600160a01b031690565b6001600160a01b03161461368557600080fd5b601481111561369357600080fd5b600b55565b6001600160a01b0381166000908152601060209081526040918290206002018054835181840281018401909452808452606093928301828280156136fb57602002820191906000526020600020905b8154815260200190600101908083116136e7575b50505050509050919050565b3361371a6004546001600160a01b031690565b6001600160a01b03161461372d57600080fd5b600380546001600160a01b0319166001600160a01b0392909216919091179055565b600061376c60646118456042601854613c8c90919063ffffffff16565b601f541015919050565b336137896004546001600160a01b031690565b6001600160a01b03161461379c57600080fd5b600755600655565b6001600160a01b0381166000908152601460205260409020546137c657600080fd5b60006137d1826115dc565b905060006137dd61318e565b905060006137ec836001613c55565b90506137f9826002613c71565b81111561380557600080fd5b61380d611d6d565b60008061381a8684612f95565b5090506138278282613c55565b604080516001600160a01b0389168152602081018490529081018590529092507f23cc5efbe23324543e8856e030fa85b4e4a060569f02c44080a80f46b0851e999060600160405180910390a18115613904576040516001600160a01b0387169083156108fc029084906000818181858888f193505050501580156138b0573d6000803e3d6000fd5b50604080516001600160a01b0388168152602081018490527fbc84835063c693975166f00cffb19f01a94c2db55b1bf259238c5da3594e5066910160405180910390a16009546139009083613c55565b6009555b50506001600160a01b039093166000908152601160205260409020929092555050565b600061150660646118458461183f600d5490565b600061394633613b7b565b1161395057600080fd5b690a968163f0a57b40000047101561396757600080fd5b600a6002541061397657600080fd5b6001546040516001600160a01b039091166024820152600090608890479060440160408051601f198184030181529181526020820180516001600160e01b03167f0126795100000000000000000000000000000000000000000000000000000000179052516139e5919061490e565b60006040518083038185875af1925050503d8060008114613a22576040519150601f19603f3d011682016040523d82523d6000602084013e613a27565b606091505b5050905080613a785760405162461bcd60e51b815260206004820152600e60248201527f70726f706f7365206661696c6564000000000000000000000000000000000000604482015260640161140f565b600a600255613a8561318e565b60209081556040513081527fd16d50d8d566a5c6f1f5d89ffcfa821adc9d9f4e780d153563abc82e943ff0e39101612eec565b33613acb6004546001600160a01b031690565b6001600160a01b031614613ade57600080fd5b6001600160a01b03909116600090815260116020526040902055565b6001600160a01b0381166000908152601e602052604081205460ff1615613b3a57506001600160a01b03166000908152601e602052604090205460ff1690565b506000919050565b33613b556004546001600160a01b031690565b6001600160a01b031614613b6857600080fd5b6023805460ff1916911515919091179055565b6000611506613b8861318e565b836125d1565b60008054613b9b9061492a565b80601f0160208091040260200160405190810160405280929190818152602001828054613bc79061492a565b8015613c145780601f10613be957610100808354040283529160200191613c14565b820191906000526020600020905b815481529060010190602001808311613bf757829003601f168201915b505050505081565b33613c2f6004546001600160a01b031690565b6001600160a01b031614613c4257600080fd5b6014811115613c5057600080fd5b600d55565b600080613c628385614a9d565b90508381101561310f57600080fd5b600082821115613c8057600080fd5b600061163883856148e5565b600082600003613c9e57506000611506565b6000613caa8385614a86565b905082613cb78583614ac6565b1461310f57600080fd5b6000808211613ccf57600080fd5b60006116388385614ac6565b6000818152601c6020526040812060010154602154829190829085118015613d035750600082115b15613e92576000613d1383611d59565b90506000613d296004546001600160a01b031690565b90508115613db3576040516001600160a01b0382169083156108fc029084906000818181858888f19350505050158015613d67573d6000803e3d6000fd5b507fbbce279f9ed60ffb489a37c1e015bb68c2dc3853842d04a597ce8a805185a5f087613d93600b5490565b604080519283526020830191909152810184905260600160405180910390a15b6000613dbe85613927565b90508015613e4c576003546040516001600160a01b039091169082156108fc029083906000818181858888f19350505050158015613e00573d6000803e3d6000fd5b507f49fb134b5aefb13dae321f724d5a24d45c3e0974603825ee6550c8207d714c2f88613e2c600d5490565b604080519283526020830191909152810183905260600160405180910390a15b613e5a81611dd88786613c71565b6000898152601c6020526040902060020155600954613e7f9082906112369086613c55565b600955613e8c8382613c55565b93505050505b846021541015613ea25760218590555b6000948552601c602052604090942060020154939492505050565b60185460158190556000908190613ede90690a968163f0a57b400000613c71565b6001546040516001600160a01b0390911660248201526044810182905290915060889060640160408051601f198184030181529181526020820180516001600160e01b03166301554df160e11b17905251613f39919061490e565b6000604051808303816000865af19150503d8060008114613f76576040519150601f19603f3d011682016040523d82523d6000602084013e613f7b565b606091505b50508092505081613fbe5760405162461bcd60e51b815260206004820152600d60248201526c1c995cda59db8819985a5b1959609a1b604482015260640161140f565b600654600090613fce9043613c55565b306000908152601060209081526040808320848452600101909152902054909150613ff99083613c55565b30600090815260106020908152604080832085845260018082018452828520959095556002018054808601825590845282842001859055600c54858452600f90925290912081905561404a91613c55565b600c556001546040516001600160a01b03909116602482015260889060440160408051601f198184030181529181526020820180516001600160e01b03167fae6e43f500000000000000000000000000000000000000000000000000000000179052516140b7919061490e565b6000604051808303816000865af19150503d80600081146140f4576040519150601f19603f3d011682016040523d82523d6000602084013e6140f9565b606091505b5050809350508261413c5760405162461bcd60e51b815260206004820152600d60248201526c1c995cda59db8819985a5b1959609a1b604482015260640161140f565b606460025560075461414e9043613c55565b905061418c61416883601854613c7190919063ffffffff16565b30600090815260106020908152604080832086845260010190915290205490613c55565b30600090815260106020908152604080832085845260018082018452828520959095556002018054808601825590845282842001859055600c54858452600f9092529091208190556141dd91613c55565b600c556040513081527f61ac3253c35e0a340886a3cec6e1c1dd9c734ed689f0416bbe04d315108968a09060200160405180910390a160006018556125ab6131af565b6000811161422d57600080fd5b60646002541061423c57600080fd5b600061424784613b7b565b9050818110156142bf5760405162461bcd60e51b815260206004820152603060248201527f7472616e73666572656420616d6f756e7420697320686967686572207468616e60448201527f207468652063757272656e742063617000000000000000000000000000000000606482015260840161140f565b60006142c961318e565b90506142d58284613c71565b60008281526013602090815260408083206001600160a01b038a16845282528083209390935560149052208054829190614311906001906148e5565b81548110614321576143216148f8565b90600052602060002001541461435d576001600160a01b0385166000908152601460209081526040822080546001810182559083529120018190555b61436685613b7b565b6000036144775760005b601b5481101561447557856001600160a01b0316601b8281548110614397576143976148f8565b6000918252602090912001546001600160a01b03160361446357601b80546143c1906001906148e5565b815481106143d1576143d16148f8565b600091825260209091200154601b80546001600160a01b0390921691839081106143fd576143fd6148f8565b9060005260206000200160006101000a8154816001600160a01b0302191690836001600160a01b03160217905550601b80548061443c5761443c614a59565b600082815260209020810160001990810180546001600160a01b0319169055019055614475565b8061446d81614a40565b915050614370565b505b600061448285613b7b565b9050806000036144d857601b80546001810182556000919091527f3ad8aa4f87544323a9d1e5dd902f40c356527a7955687113db5f9a85ad579dc10180546001600160a01b0319166001600160a01b0387161790555b6144e28185613c55565b60008381526013602090815260408083206001600160a01b038a1684528252808320939093556014905220541561458d576001600160a01b0385166000908152601460205260409020805483919061453c906001906148e5565b8154811061454c5761454c6148f8565b906000526020600020015414614588576001600160a01b0385166000908152601460209081526040822080546001810182559083529120018290555b6145b9565b6001600160a01b0385166000908152601460209081526040822080546001810182559083529120018290555b6001600160a01b038086166000908152601e602052604080822054928916825290205460ff90811615159116151514614633576001600160a01b0385166000908152601e602052604090205460ff161561462257601f5461461a9085613c55565b601f55614633565b601f5461462f9085613c71565b601f555b604080516001600160a01b038089168252871660208201529081018590527fa5c7720da5835a5d7b6c0afb0047711348a91e86c5edae9c61e40a746a036958906060016135c9565b60008160000361468a57600080fd5b61310f8284614ada565b6001600160a01b0381168114611d5657600080fd5b600080604083850312156146bc57600080fd5b82356146c781614694565b946020939093013593505050565b6000602082840312156146e757600080fd5b813561310f81614694565b8035801515811461470257600080fd5b919050565b6000806040838503121561471a57600080fd5b823561472581614694565b9150614733602084016146f2565b90509250929050565b60006020828403121561474e57600080fd5b5035919050565b6020808252825182820181905260009190848201906040850190845b818110156147965783516001600160a01b031683529284019291840191600101614771565b50909695505050505050565b600080604083850312156147b557600080fd5b8235915060208301356147c781614694565b809150509250929050565b6000602082840312156147e457600080fd5b61310f826146f2565b60005b838110156148085781810151838201526020016147f0565b50506000910152565b600081518084526148298160208601602086016147ed565b601f01601f19169290920160200192915050565b6060815260006148506060830186614811565b60208301949094525060400152919050565b6000806040838503121561487557600080fd5b50508035926020909101359150565b6020808252825182820181905260009190848201906040850190845b81811015614796578351835292840192918401916001016148a0565b60208152600061310f6020830184614811565b634e487b7160e01b600052601160045260246000fd5b81810381811115611506576115066148cf565b634e487b7160e01b600052603260045260246000fd5b600082516149208184602087016147ed565b9190910192915050565b600181811c9082168061493e57607f821691505b60208210810361495e57634e487b7160e01b600052602260045260246000fd5b50919050565b6001600160a01b038616815260006020868184015260a060408401526000865481600182811c91508083168061499b57607f831692505b85831081036149b857634e487b7160e01b85526022600452602485fd5b60a0880183905260c088018180156149d757600181146149ed57614a18565b60ff198616825284151560051b82019650614a18565b60008d81526020902060005b86811015614a12578154848201529085019089016149f9565b83019750505b5050505050606085018790525084151560808501529150614a369050565b9695505050505050565b600060018201614a5257614a526148cf565b5060010190565b634e487b7160e01b600052603160045260246000fd5b600081614a7e57614a7e6148cf565b506000190190565b8082028115828204841417611506576115066148cf565b80820180821115611506576115066148cf565b634e487b7160e01b600052601260045260246000fd5b600082614ad557614ad5614ab0565b500490565b600082614ae957614ae9614ab0565b50069056fea26469706673582212200cb35fb80a87bc2c78a585a2127044c2b425872c9e1608859aa44af492dbc75264736f6c63430008130033","opcodes":"PUSH1 0x80 PUSH1 0x40 MSTORE PUSH10 0x34F086F3B33B68400000 PUSH1 0x5 SSTORE PUSH3 0x21 PUSH2 0x384 PUSH1 0x60 PUSH3 0x20C JUMP JUMPDEST PUSH1 0x6 SSTORE PUSH3 0x34 PUSH2 0x384 PUSH2 0x5A0 PUSH3 0x20C JUMP JUMPDEST PUSH1 0x7 SSTORE PUSH1 0x0 PUSH1 0x9 DUP2 SWAP1 SSTORE PUSH1 0xA DUP2 SWAP1 SSTORE PUSH1 0xF PUSH1 0xB SSTORE PUSH1 0x1 PUSH1 0xC DUP2 SWAP1 SSTORE PUSH1 0xD DUP3 SWAP1 SSTORE PUSH2 0x1E0 PUSH1 0xE SSTORE PUSH1 0x15 DUP3 SWAP1 SSTORE PUSH1 0x16 DUP1 SLOAD PUSH2 0xFFFF NOT AND SWAP1 SSTORE PUSH1 0x17 DUP3 SWAP1 SSTORE PUSH1 0x21 SWAP2 SWAP1 SWAP2 SSTORE PUSH1 0x23 DUP1 SLOAD PUSH1 0xFF NOT AND SWAP1 SWAP2 OR SWAP1 SSTORE PUSH10 0x54B40B1F852BDA00000 PUSH1 0x24 SSTORE CALLVALUE DUP1 ISZERO PUSH3 0x9D JUMPI PUSH1 0x0 DUP1 REVERT JUMPDEST POP PUSH1 0x40 MLOAD PUSH3 0x502A CODESIZE SUB DUP1 PUSH3 0x502A DUP4 CODECOPY DUP2 ADD PUSH1 0x40 DUP2 SWAP1 MSTORE PUSH3 0xC0 SWAP2 PUSH3 0x259 JUMP JUMPDEST PUSH1 0x0 PUSH3 0xCE DUP4 DUP3 PUSH3 0x3D0 JUMP JUMPDEST POP PUSH1 0x1 DUP1 SLOAD PUSH1 0x1 PUSH1 0x1 PUSH1 0xA0 SHL SUB NOT AND PUSH1 0x1 PUSH1 0x1 PUSH1 0xA0 SHL SUB DUP4 AND OR DUP2 SSTORE PUSH1 0x2 SSTORE PUSH1 0x0 PUSH1 0x8 SSTORE PUSH3 0xFC PUSH3 0x161 JUMP JUMPDEST PUSH1 0x20 SWAP1 DUP2 SSTORE PUSH1 0x40 DUP1 MLOAD DUP1 DUP3 ADD SWAP1 SWAP2 MSTORE PUSH1 0x14 DUP2 MSTORE PUSH32 0x566F74696E6720666F722072657369676E696E67000000000000000000000000 SWAP2 DUP2 ADD SWAP2 SWAP1 SWAP2 MSTORE PUSH1 0x1D SWAP1 PUSH3 0x146 SWAP1 DUP3 PUSH3 0x3D0 JUMP JUMPDEST POP POP PUSH1 0x4 DUP1 SLOAD PUSH1 0x1 PUSH1 0x1 PUSH1 0xA0 SHL SUB NOT AND CALLER OR SWAP1 SSTORE POP PUSH3 0x4F6 JUMP JUMPDEST PUSH1 0x0 PUSH3 0x189 PUSH2 0x384 PUSH3 0x182 PUSH3 0x17A NUMBER DUP4 PUSH3 0x18E JUMP JUMPDEST NUMBER SWAP1 PUSH3 0x1B3 JUMP JUMPDEST SWAP1 PUSH3 0x1D9 JUMP JUMPDEST SWAP1 POP SWAP1 JUMP JUMPDEST PUSH1 0x0 DUP2 PUSH1 0x0 SUB PUSH3 0x19E JUMPI PUSH1 0x0 DUP1 REVERT JUMPDEST PUSH3 0x1AA DUP3 DUP5 PUSH3 0x4B2 JUMP JUMPDEST SWAP1 POP JUMPDEST SWAP3 SWAP2 POP POP JUMP JUMPDEST PUSH1 0x0 DUP3 DUP3 GT ISZERO PUSH3 0x1C3 JUMPI PUSH1 0x0 DUP1 REVERT JUMPDEST PUSH1 0x0 PUSH3 0x1D1 DUP4 DUP6 PUSH3 0x4C9 JUMP JUMPDEST SWAP5 SWAP4 POP POP POP POP JUMP JUMPDEST PUSH1 0x0 DUP1 DUP3 GT PUSH3 0x1E8 JUMPI PUSH1 0x0 DUP1 REVERT JUMPDEST PUSH1 0x0 PUSH3 0x1D1 DUP4 DUP6 PUSH3 0x4DF JUMP JUMPDEST PUSH4 0x4E487B71 PUSH1 0xE0 SHL PUSH1 0x0 MSTORE PUSH1 0x11 PUSH1 0x4 MSTORE PUSH1 0x24 PUSH1 0x0 REVERT JUMPDEST DUP1 DUP3 MUL DUP2 ISZERO DUP3 DUP3 DIV DUP5 EQ OR PUSH3 0x1AD JUMPI PUSH3 0x1AD PUSH3 0x1F6 JUMP JUMPDEST PUSH4 0x4E487B71 PUSH1 0xE0 SHL PUSH1 0x0 MSTORE PUSH1 0x41 PUSH1 0x4 MSTORE PUSH1 0x24 PUSH1 0x0 REVERT JUMPDEST DUP1 MLOAD PUSH1 0x1 PUSH1 0x1 PUSH1 0xA0 SHL SUB DUP2 AND DUP2 EQ PUSH3 0x254 JUMPI PUSH1 0x0 DUP1 REVERT JUMPDEST SWAP2 SWAP1 POP JUMP JUMPDEST PUSH1 0x0 DUP1 PUSH1 0x40 DUP4 DUP6 SUB SLT ISZERO PUSH3 0x26D JUMPI PUSH1 0x0 DUP1 REVERT JUMPDEST DUP3 MLOAD PUSH1 0x1 PUSH1 0x1 PUSH1 0x40 SHL SUB DUP1 DUP3 GT ISZERO PUSH3 0x285 JUMPI PUSH1 0x0 DUP1 REVERT JUMPDEST DUP2 DUP6 ADD SWAP2 POP DUP6 PUSH1 0x1F DUP4 ADD SLT PUSH3 0x29A JUMPI PUSH1 0x0 DUP1 REVERT JUMPDEST DUP2 MLOAD DUP2 DUP2 GT ISZERO PUSH3 0x2AF JUMPI PUSH3 0x2AF PUSH3 0x226 JUMP JUMPDEST PUSH1 0x40 MLOAD PUSH1 0x1F DUP3 ADD PUSH1 0x1F NOT SWAP1 DUP2 AND PUSH1 0x3F ADD AND DUP2 ADD SWAP1 DUP4 DUP3 GT DUP2 DUP4 LT OR ISZERO PUSH3 0x2DA JUMPI PUSH3 0x2DA PUSH3 0x226 JUMP JUMPDEST DUP2 PUSH1 0x40 MSTORE DUP3 DUP2 MSTORE PUSH1 0x20 SWAP4 POP DUP9 DUP5 DUP5 DUP8 ADD ADD GT ISZERO PUSH3 0x2F7 JUMPI PUSH1 0x0 DUP1 REVERT JUMPDEST PUSH1 0x0 SWAP2 POP JUMPDEST DUP3 DUP3 LT ISZERO PUSH3 0x31B JUMPI DUP5 DUP3 ADD DUP5 ADD MLOAD DUP2 DUP4 ADD DUP6 ADD MSTORE SWAP1 DUP4 ADD SWAP1 PUSH3 0x2FC JUMP JUMPDEST PUSH1 0x0 DUP5 DUP5 DUP4 ADD ADD MSTORE DUP1 SWAP7 POP POP POP POP PUSH3 0x336 DUP2 DUP7 ADD PUSH3 0x23C JUMP JUMPDEST SWAP3 POP POP POP SWAP3 POP SWAP3 SWAP1 POP JUMP JUMPDEST PUSH1 0x1 DUP2 DUP2 SHR SWAP1 DUP3 AND DUP1 PUSH3 0x356 JUMPI PUSH1 0x7F DUP3 AND SWAP2 POP JUMPDEST PUSH1 0x20 DUP3 LT DUP2 SUB PUSH3 0x377 JUMPI PUSH4 0x4E487B71 PUSH1 0xE0 SHL PUSH1 0x0 MSTORE PUSH1 0x22 PUSH1 0x4 MSTORE PUSH1 0x24 PUSH1 0x0 REVERT JUMPDEST POP SWAP2 SWAP1 POP JUMP JUMPDEST PUSH1 0x1F DUP3 GT ISZERO PUSH3 0x3CB JUMPI PUSH1 0x0 DUP2 DUP2 MSTORE PUSH1 0x20 DUP2 KECCAK256 PUSH1 0x1F DUP6 ADD PUSH1 0x5 SHR DUP2 ADD PUSH1 0x20 DUP7 LT ISZERO PUSH3 0x3A6 JUMPI POP DUP1 JUMPDEST PUSH1 0x1F DUP6 ADD PUSH1 0x5 SHR DUP3 ADD SWAP2 POP JUMPDEST DUP2 DUP2 LT ISZERO PUSH3 0x3C7 JUMPI DUP3 DUP2 SSTORE PUSH1 0x1 ADD PUSH3 0x3B2 JUMP JUMPDEST POP POP POP JUMPDEST POP POP POP JUMP JUMPDEST DUP2 MLOAD PUSH1 0x1 PUSH1 0x1 PUSH1 0x40 SHL SUB DUP2 GT ISZERO PUSH3 0x3EC JUMPI PUSH3 0x3EC PUSH3 0x226 JUMP JUMPDEST PUSH3 0x404 DUP2 PUSH3 0x3FD DUP5 SLOAD PUSH3 0x341 JUMP JUMPDEST DUP5 PUSH3 0x37D JUMP JUMPDEST PUSH1 0x20 DUP1 PUSH1 0x1F DUP4 GT PUSH1 0x1 DUP2 EQ PUSH3 0x43C JUMPI PUSH1 0x0 DUP5 ISZERO PUSH3 0x423 JUMPI POP DUP6 DUP4 ADD MLOAD JUMPDEST PUSH1 0x0 NOT PUSH1 0x3 DUP7 SWAP1 SHL SHR NOT AND PUSH1 0x1 DUP6 SWAP1 SHL OR DUP6 SSTORE PUSH3 0x3C7 JUMP JUMPDEST PUSH1 0x0 DUP6 DUP2 MSTORE PUSH1 0x20 DUP2 KECCAK256 PUSH1 0x1F NOT DUP7 AND SWAP2 JUMPDEST DUP3 DUP2 LT ISZERO PUSH3 0x46D JUMPI DUP9 DUP7 ADD MLOAD DUP3 SSTORE SWAP5 DUP5 ADD SWAP5 PUSH1 0x1 SWAP1 SWAP2 ADD SWAP1 DUP5 ADD PUSH3 0x44C JUMP JUMPDEST POP DUP6 DUP3 LT ISZERO PUSH3 0x48C JUMPI DUP8 DUP6 ADD MLOAD PUSH1 0x0 NOT PUSH1 0x3 DUP9 SWAP1 SHL PUSH1 0xF8 AND SHR NOT AND DUP2 SSTORE JUMPDEST POP POP POP POP POP PUSH1 0x1 SWAP1 DUP2 SHL ADD SWAP1 SSTORE POP JUMP JUMPDEST PUSH4 0x4E487B71 PUSH1 0xE0 SHL PUSH1 0x0 MSTORE PUSH1 0x12 PUSH1 0x4 MSTORE PUSH1 0x24 PUSH1 0x0 REVERT JUMPDEST PUSH1 0x0 DUP3 PUSH3 0x4C4 JUMPI PUSH3 0x4C4 PUSH3 0x49C JUMP JUMPDEST POP MOD SWAP1 JUMP JUMPDEST DUP2 DUP2 SUB DUP2 DUP2 GT ISZERO PUSH3 0x1AD JUMPI PUSH3 0x1AD PUSH3 0x1F6 JUMP JUMPDEST PUSH1 0x0 DUP3 PUSH3 0x4F1 JUMPI PUSH3 0x4F1 PUSH3 0x49C JUMP JUMPDEST POP DIV SWAP1 JUMP JUMPDEST PUSH2 0x4B24 DUP1 PUSH3 0x506 PUSH1 0x0 CODECOPY PUSH1 0x0 RETURN INVALID PUSH1 0x80 PUSH1 0x40 MSTORE PUSH1 0x4 CALLDATASIZE LT PUSH2 0x5E5 JUMPI PUSH1 0x0 CALLDATALOAD PUSH1 0xE0 SHR DUP1 PUSH4 0x672D58B1 GT PUSH2 0x301 JUMPI DUP1 PUSH4 0xABBE5F02 GT PUSH2 0x19A JUMPI DUP1 PUSH4 0xC30184B7 GT PUSH2 0xEC JUMPI DUP1 PUSH4 0xDB49479E GT PUSH2 0x95 JUMPI DUP1 PUSH4 0xF66D9332 GT PUSH2 0x6F JUMPI DUP1 PUSH4 0xF66D9332 EQ PUSH2 0x10F9 JUMPI DUP1 PUSH4 0xFA7CEEEC EQ PUSH2 0x111B JUMPI DUP1 PUSH4 0xFED5117B EQ PUSH2 0x1131 JUMPI PUSH1 0x0 DUP1 REVERT JUMPDEST DUP1 PUSH4 0xDB49479E EQ PUSH2 0x108A JUMPI DUP1 PUSH4 0xECE0C459 EQ PUSH2 0x10CA JUMPI DUP1 PUSH4 0xEE9BF182 EQ PUSH2 0x10E4 JUMPI PUSH1 0x0 DUP1 REVERT JUMPDEST DUP1 PUSH4 0xD11B1327 GT PUSH2 0xC6 JUMPI DUP1 PUSH4 0xD11B1327 EQ PUSH2 0x1034 JUMPI DUP1 PUSH4 0xD161C767 EQ PUSH2 0x1054 JUMPI DUP1 PUSH4 0xD9859744 EQ PUSH2 0x106A JUMPI PUSH1 0x0 DUP1 REVERT JUMPDEST DUP1 PUSH4 0xC30184B7 EQ PUSH2 0xFC6 JUMPI DUP1 PUSH4 0xC9803614 EQ PUSH2 0xFF4 JUMPI DUP1 PUSH4 0xCBFF75CB EQ PUSH2 0x1014 JUMPI PUSH1 0x0 DUP1 REVERT JUMPDEST DUP1 PUSH4 0xB3CABA5A GT PUSH2 0x14E JUMPI DUP1 PUSH4 0xC03F3F62 GT PUSH2 0x128 JUMPI DUP1 PUSH4 0xC03F3F62 EQ PUSH2 0xF71 JUMPI DUP1 PUSH4 0xC134B2F4 EQ PUSH2 0xF91 JUMPI DUP1 PUSH4 0xC198F8BA EQ PUSH2 0xFB1 JUMPI PUSH1 0x0 DUP1 REVERT JUMPDEST DUP1 PUSH4 0xB3CABA5A EQ PUSH2 0xF1C JUMPI DUP1 PUSH4 0xB4AD4FA4 EQ PUSH2 0xF3C JUMPI DUP1 PUSH4 0xBD010C64 EQ PUSH2 0xF51 JUMPI PUSH1 0x0 DUP1 REVERT JUMPDEST DUP1 PUSH4 0xACE197EA GT PUSH2 0x17F JUMPI DUP1 PUSH4 0xACE197EA EQ PUSH2 0xE99 JUMPI DUP1 PUSH4 0xADA6B16E EQ PUSH2 0xED9 JUMPI DUP1 PUSH4 0xB19CA21E EQ PUSH2 0xEEF JUMPI PUSH1 0x0 DUP1 REVERT JUMPDEST DUP1 PUSH4 0xABBE5F02 EQ PUSH2 0xE34 JUMPI DUP1 PUSH4 0xACC77B87 EQ PUSH2 0xE6C JUMPI PUSH1 0x0 DUP1 REVERT JUMPDEST DUP1 PUSH4 0x96C7944F GT PUSH2 0x253 JUMPI DUP1 PUSH4 0x9FD10735 GT PUSH2 0x207 JUMPI DUP1 PUSH4 0xA3AF4E39 GT PUSH2 0x1E1 JUMPI DUP1 PUSH4 0xA3AF4E39 EQ PUSH2 0xDB7 JUMPI DUP1 PUSH4 0xA54F5F7B EQ PUSH2 0xDFE JUMPI DUP1 PUSH4 0xA79AA45F EQ PUSH2 0xE14 JUMPI PUSH1 0x0 DUP1 REVERT JUMPDEST DUP1 PUSH4 0x9FD10735 EQ PUSH2 0xD57 JUMPI DUP1 PUSH4 0xA28F8847 EQ PUSH2 0xD77 JUMPI DUP1 PUSH4 0xA32B36AE EQ PUSH2 0xD97 JUMPI PUSH1 0x0 DUP1 REVERT JUMPDEST DUP1 PUSH4 0x9B95A00D GT PUSH2 0x238 JUMPI DUP1 PUSH4 0x9B95A00D EQ PUSH2 0xCF4 JUMPI DUP1 PUSH4 0x9E915CB7 EQ PUSH2 0xD0A JUMPI DUP1 PUSH4 0x9F923378 EQ PUSH2 0xD37 JUMPI PUSH1 0x0 DUP1 REVERT JUMPDEST DUP1 PUSH4 0x96C7944F EQ PUSH2 0xCBE JUMPI DUP1 PUSH4 0x96EA8B9C EQ PUSH2 0xCDE JUMPI PUSH1 0x0 DUP1 REVERT JUMPDEST DUP1 PUSH4 0x7CDED514 GT PUSH2 0x2B5 JUMPI DUP1 PUSH4 0x88CAED01 GT PUSH2 0x28F JUMPI DUP1 PUSH4 0x88CAED01 EQ PUSH2 0xC0D JUMPI DUP1 PUSH4 0x91141794 EQ PUSH2 0xC2D JUMPI DUP1 PUSH4 0x92F8EB94 EQ PUSH2 0xC91 JUMPI PUSH1 0x0 DUP1 REVERT JUMPDEST DUP1 PUSH4 0x7CDED514 EQ PUSH2 0xBCD JUMPI DUP1 PUSH4 0x7FE9F730 EQ PUSH2 0xBE2 JUMPI DUP1 PUSH4 0x8276BD19 EQ PUSH2 0xBF8 JUMPI PUSH1 0x0 DUP1 REVERT JUMPDEST DUP1 PUSH4 0x763265DE GT PUSH2 0x2E6 JUMPI DUP1 PUSH4 0x763265DE EQ PUSH2 0xB82 JUMPI DUP1 PUSH4 0x76671808 EQ PUSH2 0xBA2 JUMPI DUP1 PUSH4 0x7A11C3DA EQ PUSH2 0xBB7 JUMPI PUSH1 0x0 DUP1 REVERT JUMPDEST DUP1 PUSH4 0x672D58B1 EQ PUSH2 0xB57 JUMPI DUP1 PUSH4 0x69652FCF EQ PUSH2 0xB6D JUMPI PUSH1 0x0 DUP1 REVERT JUMPDEST DUP1 PUSH4 0x2DB49FBC GT PUSH2 0x47E JUMPI DUP1 PUSH4 0x4A5FF749 GT PUSH2 0x3D0 JUMPI DUP1 PUSH4 0x5A7C1F83 GT PUSH2 0x379 JUMPI DUP1 PUSH4 0x5E89C173 GT PUSH2 0x353 JUMPI DUP1 PUSH4 0x5E89C173 EQ PUSH2 0xAEC JUMPI DUP1 PUSH4 0x62FA411E EQ PUSH2 0xB21 JUMPI DUP1 PUSH4 0x657DB4BF EQ PUSH2 0xB37 JUMPI PUSH1 0x0 DUP1 REVERT JUMPDEST DUP1 PUSH4 0x5A7C1F83 EQ PUSH2 0xA92 JUMPI DUP1 PUSH4 0x5AA6E675 EQ PUSH2 0xAB2 JUMPI DUP1 PUSH4 0x5CFC1A51 EQ PUSH2 0xAD6 JUMPI PUSH1 0x0 DUP1 REVERT JUMPDEST DUP1 PUSH4 0x54CF5CA2 GT PUSH2 0x3AA JUMPI DUP1 PUSH4 0x54CF5CA2 EQ PUSH2 0xA3F JUMPI DUP1 PUSH4 0x558F2B7B EQ PUSH2 0xA52 JUMPI DUP1 PUSH4 0x567DB47D EQ PUSH2 0xA72 JUMPI PUSH1 0x0 DUP1 REVERT JUMPDEST DUP1 PUSH4 0x4A5FF749 EQ PUSH2 0x9EA JUMPI DUP1 PUSH4 0x4B1731C1 EQ PUSH2 0xA0A JUMPI DUP1 PUSH4 0x539B2BDE EQ PUSH2 0xA1F JUMPI PUSH1 0x0 DUP1 REVERT JUMPDEST DUP1 PUSH4 0x3A4B66F1 GT PUSH2 0x432 JUMPI DUP1 PUSH4 0x466E47C4 GT PUSH2 0x40C JUMPI DUP1 PUSH4 0x466E47C4 EQ PUSH2 0x975 JUMPI DUP1 PUSH4 0x481B2B0F EQ PUSH2 0x995 JUMPI DUP1 PUSH4 0x48427329 EQ PUSH2 0x9B4 JUMPI PUSH1 0x0 DUP1 REVERT JUMPDEST DUP1 PUSH4 0x3A4B66F1 EQ PUSH2 0x938 JUMPI DUP1 PUSH4 0x3A5381B5 EQ PUSH2 0x940 JUMPI DUP1 PUSH4 0x42C89561 EQ PUSH2 0x955 JUMPI PUSH1 0x0 DUP1 REVERT JUMPDEST DUP1 PUSH4 0x31C359FA GT PUSH2 0x463 JUMPI DUP1 PUSH4 0x31C359FA EQ PUSH2 0x8CD JUMPI DUP1 PUSH4 0x34382B72 EQ PUSH2 0x8EB JUMPI DUP1 PUSH4 0x381ECB85 EQ PUSH2 0x90B JUMPI PUSH1 0x0 DUP1 REVERT JUMPDEST DUP1 PUSH4 0x2DB49FBC EQ PUSH2 0x88B JUMPI DUP1 PUSH4 0x2E17DE78 EQ PUSH2 0x8AD JUMPI PUSH1 0x0 DUP1 REVERT JUMPDEST DUP1 PUSH4 0x1A247222 GT PUSH2 0x537 JUMPI DUP1 PUSH4 0x2217A361 GT PUSH2 0x4EB JUMPI DUP1 PUSH4 0x28E2AFBC GT PUSH2 0x4C5 JUMPI DUP1 PUSH4 0x28E2AFBC EQ PUSH2 0x841 JUMPI DUP1 PUSH4 0x29D86D5B EQ PUSH2 0x861 JUMPI DUP1 PUSH4 0x2B967E6E EQ PUSH2 0x876 JUMPI PUSH1 0x0 DUP1 REVERT JUMPDEST DUP1 PUSH4 0x2217A361 EQ PUSH2 0x7EB JUMPI DUP1 PUSH4 0x23548B8B EQ PUSH2 0x80B JUMPI DUP1 PUSH4 0x25D5971F EQ PUSH2 0x821 JUMPI PUSH1 0x0 DUP1 REVERT JUMPDEST DUP1 PUSH4 0x1C1E474E GT PUSH2 0x51C JUMPI DUP1 PUSH4 0x1C1E474E EQ PUSH2 0x7A3 JUMPI DUP1 PUSH4 0x1C75F085 EQ PUSH2 0x7B8 JUMPI DUP1 PUSH4 0x1CDACAE4 EQ PUSH2 0x7D6 JUMPI PUSH1 0x0 DUP1 REVERT JUMPDEST DUP1 PUSH4 0x1A247222 EQ PUSH2 0x76D JUMPI DUP1 PUSH4 0x1A786586 EQ PUSH2 0x783 JUMPI PUSH1 0x0 DUP1 REVERT JUMPDEST DUP1 PUSH4 0xE5EF41A GT PUSH2 0x599 JUMPI DUP1 PUSH4 0x11B65A76 GT PUSH2 0x573 JUMPI DUP1 PUSH4 0x11B65A76 EQ PUSH2 0x6F5 JUMPI DUP1 PUSH4 0x15A88D22 EQ PUSH2 0x715 JUMPI DUP1 PUSH4 0x1772CFB2 EQ PUSH2 0x74D JUMPI PUSH1 0x0 DUP1 REVERT JUMPDEST DUP1 PUSH4 0xE5EF41A EQ PUSH2 0x6A0 JUMPI DUP1 PUSH4 0xF2FE557 EQ PUSH2 0x6B6 JUMPI DUP1 PUSH4 0xF8178E6 EQ PUSH2 0x6CB JUMPI PUSH1 0x0 DUP1 REVERT JUMPDEST DUP1 PUSH4 0x6F381AA GT PUSH2 0x5CA JUMPI DUP1 PUSH4 0x6F381AA EQ PUSH2 0x64A JUMPI DUP1 PUSH4 0x95CF5C6 EQ PUSH2 0x66A JUMPI DUP1 PUSH4 0xB896D4F EQ PUSH2 0x68A JUMPI PUSH1 0x0 DUP1 REVERT JUMPDEST DUP1 PUSH4 0x42E1118 EQ PUSH2 0x601 JUMPI DUP1 PUSH4 0x6D98FD0 EQ PUSH2 0x62A JUMPI PUSH1 0x0 DUP1 REVERT JUMPDEST CALLDATASIZE PUSH2 0x5FC JUMPI CALLER PUSH1 0x88 EQ PUSH2 0x5FA JUMPI PUSH2 0x5FA PUSH2 0x1151 JUMP JUMPDEST STOP JUMPDEST PUSH1 0x0 DUP1 REVERT JUMPDEST CALLVALUE DUP1 ISZERO PUSH2 0x60D JUMPI PUSH1 0x0 DUP1 REVERT JUMPDEST POP PUSH2 0x617 PUSH1 0xA SLOAD DUP2 JUMP JUMPDEST PUSH1 0x40 MLOAD SWAP1 DUP2 MSTORE PUSH1 0x20 ADD JUMPDEST PUSH1 0x40 MLOAD DUP1 SWAP2 SUB SWAP1 RETURN JUMPDEST CALLVALUE DUP1 ISZERO PUSH2 0x636 JUMPI PUSH1 0x0 DUP1 REVERT JUMPDEST POP PUSH2 0x617 PUSH2 0x645 CALLDATASIZE PUSH1 0x4 PUSH2 0x46A9 JUMP JUMPDEST PUSH2 0x14C3 JUMP JUMPDEST CALLVALUE DUP1 ISZERO PUSH2 0x656 JUMPI PUSH1 0x0 DUP1 REVERT JUMPDEST POP PUSH2 0x617 PUSH2 0x665 CALLDATASIZE PUSH1 0x4 PUSH2 0x46A9 JUMP JUMPDEST PUSH2 0x14F4 JUMP JUMPDEST CALLVALUE DUP1 ISZERO PUSH2 0x676 JUMPI PUSH1 0x0 DUP1 REVERT JUMPDEST POP PUSH2 0x5FA PUSH2 0x685 CALLDATASIZE PUSH1 0x4 PUSH2 0x46D5 JUMP JUMPDEST PUSH2 0x150C JUMP JUMPDEST CALLVALUE DUP1 ISZERO PUSH2 0x696 JUMPI PUSH1 0x0 DUP1 REVERT JUMPDEST POP PUSH2 0x617 PUSH1 0xB SLOAD DUP2 JUMP JUMPDEST CALLVALUE DUP1 ISZERO PUSH2 0x6AC JUMPI PUSH1 0x0 DUP1 REVERT JUMPDEST POP PUSH2 0x617 PUSH1 0xC SLOAD DUP2 JUMP JUMPDEST CALLVALUE DUP1 ISZERO PUSH2 0x6C2 JUMPI PUSH1 0x0 DUP1 REVERT JUMPDEST POP PUSH2 0x617 PUSH1 0x64 DUP2 JUMP JUMPDEST CALLVALUE DUP1 ISZERO PUSH2 0x6D7 JUMPI PUSH1 0x0 DUP1 REVERT JUMPDEST POP PUSH1 0x23 SLOAD PUSH2 0x6E5 SWAP1 PUSH1 0xFF AND DUP2 JUMP JUMPDEST PUSH1 0x40 MLOAD SWAP1 ISZERO ISZERO DUP2 MSTORE PUSH1 0x20 ADD PUSH2 0x621 JUMP JUMPDEST CALLVALUE DUP1 ISZERO PUSH2 0x701 JUMPI PUSH1 0x0 DUP1 REVERT JUMPDEST POP PUSH2 0x617 PUSH2 0x710 CALLDATASIZE PUSH1 0x4 PUSH2 0x46D5 JUMP JUMPDEST PUSH2 0x1554 JUMP JUMPDEST CALLVALUE DUP1 ISZERO PUSH2 0x721 JUMPI PUSH1 0x0 DUP1 REVERT JUMPDEST POP PUSH1 0x3 SLOAD PUSH2 0x735 SWAP1 PUSH1 0x1 PUSH1 0x1 PUSH1 0xA0 SHL SUB AND DUP2 JUMP JUMPDEST PUSH1 0x40 MLOAD PUSH1 0x1 PUSH1 0x1 PUSH1 0xA0 SHL SUB SWAP1 SWAP2 AND DUP2 MSTORE PUSH1 0x20 ADD PUSH2 0x621 JUMP JUMPDEST CALLVALUE DUP1 ISZERO PUSH2 0x759 JUMPI PUSH1 0x0 DUP1 REVERT JUMPDEST POP PUSH2 0x617 PUSH2 0x768 CALLDATASIZE PUSH1 0x4 PUSH2 0x46D5 JUMP JUMPDEST PUSH2 0x15DC JUMP JUMPDEST CALLVALUE DUP1 ISZERO PUSH2 0x779 JUMPI PUSH1 0x0 DUP1 REVERT JUMPDEST POP PUSH2 0x617 PUSH1 0x24 SLOAD DUP2 JUMP JUMPDEST CALLVALUE DUP1 ISZERO PUSH2 0x78F JUMPI PUSH1 0x0 DUP1 REVERT JUMPDEST POP PUSH2 0x6E5 PUSH2 0x79E CALLDATASIZE PUSH1 0x4 PUSH2 0x4707 JUMP JUMPDEST PUSH2 0x1640 JUMP JUMPDEST CALLVALUE DUP1 ISZERO PUSH2 0x7AF JUMPI PUSH1 0x0 DUP1 REVERT JUMPDEST POP PUSH2 0x617 PUSH1 0x1 DUP2 JUMP JUMPDEST CALLVALUE DUP1 ISZERO PUSH2 0x7C4 JUMPI PUSH1 0x0 DUP1 REVERT JUMPDEST POP PUSH1 0x4 SLOAD PUSH1 0x1 PUSH1 0x1 PUSH1 0xA0 SHL SUB AND PUSH2 0x735 JUMP JUMPDEST CALLVALUE DUP1 ISZERO PUSH2 0x7E2 JUMPI PUSH1 0x0 DUP1 REVERT JUMPDEST POP PUSH2 0x5FA PUSH2 0x16BE JUMP JUMPDEST CALLVALUE DUP1 ISZERO PUSH2 0x7F7 JUMPI PUSH1 0x0 DUP1 REVERT JUMPDEST POP PUSH2 0x5FA PUSH2 0x806 CALLDATASIZE PUSH1 0x4 PUSH2 0x4707 JUMP JUMPDEST PUSH2 0x16F9 JUMP JUMPDEST CALLVALUE DUP1 ISZERO PUSH2 0x817 JUMPI PUSH1 0x0 DUP1 REVERT JUMPDEST POP PUSH2 0x617 PUSH1 0x5 SLOAD DUP2 JUMP JUMPDEST CALLVALUE DUP1 ISZERO PUSH2 0x82D JUMPI PUSH1 0x0 DUP1 REVERT JUMPDEST POP PUSH2 0x5FA PUSH2 0x83C CALLDATASIZE PUSH1 0x4 PUSH2 0x473C JUMP JUMPDEST PUSH2 0x1B6C JUMP JUMPDEST CALLVALUE DUP1 ISZERO PUSH2 0x84D JUMPI PUSH1 0x0 DUP1 REVERT JUMPDEST POP PUSH2 0x617 PUSH2 0x85C CALLDATASIZE PUSH1 0x4 PUSH2 0x473C JUMP JUMPDEST PUSH2 0x1D59 JUMP JUMPDEST CALLVALUE DUP1 ISZERO PUSH2 0x86D JUMPI PUSH1 0x0 DUP1 REVERT JUMPDEST POP PUSH1 0xB SLOAD PUSH2 0x617 JUMP JUMPDEST CALLVALUE DUP1 ISZERO PUSH2 0x882 JUMPI PUSH1 0x0 DUP1 REVERT JUMPDEST POP PUSH2 0x5FA PUSH2 0x1D6D JUMP JUMPDEST CALLVALUE DUP1 ISZERO PUSH2 0x897 JUMPI PUSH1 0x0 DUP1 REVERT JUMPDEST POP PUSH2 0x8A0 PUSH2 0x1EAE JUMP JUMPDEST PUSH1 0x40 MLOAD PUSH2 0x621 SWAP2 SWAP1 PUSH2 0x4755 JUMP JUMPDEST CALLVALUE DUP1 ISZERO PUSH2 0x8B9 JUMPI PUSH1 0x0 DUP1 REVERT JUMPDEST POP PUSH2 0x5FA PUSH2 0x8C8 CALLDATASIZE PUSH1 0x4 PUSH2 0x473C JUMP JUMPDEST PUSH2 0x1F10 JUMP JUMPDEST CALLVALUE DUP1 ISZERO PUSH2 0x8D9 JUMPI PUSH1 0x0 DUP1 REVERT JUMPDEST POP PUSH1 0x3 SLOAD PUSH1 0x1 PUSH1 0x1 PUSH1 0xA0 SHL SUB AND PUSH2 0x735 JUMP JUMPDEST CALLVALUE DUP1 ISZERO PUSH2 0x8F7 JUMPI PUSH1 0x0 DUP1 REVERT JUMPDEST POP PUSH2 0x617 PUSH2 0x906 CALLDATASIZE PUSH1 0x4 PUSH2 0x473C JUMP JUMPDEST PUSH2 0x25B0 JUMP JUMPDEST CALLVALUE DUP1 ISZERO PUSH2 0x917 JUMPI PUSH1 0x0 DUP1 REVERT JUMPDEST POP PUSH2 0x617 PUSH2 0x926 CALLDATASIZE PUSH1 0x4 PUSH2 0x46D5 JUMP JUMPDEST PUSH1 0x11 PUSH1 0x20 MSTORE PUSH1 0x0 SWAP1 DUP2 MSTORE PUSH1 0x40 SWAP1 KECCAK256 SLOAD DUP2 JUMP JUMPDEST PUSH2 0x5FA PUSH2 0x1151 JUMP JUMPDEST CALLVALUE DUP1 ISZERO PUSH2 0x94C JUMPI PUSH1 0x0 DUP1 REVERT JUMPDEST POP PUSH2 0x735 PUSH1 0x88 DUP2 JUMP JUMPDEST CALLVALUE DUP1 ISZERO PUSH2 0x961 JUMPI PUSH1 0x0 DUP1 REVERT JUMPDEST POP PUSH2 0x617 PUSH2 0x970 CALLDATASIZE PUSH1 0x4 PUSH2 0x47A2 JUMP JUMPDEST PUSH2 0x25D1 JUMP JUMPDEST CALLVALUE DUP1 ISZERO PUSH2 0x981 JUMPI PUSH1 0x0 DUP1 REVERT JUMPDEST POP PUSH2 0x617 PUSH2 0x990 CALLDATASIZE PUSH1 0x4 PUSH2 0x473C JUMP JUMPDEST PUSH2 0x26F1 JUMP JUMPDEST CALLVALUE DUP1 ISZERO PUSH2 0x9A1 JUMPI PUSH1 0x0 DUP1 REVERT JUMPDEST POP PUSH1 0x16 SLOAD PUSH2 0x6E5 SWAP1 PUSH2 0x100 SWAP1 DIV PUSH1 0xFF AND DUP2 JUMP JUMPDEST CALLVALUE DUP1 ISZERO PUSH2 0x9C0 JUMPI PUSH1 0x0 DUP1 REVERT JUMPDEST POP PUSH2 0x617 PUSH2 0x9CF CALLDATASIZE PUSH1 0x4 PUSH2 0x46D5 JUMP JUMPDEST PUSH1 0x1 PUSH1 0x1 PUSH1 0xA0 SHL SUB AND PUSH1 0x0 SWAP1 DUP2 MSTORE PUSH1 0x12 PUSH1 0x20 MSTORE PUSH1 0x40 SWAP1 KECCAK256 SLOAD SWAP1 JUMP JUMPDEST CALLVALUE DUP1 ISZERO PUSH2 0x9F6 JUMPI PUSH1 0x0 DUP1 REVERT JUMPDEST POP PUSH1 0x4 SLOAD PUSH2 0x735 SWAP1 PUSH1 0x1 PUSH1 0x1 PUSH1 0xA0 SHL SUB AND DUP2 JUMP JUMPDEST CALLVALUE DUP1 ISZERO PUSH2 0xA16 JUMPI PUSH1 0x0 DUP1 REVERT JUMPDEST POP PUSH2 0x5FA PUSH2 0x277D JUMP JUMPDEST CALLVALUE DUP1 ISZERO PUSH2 0xA2B JUMPI PUSH1 0x0 DUP1 REVERT JUMPDEST POP PUSH2 0x5FA PUSH2 0xA3A CALLDATASIZE PUSH1 0x4 PUSH2 0x46D5 JUMP JUMPDEST PUSH2 0x27AD JUMP JUMPDEST PUSH2 0x5FA PUSH2 0xA4D CALLDATASIZE PUSH1 0x4 PUSH2 0x46D5 JUMP JUMPDEST PUSH2 0x28FF JUMP JUMPDEST CALLVALUE DUP1 ISZERO PUSH2 0xA5E JUMPI PUSH1 0x0 DUP1 REVERT JUMPDEST POP PUSH2 0x5FA PUSH2 0xA6D CALLDATASIZE PUSH1 0x4 PUSH2 0x46D5 JUMP JUMPDEST PUSH2 0x2C95 JUMP JUMPDEST CALLVALUE DUP1 ISZERO PUSH2 0xA7E JUMPI PUSH1 0x0 DUP1 REVERT JUMPDEST POP PUSH1 0x1 SLOAD PUSH2 0x735 SWAP1 PUSH1 0x1 PUSH1 0x1 PUSH1 0xA0 SHL SUB AND DUP2 JUMP JUMPDEST CALLVALUE DUP1 ISZERO PUSH2 0xA9E JUMPI PUSH1 0x0 DUP1 REVERT JUMPDEST POP PUSH2 0x5FA PUSH2 0xAAD CALLDATASIZE PUSH1 0x4 PUSH2 0x47D2 JUMP JUMPDEST PUSH2 0x2E10 JUMP JUMPDEST CALLVALUE DUP1 ISZERO PUSH2 0xABE JUMPI PUSH1 0x0 DUP1 REVERT JUMPDEST POP PUSH2 0xAC7 PUSH2 0x2EF7 JUMP JUMPDEST PUSH1 0x40 MLOAD PUSH2 0x621 SWAP4 SWAP3 SWAP2 SWAP1 PUSH2 0x483D JUMP JUMPDEST CALLVALUE DUP1 ISZERO PUSH2 0xAE2 JUMPI PUSH1 0x0 DUP1 REVERT JUMPDEST POP PUSH2 0x617 PUSH1 0x18 SLOAD DUP2 JUMP JUMPDEST CALLVALUE DUP1 ISZERO PUSH2 0xAF8 JUMPI PUSH1 0x0 DUP1 REVERT JUMPDEST POP PUSH2 0xB0C PUSH2 0xB07 CALLDATASIZE PUSH1 0x4 PUSH2 0x46A9 JUMP JUMPDEST PUSH2 0x2F95 JUMP JUMPDEST PUSH1 0x40 DUP1 MLOAD SWAP3 DUP4 MSTORE PUSH1 0x20 DUP4 ADD SWAP2 SWAP1 SWAP2 MSTORE ADD PUSH2 0x621 JUMP JUMPDEST CALLVALUE DUP1 ISZERO PUSH2 0xB2D JUMPI PUSH1 0x0 DUP1 REVERT JUMPDEST POP PUSH2 0x617 PUSH1 0x15 SLOAD DUP2 JUMP JUMPDEST CALLVALUE DUP1 ISZERO PUSH2 0xB43 JUMPI PUSH1 0x0 DUP1 REVERT JUMPDEST POP PUSH2 0x6E5 PUSH2 0xB52 CALLDATASIZE PUSH1 0x4 PUSH2 0x4707 JUMP JUMPDEST PUSH2 0x30B7 JUMP JUMPDEST CALLVALUE DUP1 ISZERO PUSH2 0xB63 JUMPI PUSH1 0x0 DUP1 REVERT JUMPDEST POP PUSH2 0x617 PUSH1 0x17 SLOAD DUP2 JUMP JUMPDEST CALLVALUE DUP1 ISZERO PUSH2 0xB79 JUMPI PUSH1 0x0 DUP1 REVERT JUMPDEST POP PUSH2 0x5FA PUSH2 0x3116 JUMP JUMPDEST CALLVALUE DUP1 ISZERO PUSH2 0xB8E JUMPI PUSH1 0x0 DUP1 REVERT JUMPDEST POP PUSH2 0x5FA PUSH2 0xB9D CALLDATASIZE PUSH1 0x4 PUSH2 0x473C JUMP JUMPDEST PUSH2 0x3163 JUMP JUMPDEST CALLVALUE DUP1 ISZERO PUSH2 0xBAE JUMPI PUSH1 0x0 DUP1 REVERT JUMPDEST POP PUSH2 0x617 PUSH2 0x318E JUMP JUMPDEST CALLVALUE DUP1 ISZERO PUSH2 0xBC3 JUMPI PUSH1 0x0 DUP1 REVERT JUMPDEST POP PUSH2 0x617 PUSH1 0x6 SLOAD DUP2 JUMP JUMPDEST CALLVALUE DUP1 ISZERO PUSH2 0xBD9 JUMPI PUSH1 0x0 DUP1 REVERT JUMPDEST POP PUSH2 0x5FA PUSH2 0x31AF JUMP JUMPDEST CALLVALUE DUP1 ISZERO PUSH2 0xBEE JUMPI PUSH1 0x0 DUP1 REVERT JUMPDEST POP PUSH2 0x617 PUSH1 0x9 SLOAD DUP2 JUMP JUMPDEST CALLVALUE DUP1 ISZERO PUSH2 0xC04 JUMPI PUSH1 0x0 DUP1 REVERT JUMPDEST POP PUSH2 0x617 PUSH1 0xA DUP2 JUMP JUMPDEST CALLVALUE DUP1 ISZERO PUSH2 0xC19 JUMPI PUSH1 0x0 DUP1 REVERT JUMPDEST POP PUSH2 0x5FA PUSH2 0xC28 CALLDATASIZE PUSH1 0x4 PUSH2 0x4862 JUMP JUMPDEST PUSH2 0x32BD JUMP JUMPDEST CALLVALUE DUP1 ISZERO PUSH2 0xC39 JUMPI PUSH1 0x0 DUP1 REVERT JUMPDEST POP PUSH2 0xC74 PUSH2 0xC48 CALLDATASIZE PUSH1 0x4 PUSH2 0x46D5 JUMP JUMPDEST PUSH1 0x1 PUSH1 0x1 PUSH1 0xA0 SHL SUB AND PUSH1 0x0 SWAP1 DUP2 MSTORE PUSH1 0x22 PUSH1 0x20 MSTORE PUSH1 0x40 SWAP1 KECCAK256 DUP1 SLOAD PUSH1 0x1 DUP3 ADD SLOAD PUSH1 0x2 SWAP1 SWAP3 ADD SLOAD PUSH1 0xFF SWAP1 SWAP2 AND SWAP3 JUMP JUMPDEST PUSH1 0x40 DUP1 MLOAD SWAP4 ISZERO ISZERO DUP5 MSTORE PUSH1 0x20 DUP5 ADD SWAP3 SWAP1 SWAP3 MSTORE SWAP1 DUP3 ADD MSTORE PUSH1 0x60 ADD PUSH2 0x621 JUMP JUMPDEST CALLVALUE DUP1 ISZERO PUSH2 0xC9D JUMPI PUSH1 0x0 DUP1 REVERT JUMPDEST POP PUSH2 0x617 PUSH2 0xCAC CALLDATASIZE PUSH1 0x4 PUSH2 0x473C JUMP JUMPDEST PUSH1 0xF PUSH1 0x20 MSTORE PUSH1 0x0 SWAP1 DUP2 MSTORE PUSH1 0x40 SWAP1 KECCAK256 SLOAD DUP2 JUMP JUMPDEST CALLVALUE DUP1 ISZERO PUSH2 0xCCA JUMPI PUSH1 0x0 DUP1 REVERT JUMPDEST POP PUSH2 0x617 PUSH2 0xCD9 CALLDATASIZE PUSH1 0x4 PUSH2 0x46D5 JUMP JUMPDEST PUSH2 0x338E JUMP JUMPDEST CALLVALUE DUP1 ISZERO PUSH2 0xCEA JUMPI PUSH1 0x0 DUP1 REVERT JUMPDEST POP PUSH2 0x617 PUSH1 0xD SLOAD DUP2 JUMP JUMPDEST CALLVALUE DUP1 ISZERO PUSH2 0xD00 JUMPI PUSH1 0x0 DUP1 REVERT JUMPDEST POP PUSH2 0x617 PUSH2 0x384 DUP2 JUMP JUMPDEST CALLVALUE DUP1 ISZERO PUSH2 0xD16 JUMPI PUSH1 0x0 DUP1 REVERT JUMPDEST POP PUSH2 0x617 PUSH2 0xD25 CALLDATASIZE PUSH1 0x4 PUSH2 0x46D5 JUMP JUMPDEST PUSH1 0x12 PUSH1 0x20 MSTORE PUSH1 0x0 SWAP1 DUP2 MSTORE PUSH1 0x40 SWAP1 KECCAK256 SLOAD DUP2 JUMP JUMPDEST CALLVALUE DUP1 ISZERO PUSH2 0xD43 JUMPI PUSH1 0x0 DUP1 REVERT JUMPDEST POP PUSH2 0x5FA PUSH2 0xD52 CALLDATASIZE PUSH1 0x4 PUSH2 0x473C JUMP JUMPDEST PUSH2 0x339C JUMP JUMPDEST CALLVALUE DUP1 ISZERO PUSH2 0xD63 JUMPI PUSH1 0x0 DUP1 REVERT JUMPDEST POP PUSH2 0x5FA PUSH2 0xD72 CALLDATASIZE PUSH1 0x4 PUSH2 0x46A9 JUMP JUMPDEST PUSH2 0x33C7 JUMP JUMPDEST CALLVALUE DUP1 ISZERO PUSH2 0xD83 JUMPI PUSH1 0x0 DUP1 REVERT JUMPDEST POP PUSH2 0x5FA PUSH2 0xD92 CALLDATASIZE PUSH1 0x4 PUSH2 0x46A9 JUMP JUMPDEST PUSH2 0x35D9 JUMP JUMPDEST CALLVALUE DUP1 ISZERO PUSH2 0xDA3 JUMPI PUSH1 0x0 DUP1 REVERT JUMPDEST POP PUSH2 0x735 PUSH2 0xDB2 CALLDATASIZE PUSH1 0x4 PUSH2 0x473C JUMP JUMPDEST PUSH2 0x3635 JUMP JUMPDEST CALLVALUE DUP1 ISZERO PUSH2 0xDC3 JUMPI PUSH1 0x0 DUP1 REVERT JUMPDEST POP PUSH2 0x617 PUSH2 0xDD2 CALLDATASIZE PUSH1 0x4 PUSH2 0x46A9 JUMP JUMPDEST PUSH1 0x1 PUSH1 0x1 PUSH1 0xA0 SHL SUB SWAP2 SWAP1 SWAP2 AND PUSH1 0x0 SWAP1 DUP2 MSTORE PUSH1 0x10 PUSH1 0x20 SWAP1 DUP2 MSTORE PUSH1 0x40 DUP1 DUP4 KECCAK256 SWAP4 DUP4 MSTORE PUSH1 0x1 SWAP1 SWAP4 ADD SWAP1 MSTORE KECCAK256 SLOAD SWAP1 JUMP JUMPDEST CALLVALUE DUP1 ISZERO PUSH2 0xE0A JUMPI PUSH1 0x0 DUP1 REVERT JUMPDEST POP PUSH2 0x617 PUSH1 0x2 SLOAD DUP2 JUMP JUMPDEST CALLVALUE DUP1 ISZERO PUSH2 0xE20 JUMPI PUSH1 0x0 DUP1 REVERT JUMPDEST POP PUSH2 0x5FA PUSH2 0xE2F CALLDATASIZE PUSH1 0x4 PUSH2 0x473C JUMP JUMPDEST PUSH2 0x365F JUMP JUMPDEST CALLVALUE DUP1 ISZERO PUSH2 0xE40 JUMPI PUSH1 0x0 DUP1 REVERT JUMPDEST POP PUSH2 0x617 PUSH2 0xE4F CALLDATASIZE PUSH1 0x4 PUSH2 0x47A2 JUMP JUMPDEST PUSH1 0x13 PUSH1 0x20 SWAP1 DUP2 MSTORE PUSH1 0x0 SWAP3 DUP4 MSTORE PUSH1 0x40 DUP1 DUP5 KECCAK256 SWAP1 SWAP2 MSTORE SWAP1 DUP3 MSTORE SWAP1 KECCAK256 SLOAD DUP2 JUMP JUMPDEST CALLVALUE DUP1 ISZERO PUSH2 0xE78 JUMPI PUSH1 0x0 DUP1 REVERT JUMPDEST POP PUSH2 0xE8C PUSH2 0xE87 CALLDATASIZE PUSH1 0x4 PUSH2 0x46D5 JUMP JUMPDEST PUSH2 0x3698 JUMP JUMPDEST PUSH1 0x40 MLOAD PUSH2 0x621 SWAP2 SWAP1 PUSH2 0x4884 JUMP JUMPDEST CALLVALUE DUP1 ISZERO PUSH2 0xEA5 JUMPI PUSH1 0x0 DUP1 REVERT JUMPDEST POP PUSH2 0xC74 PUSH2 0xEB4 CALLDATASIZE PUSH1 0x4 PUSH2 0x46D5 JUMP JUMPDEST PUSH1 0x22 PUSH1 0x20 MSTORE PUSH1 0x0 SWAP1 DUP2 MSTORE PUSH1 0x40 SWAP1 KECCAK256 DUP1 SLOAD PUSH1 0x1 DUP3 ADD SLOAD PUSH1 0x2 SWAP1 SWAP3 ADD SLOAD PUSH1 0xFF SWAP1 SWAP2 AND SWAP2 SWAP1 DUP4 JUMP JUMPDEST CALLVALUE DUP1 ISZERO PUSH2 0xEE5 JUMPI PUSH1 0x0 DUP1 REVERT JUMPDEST POP PUSH2 0x617 PUSH1 0x8 SLOAD DUP2 JUMP JUMPDEST CALLVALUE DUP1 ISZERO PUSH2 0xEFB JUMPI PUSH1 0x0 DUP1 REVERT JUMPDEST POP PUSH2 0x617 PUSH2 0xF0A CALLDATASIZE PUSH1 0x4 PUSH2 0x473C JUMP JUMPDEST PUSH1 0x19 PUSH1 0x20 MSTORE PUSH1 0x0 SWAP1 DUP2 MSTORE PUSH1 0x40 SWAP1 KECCAK256 SLOAD DUP2 JUMP JUMPDEST CALLVALUE DUP1 ISZERO PUSH2 0xF28 JUMPI PUSH1 0x0 DUP1 REVERT JUMPDEST POP PUSH2 0x5FA PUSH2 0xF37 CALLDATASIZE PUSH1 0x4 PUSH2 0x46D5 JUMP JUMPDEST PUSH2 0x3707 JUMP JUMPDEST CALLVALUE DUP1 ISZERO PUSH2 0xF48 JUMPI PUSH1 0x0 DUP1 REVERT JUMPDEST POP PUSH2 0x6E5 PUSH2 0x374F JUMP JUMPDEST CALLVALUE DUP1 ISZERO PUSH2 0xF5D JUMPI PUSH1 0x0 DUP1 REVERT JUMPDEST POP PUSH2 0x5FA PUSH2 0xF6C CALLDATASIZE PUSH1 0x4 PUSH2 0x4862 JUMP JUMPDEST PUSH2 0x3776 JUMP JUMPDEST CALLVALUE DUP1 ISZERO PUSH2 0xF7D JUMPI PUSH1 0x0 DUP1 REVERT JUMPDEST POP PUSH2 0x5FA PUSH2 0xF8C CALLDATASIZE PUSH1 0x4 PUSH2 0x46D5 JUMP JUMPDEST PUSH2 0x37A4 JUMP JUMPDEST CALLVALUE DUP1 ISZERO PUSH2 0xF9D JUMPI PUSH1 0x0 DUP1 REVERT JUMPDEST POP PUSH2 0x617 PUSH2 0xFAC CALLDATASIZE PUSH1 0x4 PUSH2 0x473C JUMP JUMPDEST PUSH2 0x3927 JUMP JUMPDEST CALLVALUE DUP1 ISZERO PUSH2 0xFBD JUMPI PUSH1 0x0 DUP1 REVERT JUMPDEST POP PUSH2 0x5FA PUSH2 0x393B JUMP JUMPDEST CALLVALUE DUP1 ISZERO PUSH2 0xFD2 JUMPI PUSH1 0x0 DUP1 REVERT JUMPDEST POP PUSH2 0x6E5 PUSH2 0xFE1 CALLDATASIZE PUSH1 0x4 PUSH2 0x473C JUMP JUMPDEST PUSH1 0x0 SWAP1 DUP2 MSTORE PUSH1 0xF PUSH1 0x20 MSTORE PUSH1 0x40 SWAP1 KECCAK256 SLOAD ISZERO SWAP1 JUMP JUMPDEST CALLVALUE DUP1 ISZERO PUSH2 0x1000 JUMPI PUSH1 0x0 DUP1 REVERT JUMPDEST POP PUSH2 0x5FA PUSH2 0x100F CALLDATASIZE PUSH1 0x4 PUSH2 0x46A9 JUMP JUMPDEST PUSH2 0x3AB8 JUMP JUMPDEST CALLVALUE DUP1 ISZERO PUSH2 0x1020 JUMPI PUSH1 0x0 DUP1 REVERT JUMPDEST POP PUSH2 0x6E5 PUSH2 0x102F CALLDATASIZE PUSH1 0x4 PUSH2 0x46D5 JUMP JUMPDEST PUSH2 0x3AFA JUMP JUMPDEST CALLVALUE DUP1 ISZERO PUSH2 0x1040 JUMPI PUSH1 0x0 DUP1 REVERT JUMPDEST POP PUSH2 0x5FA PUSH2 0x104F CALLDATASIZE PUSH1 0x4 PUSH2 0x47D2 JUMP JUMPDEST PUSH2 0x3B42 JUMP JUMPDEST CALLVALUE DUP1 ISZERO PUSH2 0x1060 JUMPI PUSH1 0x0 DUP1 REVERT JUMPDEST POP PUSH2 0x617 PUSH1 0x7 SLOAD DUP2 JUMP JUMPDEST CALLVALUE DUP1 ISZERO PUSH2 0x1076 JUMPI PUSH1 0x0 DUP1 REVERT JUMPDEST POP PUSH2 0x617 PUSH2 0x1085 CALLDATASIZE PUSH1 0x4 PUSH2 0x46D5 JUMP JUMPDEST PUSH2 0x3B7B JUMP JUMPDEST CALLVALUE DUP1 ISZERO PUSH2 0x1096 JUMPI PUSH1 0x0 DUP1 REVERT JUMPDEST POP PUSH2 0xC74 PUSH2 0x10A5 CALLDATASIZE PUSH1 0x4 PUSH2 0x473C JUMP JUMPDEST PUSH1 0x1C PUSH1 0x20 MSTORE PUSH1 0x0 SWAP1 DUP2 MSTORE PUSH1 0x40 SWAP1 KECCAK256 DUP1 SLOAD PUSH1 0x1 DUP3 ADD SLOAD PUSH1 0x2 SWAP1 SWAP3 ADD SLOAD PUSH1 0xFF SWAP1 SWAP2 AND SWAP2 SWAP1 DUP4 JUMP JUMPDEST CALLVALUE DUP1 ISZERO PUSH2 0x10D6 JUMPI PUSH1 0x0 DUP1 REVERT JUMPDEST POP PUSH1 0x16 SLOAD PUSH2 0x6E5 SWAP1 PUSH1 0xFF AND DUP2 JUMP JUMPDEST CALLVALUE DUP1 ISZERO PUSH2 0x10F0 JUMPI PUSH1 0x0 DUP1 REVERT JUMPDEST POP PUSH1 0xD SLOAD PUSH2 0x617 JUMP JUMPDEST CALLVALUE DUP1 ISZERO PUSH2 0x1105 JUMPI PUSH1 0x0 DUP1 REVERT JUMPDEST POP PUSH2 0x110E PUSH2 0x3B8E JUMP JUMPDEST PUSH1 0x40 MLOAD PUSH2 0x621 SWAP2 SWAP1 PUSH2 0x48BC JUMP JUMPDEST CALLVALUE DUP1 ISZERO PUSH2 0x1127 JUMPI PUSH1 0x0 DUP1 REVERT JUMPDEST POP PUSH2 0x617 PUSH1 0xE SLOAD DUP2 JUMP JUMPDEST CALLVALUE DUP1 ISZERO PUSH2 0x113D JUMPI PUSH1 0x0 DUP1 REVERT JUMPDEST POP PUSH2 0x5FA PUSH2 0x114C CALLDATASIZE PUSH1 0x4 PUSH2 0x473C JUMP JUMPDEST PUSH2 0x3C1C JUMP JUMPDEST CALLVALUE PUSH1 0x5 SLOAD PUSH2 0x116A DUP3 PUSH1 0x18 SLOAD PUSH2 0x3C55 SWAP1 SWAP2 SWAP1 PUSH4 0xFFFFFFFF AND JUMP JUMPDEST GT ISZERO PUSH2 0x1175 JUMPI PUSH1 0x0 DUP1 REVERT JUMPDEST PUSH1 0x23 SLOAD PUSH1 0xFF AND ISZERO PUSH2 0x11A3 JUMPI PUSH1 0x24 SLOAD PUSH1 0x3 SLOAD PUSH2 0x1198 SWAP1 PUSH1 0x1 PUSH1 0x1 PUSH1 0xA0 SHL SUB AND PUSH2 0x3B7B JUMP JUMPDEST LT ISZERO PUSH2 0x11A3 JUMPI PUSH1 0x0 DUP1 REVERT JUMPDEST PUSH1 0x64 PUSH1 0x2 SLOAD LT PUSH2 0x11B2 JUMPI PUSH1 0x0 DUP1 REVERT JUMPDEST PUSH2 0x11BB CALLER PUSH2 0x3B7B JUMP JUMPDEST PUSH1 0x0 SUB PUSH2 0x121D JUMPI PUSH1 0x1B DUP1 SLOAD PUSH1 0x1 DUP2 ADD DUP3 SSTORE PUSH1 0x0 SWAP2 SWAP1 SWAP2 MSTORE PUSH32 0x3AD8AA4F87544323A9D1E5DD902F40C356527A7955687113DB5F9A85AD579DC1 ADD DUP1 SLOAD PUSH1 0x1 PUSH1 0x1 PUSH1 0xA0 SHL SUB NOT AND CALLER OR SWAP1 SSTORE PUSH2 0x120C PUSH2 0x318E JUMP JUMPDEST CALLER PUSH1 0x0 SWAP1 DUP2 MSTORE PUSH1 0x11 PUSH1 0x20 MSTORE PUSH1 0x40 SWAP1 KECCAK256 SSTORE JUMPDEST PUSH1 0x0 PUSH2 0x1227 PUSH2 0x318E JUMP JUMPDEST SWAP1 POP PUSH2 0x123C CALLVALUE PUSH2 0x1236 CALLER PUSH2 0x3B7B JUMP JUMPDEST SWAP1 PUSH2 0x3C55 JUMP JUMPDEST PUSH1 0x0 DUP3 DUP2 MSTORE PUSH1 0x13 PUSH1 0x20 SWAP1 DUP2 MSTORE PUSH1 0x40 DUP1 DUP4 KECCAK256 CALLER DUP5 MSTORE DUP3 MSTORE DUP1 DUP4 KECCAK256 SWAP4 SWAP1 SWAP4 SSTORE PUSH1 0x14 SWAP1 MSTORE KECCAK256 SLOAD ISZERO PUSH2 0x12CC JUMPI CALLER PUSH1 0x0 SWAP1 DUP2 MSTORE PUSH1 0x14 PUSH1 0x20 MSTORE PUSH1 0x40 SWAP1 KECCAK256 DUP1 SLOAD DUP3 SWAP2 SWAP1 PUSH2 0x1284 SWAP1 PUSH1 0x1 SWAP1 PUSH2 0x48E5 JUMP JUMPDEST DUP2 SLOAD DUP2 LT PUSH2 0x1294 JUMPI PUSH2 0x1294 PUSH2 0x48F8 JUMP JUMPDEST SWAP1 PUSH1 0x0 MSTORE PUSH1 0x20 PUSH1 0x0 KECCAK256 ADD SLOAD EQ PUSH2 0x12C7 JUMPI CALLER PUSH1 0x0 SWAP1 DUP2 MSTORE PUSH1 0x14 PUSH1 0x20 SWAP1 DUP2 MSTORE PUSH1 0x40 DUP3 KECCAK256 DUP1 SLOAD PUSH1 0x1 DUP2 ADD DUP3 SSTORE SWAP1 DUP4 MSTORE SWAP2 KECCAK256 ADD DUP2 SWAP1 SSTORE JUMPDEST PUSH2 0x12EF JUMP JUMPDEST CALLER PUSH1 0x0 SWAP1 DUP2 MSTORE PUSH1 0x14 PUSH1 0x20 SWAP1 DUP2 MSTORE PUSH1 0x40 DUP3 KECCAK256 DUP1 SLOAD PUSH1 0x1 DUP2 ADD DUP3 SSTORE SWAP1 DUP4 MSTORE SWAP2 KECCAK256 ADD DUP2 SWAP1 SSTORE JUMPDEST PUSH1 0x18 SLOAD PUSH2 0x12FC SWAP1 CALLVALUE PUSH2 0x3C55 JUMP JUMPDEST PUSH1 0x18 SSTORE PUSH2 0x1307 PUSH2 0x31AF JUMP JUMPDEST PUSH1 0xA PUSH1 0x2 SLOAD SUB PUSH2 0x1486 JUMPI PUSH1 0x1 SLOAD PUSH1 0x40 MLOAD PUSH1 0x1 PUSH1 0x1 PUSH1 0xA0 SHL SUB SWAP1 SWAP2 AND PUSH1 0x24 DUP3 ADD MSTORE PUSH1 0x0 SWAP1 PUSH1 0x88 SWAP1 CALLVALUE SWAP1 PUSH1 0x44 ADD PUSH1 0x40 DUP1 MLOAD PUSH1 0x1F NOT DUP2 DUP5 SUB ADD DUP2 MSTORE SWAP2 DUP2 MSTORE PUSH1 0x20 DUP3 ADD DUP1 MLOAD PUSH1 0x1 PUSH1 0x1 PUSH1 0xE0 SHL SUB AND PUSH32 0x6DD7D8EA00000000000000000000000000000000000000000000000000000000 OR SWAP1 MSTORE MLOAD PUSH2 0x1380 SWAP2 SWAP1 PUSH2 0x490E JUMP JUMPDEST PUSH1 0x0 PUSH1 0x40 MLOAD DUP1 DUP4 SUB DUP2 DUP6 DUP8 GAS CALL SWAP3 POP POP POP RETURNDATASIZE DUP1 PUSH1 0x0 DUP2 EQ PUSH2 0x13BD JUMPI PUSH1 0x40 MLOAD SWAP2 POP PUSH1 0x1F NOT PUSH1 0x3F RETURNDATASIZE ADD AND DUP3 ADD PUSH1 0x40 MSTORE RETURNDATASIZE DUP3 MSTORE RETURNDATASIZE PUSH1 0x0 PUSH1 0x20 DUP5 ADD RETURNDATACOPY PUSH2 0x13C2 JUMP JUMPDEST PUSH1 0x60 SWAP2 POP JUMPDEST POP POP SWAP1 POP DUP1 PUSH2 0x1418 JUMPI PUSH1 0x40 MLOAD PUSH3 0x461BCD PUSH1 0xE5 SHL DUP2 MSTORE PUSH1 0x20 PUSH1 0x4 DUP3 ADD MSTORE PUSH1 0x9 PUSH1 0x24 DUP3 ADD MSTORE PUSH32 0x566F7465206661696C0000000000000000000000000000000000000000000000 PUSH1 0x44 DUP3 ADD MSTORE PUSH1 0x64 ADD JUMPDEST PUSH1 0x40 MLOAD DUP1 SWAP2 SUB SWAP1 REVERT JUMPDEST CALLER PUSH1 0x0 SWAP1 DUP2 MSTORE PUSH1 0x1E PUSH1 0x20 MSTORE PUSH1 0x40 SWAP1 KECCAK256 SLOAD PUSH1 0xFF AND ISZERO PUSH2 0x1484 JUMPI PUSH1 0x1F SLOAD PUSH2 0x143D SWAP1 CALLVALUE PUSH2 0x3C55 JUMP JUMPDEST PUSH1 0x1F SSTORE PUSH1 0x40 MLOAD PUSH32 0x4E1A6BE6A2AE51EDFBDB07D7C3730FBFEB63A4BA7BE5955A52037EF5318BD3A7 SWAP1 PUSH2 0x147B SWAP1 CALLER SWAP1 PUSH1 0x0 SWAP1 PUSH1 0x1D SWAP1 CALLVALUE SWAP1 PUSH1 0x1 SWAP1 PUSH2 0x4964 JUMP JUMPDEST PUSH1 0x40 MLOAD DUP1 SWAP2 SUB SWAP1 LOG1 JUMPDEST POP JUMPDEST PUSH1 0x40 DUP1 MLOAD CALLER DUP2 MSTORE CALLVALUE PUSH1 0x20 DUP3 ADD MSTORE PUSH32 0xEBEDB8B3C678666E7F36970BC8F57ABF6D8FA2E828C0DA91EA5B75BF68ED101A SWAP2 ADD JUMPDEST PUSH1 0x40 MLOAD DUP1 SWAP2 SUB SWAP1 LOG1 POP POP JUMP JUMPDEST PUSH1 0x14 PUSH1 0x20 MSTORE DUP2 PUSH1 0x0 MSTORE PUSH1 0x40 PUSH1 0x0 KECCAK256 DUP2 DUP2 SLOAD DUP2 LT PUSH2 0x14DF JUMPI PUSH1 0x0 DUP1 REVERT JUMPDEST SWAP1 PUSH1 0x0 MSTORE PUSH1 0x20 PUSH1 0x0 KECCAK256 ADD PUSH1 0x0 SWAP2 POP SWAP2 POP POP SLOAD DUP2 JUMP JUMPDEST PUSH1 0x0 DUP1 PUSH2 0x1501 DUP5 DUP5 PUSH2 0x2F95 JUMP JUMPDEST POP SWAP2 POP POP JUMPDEST SWAP3 SWAP2 POP POP JUMP JUMPDEST CALLER PUSH2 0x151F PUSH1 0x4 SLOAD PUSH1 0x1 PUSH1 0x1 PUSH1 0xA0 SHL SUB AND SWAP1 JUMP JUMPDEST PUSH1 0x1 PUSH1 0x1 PUSH1 0xA0 SHL SUB AND EQ PUSH2 0x1532 JUMPI PUSH1 0x0 DUP1 REVERT JUMPDEST PUSH1 0x25 DUP1 SLOAD PUSH1 0x1 PUSH1 0x1 PUSH1 0xA0 SHL SUB NOT AND PUSH1 0x1 PUSH1 0x1 PUSH1 0xA0 SHL SUB SWAP3 SWAP1 SWAP3 AND SWAP2 SWAP1 SWAP2 OR SWAP1 SSTORE JUMP JUMPDEST PUSH1 0x0 PUSH1 0xA PUSH1 0x2 SLOAD LT ISZERO PUSH2 0x1569 JUMPI POP PUSH1 0x0 SWAP2 SWAP1 POP JUMP JUMPDEST PUSH1 0x0 PUSH2 0x1574 DUP4 PUSH2 0x15DC JUMP JUMPDEST SWAP1 POP PUSH1 0x0 PUSH2 0x1580 PUSH2 0x318E JUMP JUMPDEST SWAP1 POP PUSH1 0x0 DUP1 PUSH2 0x1590 DUP5 PUSH1 0x1 PUSH2 0x3C55 JUMP JUMPDEST SWAP1 POP JUMPDEST PUSH2 0x159E DUP4 PUSH1 0x2 PUSH2 0x3C71 JUMP JUMPDEST DUP2 GT PUSH2 0x15D3 JUMPI PUSH1 0x0 PUSH2 0x15B0 DUP8 DUP4 PUSH2 0x2F95 JUMP JUMPDEST POP SWAP1 POP PUSH2 0x15BD DUP4 DUP3 PUSH2 0x3C55 JUMP JUMPDEST SWAP3 POP POP DUP1 DUP1 PUSH2 0x15CB SWAP1 PUSH2 0x4A40 JUMP JUMPDEST SWAP2 POP POP PUSH2 0x1593 JUMP JUMPDEST POP SWAP5 SWAP4 POP POP POP POP JUMP JUMPDEST PUSH1 0x1 PUSH1 0x1 PUSH1 0xA0 SHL SUB DUP2 AND PUSH1 0x0 SWAP1 DUP2 MSTORE PUSH1 0x11 PUSH1 0x20 SWAP1 DUP2 MSTORE PUSH1 0x40 DUP1 DUP4 KECCAK256 SLOAD PUSH1 0x14 SWAP1 SWAP3 MSTORE DUP3 KECCAK256 DUP1 SLOAD DUP4 SWAP2 SWAP1 DUP3 SWAP1 PUSH2 0x1612 JUMPI PUSH2 0x1612 PUSH2 0x48F8 JUMP JUMPDEST SWAP1 PUSH1 0x0 MSTORE PUSH1 0x20 PUSH1 0x0 KECCAK256 ADD SLOAD SWAP1 POP DUP1 DUP3 GT PUSH2 0x1636 JUMPI PUSH2 0x1631 DUP2 PUSH1 0x1 PUSH2 0x3C71 JUMP JUMPDEST PUSH2 0x1638 JUMP JUMPDEST DUP2 JUMPDEST SWAP5 SWAP4 POP POP POP POP JUMP JUMPDEST PUSH1 0x0 PUSH2 0x164C DUP4 DUP4 PUSH2 0x30B7 JUMP JUMPDEST ISZERO PUSH2 0x1659 JUMPI POP PUSH1 0x0 PUSH2 0x1506 JUMP JUMPDEST PUSH1 0x64 PUSH1 0x2 SLOAD LT PUSH2 0x16B5 JUMPI PUSH1 0x0 DUP3 PUSH2 0x1671 JUMPI PUSH1 0x1 PUSH2 0x1674 JUMP JUMPDEST PUSH1 0x0 JUMPDEST ADDRESS PUSH1 0x0 SWAP1 DUP2 MSTORE PUSH1 0x10 PUSH1 0x20 MSTORE PUSH1 0x40 SWAP1 KECCAK256 PUSH1 0x2 ADD DUP1 SLOAD SWAP2 SWAP3 POP SWAP1 PUSH1 0xFF DUP4 AND SWAP1 DUP2 LT PUSH2 0x169F JUMPI PUSH2 0x169F PUSH2 0x48F8 JUMP JUMPDEST SWAP1 PUSH1 0x0 MSTORE PUSH1 0x20 PUSH1 0x0 KECCAK256 ADD SLOAD NUMBER LT ISZERO SWAP2 POP POP PUSH2 0x1506 JUMP JUMPDEST POP PUSH1 0x0 SWAP3 SWAP2 POP POP JUMP JUMPDEST PUSH1 0x25 SLOAD PUSH1 0x1 PUSH1 0x1 PUSH1 0xA0 SHL SUB AND CALLER EQ PUSH2 0x16D5 JUMPI PUSH1 0x0 DUP1 REVERT JUMPDEST PUSH1 0x25 SLOAD PUSH1 0x4 DUP1 SLOAD PUSH1 0x1 PUSH1 0x1 PUSH1 0xA0 SHL SUB NOT AND PUSH1 0x1 PUSH1 0x1 PUSH1 0xA0 SHL SUB SWAP1 SWAP3 AND SWAP2 SWAP1 SWAP2 OR SWAP1 SSTORE JUMP JUMPDEST PUSH2 0x1703 DUP3 DUP3 PUSH2 0x1640 JUMP JUMPDEST PUSH2 0x179B JUMPI PUSH1 0x40 MLOAD PUSH3 0x461BCD PUSH1 0xE5 SHL DUP2 MSTORE PUSH1 0x20 PUSH1 0x4 DUP3 ADD MSTORE PUSH1 0x42 PUSH1 0x24 DUP3 ADD MSTORE PUSH32 0x5769746864726177616C206973206E6F7420617661696C61626C65206F722053 PUSH1 0x44 DUP3 ADD MSTORE PUSH32 0x74616B657220616C726561647920776974686472617765642074686520737461 PUSH1 0x64 DUP3 ADD MSTORE PUSH32 0x6B65000000000000000000000000000000000000000000000000000000000000 PUSH1 0x84 DUP3 ADD MSTORE PUSH1 0xA4 ADD PUSH2 0x140F JUMP JUMPDEST PUSH1 0x0 PUSH2 0x17A6 DUP4 PUSH2 0x3B7B JUMP JUMPDEST PUSH1 0x1 PUSH1 0x1 PUSH1 0xA0 SHL SUB DUP5 AND PUSH1 0x0 SWAP1 DUP2 MSTORE PUSH1 0x10 PUSH1 0x20 MSTORE PUSH1 0x40 SWAP1 KECCAK256 SLOAD SWAP1 SWAP2 POP DUP2 SWAP1 PUSH1 0xFF AND ISZERO DUP1 ISZERO PUSH2 0x17F2 JUMPI POP PUSH1 0x1 PUSH1 0x1 PUSH1 0xA0 SHL SUB DUP5 AND PUSH1 0x0 SWAP1 DUP2 MSTORE PUSH1 0x10 PUSH1 0x20 MSTORE PUSH1 0x40 SWAP1 KECCAK256 SLOAD PUSH2 0x100 SWAP1 DIV PUSH1 0xFF AND ISZERO JUMPDEST ISZERO PUSH2 0x1899 JUMPI DUP3 ISZERO PUSH2 0x1852 JUMPI PUSH1 0x1 PUSH1 0x1 PUSH1 0xA0 SHL SUB DUP5 AND PUSH1 0x0 SWAP1 DUP2 MSTORE PUSH1 0x10 PUSH1 0x20 MSTORE PUSH1 0x40 SWAP1 KECCAK256 DUP1 SLOAD PUSH1 0xFF NOT AND PUSH1 0x1 OR SWAP1 SSTORE PUSH1 0x15 SLOAD PUSH2 0x184B SWAP1 PUSH2 0x1845 DUP5 PUSH2 0x183F DUP4 PUSH10 0xA968163F0A57B400000 PUSH2 0x3C71 JUMP JUMPDEST SWAP1 PUSH2 0x3C8C JUMP JUMPDEST SWAP1 PUSH2 0x3CC1 JUMP JUMPDEST SWAP2 POP PUSH2 0x18BF JUMP JUMPDEST PUSH1 0x15 SLOAD PUSH2 0x186D SWAP1 PUSH2 0x1845 DUP5 PUSH10 0xA968163F0A57B400000 PUSH2 0x3C8C JUMP JUMPDEST PUSH1 0x1 PUSH1 0x1 PUSH1 0xA0 SHL SUB DUP6 AND PUSH1 0x0 SWAP1 DUP2 MSTORE PUSH1 0x10 PUSH1 0x20 MSTORE PUSH1 0x40 SWAP1 KECCAK256 DUP1 SLOAD PUSH2 0xFF00 NOT AND PUSH2 0x100 OR SWAP1 SSTORE SWAP2 POP PUSH2 0x18BF JUMP JUMPDEST PUSH1 0x1 PUSH1 0x1 PUSH1 0xA0 SHL SUB DUP5 AND PUSH1 0x0 SWAP1 DUP2 MSTORE PUSH1 0x10 PUSH1 0x20 MSTORE PUSH1 0x40 SWAP1 KECCAK256 DUP1 SLOAD PUSH2 0xFFFF NOT AND PUSH2 0x101 OR SWAP1 SSTORE JUMPDEST PUSH1 0x0 PUSH2 0x18C9 PUSH2 0x318E JUMP JUMPDEST SWAP1 POP PUSH2 0x18D5 DUP3 DUP5 PUSH2 0x3C71 JUMP JUMPDEST PUSH1 0x0 DUP3 DUP2 MSTORE PUSH1 0x13 PUSH1 0x20 SWAP1 DUP2 MSTORE PUSH1 0x40 DUP1 DUP4 KECCAK256 PUSH1 0x1 PUSH1 0x1 PUSH1 0xA0 SHL SUB DUP11 AND DUP5 MSTORE DUP3 MSTORE DUP1 DUP4 KECCAK256 SWAP4 SWAP1 SWAP4 SSTORE PUSH1 0x14 DUP2 MSTORE SWAP2 DUP2 KECCAK256 DUP1 SLOAD PUSH1 0x1 DUP2 ADD DUP3 SSTORE SWAP1 DUP3 MSTORE SWAP2 DUP2 KECCAK256 SWAP1 SWAP2 ADD DUP3 SWAP1 SSTORE DUP5 PUSH2 0x1922 JUMPI PUSH1 0x1 PUSH2 0x1925 JUMP JUMPDEST PUSH1 0x0 JUMPDEST ADDRESS PUSH1 0x0 SWAP1 DUP2 MSTORE PUSH1 0x10 PUSH1 0x20 MSTORE PUSH1 0x40 DUP2 KECCAK256 PUSH1 0x2 ADD DUP1 SLOAD SWAP3 SWAP4 POP SWAP1 SWAP2 PUSH1 0xFF DUP5 AND SWAP1 DUP2 LT PUSH2 0x1951 JUMPI PUSH2 0x1951 PUSH2 0x48F8 JUMP JUMPDEST SWAP1 PUSH1 0x0 MSTORE PUSH1 0x20 PUSH1 0x0 KECCAK256 ADD SLOAD SWAP1 POP DUP6 DUP1 ISZERO PUSH2 0x196E JUMPI POP PUSH1 0x16 SLOAD PUSH1 0xFF AND ISZERO JUMPDEST DUP1 PUSH2 0x198A JUMPI POP DUP6 ISZERO DUP1 ISZERO PUSH2 0x198A JUMPI POP PUSH1 0x16 SLOAD PUSH2 0x100 SWAP1 DIV PUSH1 0xFF AND ISZERO JUMPDEST ISZERO PUSH2 0x1AD0 JUMPI PUSH1 0x0 DUP2 DUP2 MSTORE PUSH1 0xF PUSH1 0x20 MSTORE PUSH1 0x40 DUP2 KECCAK256 SLOAD SELFBALANCE SWAP2 SWAP1 PUSH1 0x88 SWAP1 DUP5 SWAP1 PUSH2 0x19B1 SWAP1 PUSH1 0x1 PUSH2 0x3C71 JUMP JUMPDEST PUSH1 0x40 MLOAD PUSH1 0x24 DUP2 ADD SWAP3 SWAP1 SWAP3 MSTORE PUSH1 0x44 DUP3 ADD MSTORE PUSH1 0x64 ADD PUSH1 0x40 DUP1 MLOAD PUSH1 0x1F NOT DUP2 DUP5 SUB ADD DUP2 MSTORE SWAP2 DUP2 MSTORE PUSH1 0x20 DUP3 ADD DUP1 MLOAD PUSH1 0x1 PUSH1 0x1 PUSH1 0xE0 SHL SUB AND PUSH4 0x441A3E7 PUSH1 0xE4 SHL OR SWAP1 MSTORE MLOAD PUSH2 0x19F9 SWAP2 SWAP1 PUSH2 0x490E JUMP JUMPDEST PUSH1 0x0 PUSH1 0x40 MLOAD DUP1 DUP4 SUB DUP2 PUSH1 0x0 DUP7 GAS CALL SWAP2 POP POP RETURNDATASIZE DUP1 PUSH1 0x0 DUP2 EQ PUSH2 0x1A36 JUMPI PUSH1 0x40 MLOAD SWAP2 POP PUSH1 0x1F NOT PUSH1 0x3F RETURNDATASIZE ADD AND DUP3 ADD PUSH1 0x40 MSTORE RETURNDATASIZE DUP3 MSTORE RETURNDATASIZE PUSH1 0x0 PUSH1 0x20 DUP5 ADD RETURNDATACOPY PUSH2 0x1A3B JUMP JUMPDEST PUSH1 0x60 SWAP2 POP JUMPDEST POP POP SWAP1 POP DUP1 PUSH2 0x1A8C JUMPI PUSH1 0x40 MLOAD PUSH3 0x461BCD PUSH1 0xE5 SHL DUP2 MSTORE PUSH1 0x20 PUSH1 0x4 DUP3 ADD MSTORE PUSH1 0xF PUSH1 0x24 DUP3 ADD MSTORE PUSH32 0x7769746864726177206661696C65640000000000000000000000000000000000 PUSH1 0x44 DUP3 ADD MSTORE PUSH1 0x64 ADD PUSH2 0x140F JUMP JUMPDEST DUP8 ISZERO PUSH2 0x1AA4 JUMPI PUSH1 0x16 DUP1 SLOAD PUSH1 0xFF NOT AND PUSH1 0x1 OR SWAP1 SSTORE PUSH2 0x1AB4 JUMP JUMPDEST PUSH1 0x16 DUP1 SLOAD PUSH2 0xFF00 NOT AND PUSH2 0x100 OR SWAP1 SSTORE JUMPDEST PUSH2 0x1ACA PUSH2 0x1AC1 SELFBALANCE DUP5 PUSH2 0x3C71 JUMP JUMPDEST PUSH1 0x17 SLOAD SWAP1 PUSH2 0x3C55 JUMP JUMPDEST PUSH1 0x17 SSTORE POP POP JUMPDEST PUSH1 0x17 SLOAD PUSH2 0x1ADD SWAP1 DUP7 PUSH2 0x3C71 JUMP JUMPDEST PUSH1 0x17 SSTORE PUSH1 0x40 MLOAD PUSH1 0x1 PUSH1 0x1 PUSH1 0xA0 SHL SUB DUP9 AND SWAP1 DUP7 ISZERO PUSH2 0x8FC MUL SWAP1 DUP8 SWAP1 PUSH1 0x0 DUP2 DUP2 DUP2 DUP6 DUP9 DUP9 CALL SWAP4 POP POP POP POP ISZERO DUP1 ISZERO PUSH2 0x1B16 JUMPI RETURNDATASIZE PUSH1 0x0 DUP1 RETURNDATACOPY RETURNDATASIZE PUSH1 0x0 REVERT JUMPDEST POP PUSH1 0x40 DUP1 MLOAD PUSH1 0x1 PUSH1 0x1 PUSH1 0xA0 SHL SUB DUP10 AND DUP2 MSTORE DUP8 ISZERO ISZERO PUSH1 0x20 DUP3 ADD MSTORE SWAP1 DUP2 ADD DUP7 SWAP1 MSTORE PUSH32 0x9530A9230363309D20B643DE1420B49A63C742D26AA552B7578659C0B823F37C SWAP1 PUSH1 0x60 ADD JUMPDEST PUSH1 0x40 MLOAD DUP1 SWAP2 SUB SWAP1 LOG1 POP POP POP POP POP POP POP JUMP JUMPDEST PUSH1 0x0 DUP2 GT PUSH2 0x1B79 JUMPI PUSH1 0x0 DUP1 REVERT JUMPDEST PUSH1 0xA PUSH1 0x2 SLOAD LT PUSH2 0x1D56 JUMPI DUP1 NUMBER LT ISZERO PUSH2 0x1B90 JUMPI PUSH1 0x0 DUP1 REVERT JUMPDEST CALLER PUSH1 0x0 SWAP1 DUP2 MSTORE PUSH1 0x10 PUSH1 0x20 SWAP1 DUP2 MSTORE PUSH1 0x40 DUP1 DUP4 KECCAK256 DUP5 DUP5 MSTORE PUSH1 0x1 ADD SWAP1 SWAP2 MSTORE SWAP1 KECCAK256 SLOAD PUSH2 0x1BB7 JUMPI PUSH1 0x0 DUP1 REVERT JUMPDEST PUSH1 0x0 DUP2 DUP2 MSTORE PUSH1 0xF PUSH1 0x20 MSTORE PUSH1 0x40 SWAP1 KECCAK256 SLOAD PUSH2 0x1BCF JUMPI PUSH1 0x0 DUP1 REVERT JUMPDEST CALLER PUSH1 0x0 SWAP1 DUP2 MSTORE PUSH1 0x10 PUSH1 0x20 SWAP1 DUP2 MSTORE PUSH1 0x40 DUP1 DUP4 KECCAK256 DUP5 DUP5 MSTORE PUSH1 0x1 SWAP1 DUP2 ADD DUP4 MSTORE DUP2 DUP5 KECCAK256 SLOAD PUSH1 0xF SWAP1 SWAP4 MSTORE SWAP1 DUP4 KECCAK256 SLOAD SWAP2 SWAP3 SELFBALANCE SWAP3 SWAP1 SWAP2 PUSH1 0x88 SWAP2 DUP7 SWAP2 PUSH2 0x1C0D SWAP2 SWAP1 PUSH2 0x3C71 JUMP JUMPDEST PUSH1 0x40 MLOAD PUSH1 0x24 DUP2 ADD SWAP3 SWAP1 SWAP3 MSTORE PUSH1 0x44 DUP3 ADD MSTORE PUSH1 0x64 ADD PUSH1 0x40 DUP1 MLOAD PUSH1 0x1F NOT DUP2 DUP5 SUB ADD DUP2 MSTORE SWAP2 DUP2 MSTORE PUSH1 0x20 DUP3 ADD DUP1 MLOAD PUSH1 0x1 PUSH1 0x1 PUSH1 0xE0 SHL SUB AND PUSH4 0x441A3E7 PUSH1 0xE4 SHL OR SWAP1 MSTORE MLOAD PUSH2 0x1C55 SWAP2 SWAP1 PUSH2 0x490E JUMP JUMPDEST PUSH1 0x0 PUSH1 0x40 MLOAD DUP1 DUP4 SUB DUP2 PUSH1 0x0 DUP7 GAS CALL SWAP2 POP POP RETURNDATASIZE DUP1 PUSH1 0x0 DUP2 EQ PUSH2 0x1C92 JUMPI PUSH1 0x40 MLOAD SWAP2 POP PUSH1 0x1F NOT PUSH1 0x3F RETURNDATASIZE ADD AND DUP3 ADD PUSH1 0x40 MSTORE RETURNDATASIZE DUP3 MSTORE RETURNDATASIZE PUSH1 0x0 PUSH1 0x20 DUP5 ADD RETURNDATACOPY PUSH2 0x1C97 JUMP JUMPDEST PUSH1 0x60 SWAP2 POP JUMPDEST POP POP SWAP1 POP DUP1 PUSH2 0x1CA5 JUMPI PUSH1 0x0 DUP1 REVERT JUMPDEST SELFBALANCE DUP4 PUSH2 0x1CB1 DUP3 DUP6 PUSH2 0x3C71 JUMP JUMPDEST LT ISZERO PUSH2 0x1CBC JUMPI PUSH1 0x0 DUP1 REVERT JUMPDEST CALLER PUSH1 0x0 DUP2 DUP2 MSTORE PUSH1 0x10 PUSH1 0x20 SWAP1 DUP2 MSTORE PUSH1 0x40 DUP1 DUP4 KECCAK256 DUP10 DUP5 MSTORE PUSH1 0x1 ADD DUP3 MSTORE DUP1 DUP4 KECCAK256 DUP4 SWAP1 SSTORE PUSH1 0xF SWAP1 SWAP2 MSTORE DUP1 DUP3 KECCAK256 DUP3 SWAP1 SSTORE MLOAD DUP7 ISZERO PUSH2 0x8FC MUL SWAP2 DUP8 SWAP2 SWAP1 DUP2 DUP2 DUP2 DUP6 DUP9 DUP9 CALL SWAP4 POP POP POP POP ISZERO DUP1 ISZERO PUSH2 0x1D0F JUMPI RETURNDATASIZE PUSH1 0x0 DUP1 RETURNDATACOPY RETURNDATASIZE PUSH1 0x0 REVERT JUMPDEST POP PUSH1 0x40 DUP1 MLOAD CALLER DUP2 MSTORE PUSH1 0x20 DUP2 ADD DUP8 SWAP1 MSTORE SWAP1 DUP2 ADD DUP6 SWAP1 MSTORE PUSH32 0xF279E6A1F5E320CCA91135676D9CB6E44CA8A08C0B88342BCDB1144F6511B568 SWAP1 PUSH1 0x60 ADD PUSH1 0x40 MLOAD DUP1 SWAP2 SUB SWAP1 LOG1 POP POP POP POP JUMPDEST POP JUMP JUMPDEST PUSH1 0x0 PUSH2 0x1506 PUSH1 0x64 PUSH2 0x1845 DUP5 PUSH2 0x183F PUSH1 0xB SLOAD SWAP1 JUMP JUMPDEST PUSH1 0xA PUSH1 0x2 SLOAD LT ISZERO PUSH2 0x1D7D JUMPI PUSH1 0x0 DUP1 REVERT JUMPDEST PUSH1 0x0 PUSH2 0x1D87 PUSH2 0x318E JUMP JUMPDEST SWAP1 POP PUSH1 0x8 SLOAD PUSH1 0x0 SUB PUSH2 0x1DA2 JUMPI PUSH2 0x1D9E DUP2 PUSH1 0x3 PUSH2 0x3C71 JUMP JUMPDEST PUSH1 0x8 SSTORE JUMPDEST PUSH1 0x8 SLOAD PUSH1 0x0 SWAP1 PUSH2 0x1DB3 SWAP1 PUSH1 0x1 PUSH2 0x3C55 JUMP JUMPDEST SWAP1 POP DUP1 PUSH2 0x1DC1 DUP4 PUSH1 0x1 PUSH2 0x3C71 JUMP JUMPDEST GT ISZERO PUSH2 0x1EAA JUMPI PUSH1 0x0 PUSH2 0x1DDE PUSH1 0x1 PUSH2 0x1DD8 DUP6 DUP6 PUSH2 0x3C71 JUMP JUMPDEST SWAP1 PUSH2 0x3C71 JUMP JUMPDEST SWAP1 POP PUSH1 0x0 PUSH2 0x1DF1 PUSH1 0x1 PUSH2 0x1DD8 DUP6 DUP6 PUSH2 0x3C55 JUMP JUMPDEST SWAP1 POP PUSH1 0x0 PUSH2 0x1E16 PUSH1 0x17 SLOAD PUSH2 0x1DD8 PUSH1 0xA SLOAD PUSH2 0x1DD8 PUSH1 0x9 SLOAD SELFBALANCE PUSH2 0x3C55 SWAP1 SWAP2 SWAP1 PUSH4 0xFFFFFFFF AND JUMP JUMPDEST SWAP1 POP PUSH1 0x0 PUSH2 0x1E24 DUP3 DUP6 PUSH2 0x3CC1 JUMP JUMPDEST SWAP1 POP DUP2 DUP6 JUMPDEST DUP5 DUP2 LT ISZERO PUSH2 0x1E6F JUMPI PUSH1 0x0 DUP2 DUP2 MSTORE PUSH1 0x1C PUSH1 0x20 MSTORE PUSH1 0x40 SWAP1 KECCAK256 PUSH1 0x1 ADD DUP4 SWAP1 SSTORE PUSH2 0x1E4F DUP3 DUP5 PUSH2 0x3C71 JUMP JUMPDEST SWAP2 POP PUSH2 0x1E5A DUP2 PUSH2 0x3CDB JUMP JUMPDEST POP POP DUP1 DUP1 PUSH2 0x1E67 SWAP1 PUSH2 0x4A40 JUMP JUMPDEST SWAP2 POP POP PUSH2 0x1E29 JUMP JUMPDEST POP PUSH1 0x0 DUP5 DUP2 MSTORE PUSH1 0x1C PUSH1 0x20 MSTORE PUSH1 0x40 SWAP1 KECCAK256 PUSH1 0x1 ADD DUP2 SWAP1 SSTORE PUSH1 0x8 DUP5 SWAP1 SSTORE PUSH2 0x1E92 DUP5 PUSH2 0x3CDB JUMP JUMPDEST POP POP PUSH1 0xA SLOAD PUSH2 0x1EA1 SWAP1 DUP5 PUSH2 0x3C55 JUMP JUMPDEST PUSH1 0xA SSTORE POP POP POP POP POP JUMPDEST POP POP JUMP JUMPDEST PUSH1 0x60 PUSH1 0x1B DUP1 SLOAD DUP1 PUSH1 0x20 MUL PUSH1 0x20 ADD PUSH1 0x40 MLOAD SWAP1 DUP2 ADD PUSH1 0x40 MSTORE DUP1 SWAP3 SWAP2 SWAP1 DUP2 DUP2 MSTORE PUSH1 0x20 ADD DUP3 DUP1 SLOAD DUP1 ISZERO PUSH2 0x1F06 JUMPI PUSH1 0x20 MUL DUP3 ADD SWAP2 SWAP1 PUSH1 0x0 MSTORE PUSH1 0x20 PUSH1 0x0 KECCAK256 SWAP1 JUMPDEST DUP2 SLOAD PUSH1 0x1 PUSH1 0x1 PUSH1 0xA0 SHL SUB AND DUP2 MSTORE PUSH1 0x1 SWAP1 SWAP2 ADD SWAP1 PUSH1 0x20 ADD DUP1 DUP4 GT PUSH2 0x1EE8 JUMPI JUMPDEST POP POP POP POP POP SWAP1 POP SWAP1 JUMP JUMPDEST CALLER PUSH1 0x0 SWAP1 DUP2 MSTORE PUSH1 0x22 PUSH1 0x20 MSTORE PUSH1 0x40 SWAP1 KECCAK256 SLOAD PUSH1 0xFF AND ISZERO PUSH2 0x1F2D JUMPI PUSH1 0x0 DUP1 REVERT JUMPDEST DUP1 PUSH2 0x1F37 CALLER PUSH2 0x3B7B JUMP JUMPDEST LT ISZERO PUSH2 0x1F42 JUMPI PUSH1 0x0 DUP1 REVERT JUMPDEST PUSH1 0x3 SLOAD PUSH1 0x1 PUSH1 0x1 PUSH1 0xA0 SHL SUB AND CALLER EQ DUP1 ISZERO PUSH2 0x1F5E JUMPI POP PUSH1 0x23 SLOAD PUSH1 0xFF AND JUMPDEST ISZERO PUSH2 0x1F7E JUMPI PUSH1 0x24 SLOAD PUSH2 0x1F73 DUP3 PUSH2 0x1DD8 CALLER PUSH2 0x3B7B JUMP JUMPDEST LT ISZERO PUSH2 0x1F7E JUMPI PUSH1 0x0 DUP1 REVERT JUMPDEST PUSH1 0x0 PUSH2 0x1F88 PUSH2 0x318E JUMP JUMPDEST SWAP1 POP PUSH1 0x1 PUSH1 0x2 SLOAD SUB PUSH2 0x2061 JUMPI PUSH2 0x1FA1 DUP3 PUSH2 0x1DD8 CALLER PUSH2 0x3B7B JUMP JUMPDEST PUSH1 0x0 DUP3 DUP2 MSTORE PUSH1 0x13 PUSH1 0x20 SWAP1 DUP2 MSTORE PUSH1 0x40 DUP1 DUP4 KECCAK256 CALLER DUP5 MSTORE SWAP1 SWAP2 MSTORE SWAP1 KECCAK256 SSTORE PUSH1 0x18 SLOAD PUSH2 0x1FC8 SWAP1 DUP4 PUSH2 0x3C71 JUMP JUMPDEST PUSH1 0x18 SSTORE CALLER PUSH1 0x0 SWAP1 DUP2 MSTORE PUSH1 0x14 PUSH1 0x20 SWAP1 DUP2 MSTORE PUSH1 0x40 DUP3 KECCAK256 DUP1 SLOAD PUSH1 0x1 DUP2 ADD DUP3 SSTORE SWAP1 DUP4 MSTORE SWAP2 KECCAK256 ADD DUP2 SWAP1 SSTORE PUSH2 0x1FF5 PUSH2 0x31AF JUMP JUMPDEST PUSH1 0x40 MLOAD CALLER SWAP1 DUP4 ISZERO PUSH2 0x8FC MUL SWAP1 DUP5 SWAP1 PUSH1 0x0 DUP2 DUP2 DUP2 DUP6 DUP9 DUP9 CALL SWAP4 POP POP POP POP ISZERO DUP1 ISZERO PUSH2 0x2022 JUMPI RETURNDATASIZE PUSH1 0x0 DUP1 RETURNDATACOPY RETURNDATASIZE PUSH1 0x0 REVERT JUMPDEST POP PUSH1 0x40 DUP1 MLOAD CALLER DUP2 MSTORE PUSH1 0x20 DUP2 ADD DUP5 SWAP1 MSTORE PUSH32 0xB24546D975E2628748EFC9ACED80665E0FAD66272033E5C0EA25FD3AFAC99795 SWAP2 ADD PUSH1 0x40 MLOAD DUP1 SWAP2 SUB SWAP1 LOG1 PUSH2 0x2493 JUMP JUMPDEST PUSH1 0x64 PUSH1 0x2 SLOAD LT PUSH2 0x20D9 JUMPI PUSH1 0x40 MLOAD PUSH3 0x461BCD PUSH1 0xE5 SHL DUP2 MSTORE PUSH1 0x20 PUSH1 0x4 DUP3 ADD MSTORE PUSH1 0x2F PUSH1 0x24 DUP3 ADD MSTORE PUSH32 0x7374616B65722063616E6E6F7420756E7374616B65206F6E636520746865206E PUSH1 0x44 DUP3 ADD MSTORE PUSH32 0x6F64652069732072657369676E65640000000000000000000000000000000000 PUSH1 0x64 DUP3 ADD MSTORE PUSH1 0x84 ADD PUSH2 0x140F JUMP JUMPDEST PUSH1 0x18 SLOAD PUSH10 0xA968163F0A57B400000 SWAP1 PUSH2 0x20F2 SWAP1 DUP5 PUSH2 0x3C71 JUMP JUMPDEST LT ISZERO PUSH2 0x218C JUMPI PUSH1 0x40 MLOAD PUSH3 0x461BCD PUSH1 0xE5 SHL DUP2 MSTORE PUSH1 0x20 PUSH1 0x4 DUP3 ADD MSTORE PUSH1 0x47 PUSH1 0x24 DUP3 ADD MSTORE PUSH32 0x756E7374616B6520616D6F756E7420746F6F206C617267652C206E6565642074 PUSH1 0x44 DUP3 ADD MSTORE PUSH32 0x6F2072657369676E20746865206E6F6465206265666F726520756E7374616B69 PUSH1 0x64 DUP3 ADD MSTORE PUSH32 0x6E67206D6F726500000000000000000000000000000000000000000000000000 PUSH1 0x84 DUP3 ADD MSTORE PUSH1 0xA4 ADD PUSH2 0x140F JUMP JUMPDEST PUSH2 0x2199 DUP3 PUSH2 0x1DD8 CALLER PUSH2 0x3B7B JUMP JUMPDEST PUSH1 0x0 DUP3 DUP2 MSTORE PUSH1 0x13 PUSH1 0x20 SWAP1 DUP2 MSTORE PUSH1 0x40 DUP1 DUP4 KECCAK256 CALLER DUP5 MSTORE SWAP1 SWAP2 MSTORE SWAP1 KECCAK256 SSTORE PUSH1 0x18 SLOAD PUSH2 0x21C0 SWAP1 DUP4 PUSH2 0x3C71 JUMP JUMPDEST PUSH1 0x18 SSTORE CALLER PUSH1 0x0 SWAP1 DUP2 MSTORE PUSH1 0x14 PUSH1 0x20 SWAP1 DUP2 MSTORE PUSH1 0x40 DUP3 KECCAK256 DUP1 SLOAD PUSH1 0x1 DUP2 ADD DUP3 SSTORE SWAP1 DUP4 MSTORE SWAP2 KECCAK256 ADD DUP2 SWAP1 SSTORE PUSH2 0x21ED PUSH2 0x31AF JUMP JUMPDEST PUSH1 0x6 SLOAD PUSH1 0x0 SWAP1 PUSH2 0x21FD SWAP1 NUMBER PUSH2 0x3C55 JUMP JUMPDEST PUSH1 0x0 DUP2 DUP2 MSTORE PUSH1 0xF PUSH1 0x20 MSTORE PUSH1 0x40 SWAP1 KECCAK256 SLOAD SWAP1 SWAP2 POP ISZERO PUSH2 0x2282 JUMPI PUSH1 0x40 MLOAD PUSH3 0x461BCD PUSH1 0xE5 SHL DUP2 MSTORE PUSH1 0x20 PUSH1 0x4 DUP3 ADD MSTORE PUSH1 0x2A PUSH1 0x24 DUP3 ADD MSTORE PUSH32 0x616E6F7468657220766F74657220616C726561647920756E766F746520696E20 PUSH1 0x44 DUP3 ADD MSTORE PUSH32 0x7468697320626C6F636B00000000000000000000000000000000000000000000 PUSH1 0x64 DUP3 ADD MSTORE PUSH1 0x84 ADD PUSH2 0x140F JUMP JUMPDEST CALLER PUSH1 0x0 SWAP1 DUP2 MSTORE PUSH1 0x10 PUSH1 0x20 SWAP1 DUP2 MSTORE PUSH1 0x40 DUP1 DUP4 KECCAK256 DUP5 DUP5 MSTORE PUSH1 0x1 ADD SWAP1 SWAP2 MSTORE SWAP1 KECCAK256 SLOAD PUSH2 0x22AA SWAP1 DUP5 PUSH2 0x3C55 JUMP JUMPDEST CALLER PUSH1 0x0 SWAP1 DUP2 MSTORE PUSH1 0x10 PUSH1 0x20 SWAP1 DUP2 MSTORE PUSH1 0x40 DUP1 DUP4 KECCAK256 DUP6 DUP5 MSTORE PUSH1 0x1 DUP1 DUP3 ADD DUP5 MSTORE DUP3 DUP6 KECCAK256 SWAP6 SWAP1 SWAP6 SSTORE PUSH1 0x2 ADD DUP1 SLOAD DUP1 DUP7 ADD DUP3 SSTORE SWAP1 DUP5 MSTORE DUP3 DUP5 KECCAK256 ADD DUP6 SWAP1 SSTORE PUSH1 0xC SLOAD DUP6 DUP5 MSTORE PUSH1 0xF SWAP1 SWAP3 MSTORE SWAP1 SWAP2 KECCAK256 DUP2 SWAP1 SSTORE PUSH2 0x22FB SWAP2 PUSH2 0x3C55 JUMP JUMPDEST PUSH1 0xC SSTORE PUSH1 0x1 SLOAD PUSH1 0x40 MLOAD PUSH1 0x1 PUSH1 0x1 PUSH1 0xA0 SHL SUB SWAP1 SWAP2 AND PUSH1 0x24 DUP3 ADD MSTORE PUSH1 0x44 DUP2 ADD DUP5 SWAP1 MSTORE PUSH1 0x0 SWAP1 PUSH1 0x88 SWAP1 PUSH1 0x64 ADD PUSH1 0x40 DUP1 MLOAD PUSH1 0x1F NOT DUP2 DUP5 SUB ADD DUP2 MSTORE SWAP2 DUP2 MSTORE PUSH1 0x20 DUP3 ADD DUP1 MLOAD PUSH1 0x1 PUSH1 0x1 PUSH1 0xE0 SHL SUB AND PUSH4 0x1554DF1 PUSH1 0xE1 SHL OR SWAP1 MSTORE MLOAD PUSH2 0x2359 SWAP2 SWAP1 PUSH2 0x490E JUMP JUMPDEST PUSH1 0x0 PUSH1 0x40 MLOAD DUP1 DUP4 SUB DUP2 PUSH1 0x0 DUP7 GAS CALL SWAP2 POP POP RETURNDATASIZE DUP1 PUSH1 0x0 DUP2 EQ PUSH2 0x2396 JUMPI PUSH1 0x40 MLOAD SWAP2 POP PUSH1 0x1F NOT PUSH1 0x3F RETURNDATASIZE ADD AND DUP3 ADD PUSH1 0x40 MSTORE RETURNDATASIZE DUP3 MSTORE RETURNDATASIZE PUSH1 0x0 PUSH1 0x20 DUP5 ADD RETURNDATACOPY PUSH2 0x239B JUMP JUMPDEST PUSH1 0x60 SWAP2 POP JUMPDEST POP POP SWAP1 POP DUP1 PUSH2 0x23EC JUMPI PUSH1 0x40 MLOAD PUSH3 0x461BCD PUSH1 0xE5 SHL DUP2 MSTORE PUSH1 0x20 PUSH1 0x4 DUP3 ADD MSTORE PUSH1 0xD PUSH1 0x24 DUP3 ADD MSTORE PUSH32 0x756E766F7465206661696C656400000000000000000000000000000000000000 PUSH1 0x44 DUP3 ADD MSTORE PUSH1 0x64 ADD PUSH2 0x140F JUMP JUMPDEST PUSH1 0x40 DUP1 MLOAD CALLER DUP2 MSTORE PUSH1 0x20 DUP2 ADD DUP7 SWAP1 MSTORE PUSH32 0xB24546D975E2628748EFC9ACED80665E0FAD66272033E5C0EA25FD3AFAC99795 SWAP2 ADD PUSH1 0x40 MLOAD DUP1 SWAP2 SUB SWAP1 LOG1 CALLER PUSH1 0x0 SWAP1 DUP2 MSTORE PUSH1 0x1E PUSH1 0x20 MSTORE PUSH1 0x40 SWAP1 KECCAK256 SLOAD PUSH1 0xFF AND ISZERO PUSH2 0x2490 JUMPI PUSH1 0x1F SLOAD PUSH2 0x244A SWAP1 DUP6 PUSH2 0x3C71 JUMP JUMPDEST PUSH1 0x1F SSTORE PUSH1 0x40 MLOAD PUSH32 0x4E1A6BE6A2AE51EDFBDB07D7C3730FBFEB63A4BA7BE5955A52037EF5318BD3A7 SWAP1 PUSH2 0x2487 SWAP1 CALLER SWAP1 PUSH1 0x0 SWAP1 PUSH1 0x1D SWAP1 DUP10 SWAP1 DUP4 SWAP1 PUSH2 0x4964 JUMP JUMPDEST PUSH1 0x40 MLOAD DUP1 SWAP2 SUB SWAP1 LOG1 JUMPDEST POP POP JUMPDEST PUSH2 0x249C CALLER PUSH2 0x3B7B JUMP JUMPDEST PUSH1 0x0 SUB PUSH2 0x1EAA JUMPI PUSH1 0x0 JUMPDEST PUSH1 0x1B SLOAD DUP2 LT ISZERO PUSH2 0x25AB JUMPI CALLER PUSH1 0x1 PUSH1 0x1 PUSH1 0xA0 SHL SUB AND PUSH1 0x1B DUP3 DUP2 SLOAD DUP2 LT PUSH2 0x24CD JUMPI PUSH2 0x24CD PUSH2 0x48F8 JUMP JUMPDEST PUSH1 0x0 SWAP2 DUP3 MSTORE PUSH1 0x20 SWAP1 SWAP2 KECCAK256 ADD SLOAD PUSH1 0x1 PUSH1 0x1 PUSH1 0xA0 SHL SUB AND SUB PUSH2 0x2599 JUMPI PUSH1 0x1B DUP1 SLOAD PUSH2 0x24F7 SWAP1 PUSH1 0x1 SWAP1 PUSH2 0x48E5 JUMP JUMPDEST DUP2 SLOAD DUP2 LT PUSH2 0x2507 JUMPI PUSH2 0x2507 PUSH2 0x48F8 JUMP JUMPDEST PUSH1 0x0 SWAP2 DUP3 MSTORE PUSH1 0x20 SWAP1 SWAP2 KECCAK256 ADD SLOAD PUSH1 0x1B DUP1 SLOAD PUSH1 0x1 PUSH1 0x1 PUSH1 0xA0 SHL SUB SWAP1 SWAP3 AND SWAP2 DUP4 SWAP1 DUP2 LT PUSH2 0x2533 JUMPI PUSH2 0x2533 PUSH2 0x48F8 JUMP JUMPDEST SWAP1 PUSH1 0x0 MSTORE PUSH1 0x20 PUSH1 0x0 KECCAK256 ADD PUSH1 0x0 PUSH2 0x100 EXP DUP2 SLOAD DUP2 PUSH1 0x1 PUSH1 0x1 PUSH1 0xA0 SHL SUB MUL NOT AND SWAP1 DUP4 PUSH1 0x1 PUSH1 0x1 PUSH1 0xA0 SHL SUB AND MUL OR SWAP1 SSTORE POP PUSH1 0x1B DUP1 SLOAD DUP1 PUSH2 0x2572 JUMPI PUSH2 0x2572 PUSH2 0x4A59 JUMP JUMPDEST PUSH1 0x0 DUP3 DUP2 MSTORE PUSH1 0x20 SWAP1 KECCAK256 DUP2 ADD PUSH1 0x0 NOT SWAP1 DUP2 ADD DUP1 SLOAD PUSH1 0x1 PUSH1 0x1 PUSH1 0xA0 SHL SUB NOT AND SWAP1 SSTORE ADD SWAP1 SSTORE POP POP POP JUMP JUMPDEST DUP1 PUSH2 0x25A3 DUP2 PUSH2 0x4A40 JUMP JUMPDEST SWAP2 POP POP PUSH2 0x24A6 JUMP JUMPDEST POP POP POP JUMP JUMPDEST PUSH1 0x1A DUP2 DUP2 SLOAD DUP2 LT PUSH2 0x25C0 JUMPI PUSH1 0x0 DUP1 REVERT JUMPDEST PUSH1 0x0 SWAP2 DUP3 MSTORE PUSH1 0x20 SWAP1 SWAP2 KECCAK256 ADD SLOAD SWAP1 POP DUP2 JUMP JUMPDEST PUSH1 0x1 PUSH1 0x1 PUSH1 0xA0 SHL SUB DUP2 AND PUSH1 0x0 SWAP1 DUP2 MSTORE PUSH1 0x14 PUSH1 0x20 MSTORE PUSH1 0x40 DUP2 KECCAK256 SLOAD DUP2 SUB PUSH2 0x25F8 JUMPI POP PUSH1 0x0 PUSH2 0x1506 JUMP JUMPDEST PUSH1 0x1 PUSH1 0x1 PUSH1 0xA0 SHL SUB DUP3 AND PUSH1 0x0 SWAP1 DUP2 MSTORE PUSH1 0x14 PUSH1 0x20 MSTORE PUSH1 0x40 DUP2 KECCAK256 SLOAD PUSH2 0x261D SWAP1 PUSH1 0x1 SWAP1 PUSH2 0x48E5 JUMP JUMPDEST SWAP1 POP JUMPDEST PUSH1 0x1 PUSH1 0x1 PUSH1 0xA0 SHL SUB DUP4 AND PUSH1 0x0 SWAP1 DUP2 MSTORE PUSH1 0x14 PUSH1 0x20 MSTORE PUSH1 0x40 SWAP1 KECCAK256 DUP1 SLOAD DUP3 SWAP1 DUP2 LT PUSH2 0x264A JUMPI PUSH2 0x264A PUSH2 0x48F8 JUMP JUMPDEST SWAP1 PUSH1 0x0 MSTORE PUSH1 0x20 PUSH1 0x0 KECCAK256 ADD SLOAD DUP5 LT PUSH2 0x26CF JUMPI PUSH1 0x1 PUSH1 0x1 PUSH1 0xA0 SHL SUB DUP4 AND PUSH1 0x0 SWAP1 DUP2 MSTORE PUSH1 0x14 PUSH1 0x20 MSTORE PUSH1 0x40 DUP2 KECCAK256 DUP1 SLOAD PUSH1 0x13 SWAP3 SWAP2 SWAP1 DUP5 SWAP1 DUP2 LT PUSH2 0x268A JUMPI PUSH2 0x268A PUSH2 0x48F8 JUMP JUMPDEST SWAP1 PUSH1 0x0 MSTORE PUSH1 0x20 PUSH1 0x0 KECCAK256 ADD SLOAD DUP2 MSTORE PUSH1 0x20 ADD SWAP1 DUP2 MSTORE PUSH1 0x20 ADD PUSH1 0x0 KECCAK256 PUSH1 0x0 DUP5 PUSH1 0x1 PUSH1 0x1 PUSH1 0xA0 SHL SUB AND PUSH1 0x1 PUSH1 0x1 PUSH1 0xA0 SHL SUB AND DUP2 MSTORE PUSH1 0x20 ADD SWAP1 DUP2 MSTORE PUSH1 0x20 ADD PUSH1 0x0 KECCAK256 SLOAD SWAP2 POP POP PUSH2 0x1506 JUMP JUMPDEST DUP1 ISZERO PUSH2 0x26E7 JUMPI DUP1 PUSH2 0x26DF DUP2 PUSH2 0x4A6F JUMP JUMPDEST SWAP2 POP POP PUSH2 0x2620 JUMP JUMPDEST POP PUSH1 0x0 SWAP4 SWAP3 POP POP POP JUMP JUMPDEST PUSH1 0x1A SLOAD PUSH1 0x0 SWAP1 DUP2 SWAP1 PUSH2 0x2705 SWAP1 PUSH1 0x1 SWAP1 PUSH2 0x48E5 JUMP JUMPDEST SWAP1 POP JUMPDEST PUSH1 0x1A DUP2 DUP2 SLOAD DUP2 LT PUSH2 0x271B JUMPI PUSH2 0x271B PUSH2 0x48F8 JUMP JUMPDEST SWAP1 PUSH1 0x0 MSTORE PUSH1 0x20 PUSH1 0x0 KECCAK256 ADD SLOAD DUP4 LT PUSH2 0x2765 JUMPI PUSH1 0x19 PUSH1 0x0 PUSH1 0x1A DUP4 DUP2 SLOAD DUP2 LT PUSH2 0x2743 JUMPI PUSH2 0x2743 PUSH2 0x48F8 JUMP JUMPDEST SWAP1 PUSH1 0x0 MSTORE PUSH1 0x20 PUSH1 0x0 KECCAK256 ADD SLOAD DUP2 MSTORE PUSH1 0x20 ADD SWAP1 DUP2 MSTORE PUSH1 0x20 ADD PUSH1 0x0 KECCAK256 SLOAD SWAP2 POP POP SWAP2 SWAP1 POP JUMP JUMPDEST DUP1 ISZERO PUSH2 0x16B5 JUMPI DUP1 PUSH2 0x2775 DUP2 PUSH2 0x4A6F JUMP JUMPDEST SWAP2 POP POP PUSH2 0x2708 JUMP JUMPDEST CALLER PUSH2 0x2790 PUSH1 0x4 SLOAD PUSH1 0x1 PUSH1 0x1 PUSH1 0xA0 SHL SUB AND SWAP1 JUMP JUMPDEST PUSH1 0x1 PUSH1 0x1 PUSH1 0xA0 SHL SUB AND EQ PUSH2 0x27A3 JUMPI PUSH1 0x0 DUP1 REVERT JUMPDEST PUSH2 0x27AB PUSH2 0x3EBD JUMP JUMPDEST JUMP JUMPDEST PUSH1 0x1 PUSH1 0x1 PUSH1 0xA0 SHL SUB DUP2 AND PUSH1 0x0 SWAP1 DUP2 MSTORE PUSH1 0x14 PUSH1 0x20 MSTORE PUSH1 0x40 SWAP1 KECCAK256 SLOAD PUSH2 0x27CF JUMPI PUSH1 0x0 DUP1 REVERT JUMPDEST PUSH2 0x27D7 PUSH2 0x1D6D JUMP JUMPDEST PUSH1 0x0 PUSH2 0x27E2 DUP3 PUSH2 0x15DC JUMP JUMPDEST SWAP1 POP PUSH1 0x0 PUSH2 0x27EE PUSH2 0x318E JUMP JUMPDEST SWAP1 POP PUSH1 0x0 DUP1 PUSH2 0x27FE DUP5 PUSH1 0x1 PUSH2 0x3C55 JUMP JUMPDEST SWAP1 POP JUMPDEST PUSH2 0x280C DUP4 PUSH1 0x2 PUSH2 0x3C71 JUMP JUMPDEST DUP2 GT PUSH2 0x2841 JUMPI PUSH1 0x0 PUSH2 0x281E DUP7 DUP4 PUSH2 0x2F95 JUMP JUMPDEST POP SWAP1 POP PUSH2 0x282B DUP4 DUP3 PUSH2 0x3C55 JUMP JUMPDEST SWAP3 POP POP DUP1 DUP1 PUSH2 0x2839 SWAP1 PUSH2 0x4A40 JUMP JUMPDEST SWAP2 POP POP PUSH2 0x2801 JUMP JUMPDEST POP DUP1 ISZERO PUSH2 0x28D2 JUMPI PUSH1 0x40 MLOAD PUSH1 0x1 PUSH1 0x1 PUSH1 0xA0 SHL SUB DUP6 AND SWAP1 DUP3 ISZERO PUSH2 0x8FC MUL SWAP1 DUP4 SWAP1 PUSH1 0x0 DUP2 DUP2 DUP2 DUP6 DUP9 DUP9 CALL SWAP4 POP POP POP POP ISZERO DUP1 ISZERO PUSH2 0x287E JUMPI RETURNDATASIZE PUSH1 0x0 DUP1 RETURNDATACOPY RETURNDATASIZE PUSH1 0x0 REVERT JUMPDEST POP PUSH1 0x40 DUP1 MLOAD PUSH1 0x1 PUSH1 0x1 PUSH1 0xA0 SHL SUB DUP7 AND DUP2 MSTORE PUSH1 0x20 DUP2 ADD DUP4 SWAP1 MSTORE PUSH32 0xBC84835063C693975166F00CFFB19F01A94C2DB55B1BF259238C5DA3594E5066 SWAP2 ADD PUSH1 0x40 MLOAD DUP1 SWAP2 SUB SWAP1 LOG1 PUSH1 0x9 SLOAD PUSH2 0x28CE SWAP1 DUP3 PUSH2 0x3C55 JUMP JUMPDEST PUSH1 0x9 SSTORE JUMPDEST PUSH2 0x28DD DUP3 PUSH1 0x2 PUSH2 0x3C71 JUMP JUMPDEST PUSH1 0x1 PUSH1 0x1 PUSH1 0xA0 SHL SUB SWAP1 SWAP5 AND PUSH1 0x0 SWAP1 DUP2 MSTORE PUSH1 0x11 PUSH1 0x20 MSTORE PUSH1 0x40 SWAP1 KECCAK256 SWAP4 SWAP1 SWAP4 SSTORE POP POP POP JUMP JUMPDEST PUSH1 0xA PUSH1 0x2 SLOAD LT ISZERO PUSH2 0x290F JUMPI PUSH1 0x0 DUP1 REVERT JUMPDEST PUSH1 0x1 PUSH1 0x1 PUSH1 0xA0 SHL SUB DUP2 AND PUSH1 0x0 SWAP1 DUP2 MSTORE PUSH1 0x22 PUSH1 0x20 MSTORE PUSH1 0x40 SWAP1 KECCAK256 SLOAD PUSH1 0xFF AND PUSH2 0x2934 JUMPI PUSH1 0x0 DUP1 REVERT JUMPDEST PUSH1 0x1 PUSH1 0x1 PUSH1 0xA0 SHL SUB DUP2 AND PUSH1 0x0 SWAP1 DUP2 MSTORE PUSH1 0x22 PUSH1 0x20 MSTORE PUSH1 0x40 SWAP1 KECCAK256 PUSH1 0x2 ADD SLOAD PUSH2 0x2959 JUMPI PUSH1 0x0 DUP1 REVERT JUMPDEST PUSH9 0x56BC75E2D63100000 CALLVALUE LT ISZERO PUSH2 0x296F JUMPI PUSH1 0x0 DUP1 REVERT JUMPDEST PUSH8 0xDE0B6B3A7640000 PUSH1 0x0 PUSH2 0x2985 DUP3 PUSH1 0x2 PUSH2 0x3CC1 JUMP JUMPDEST SWAP1 POP PUSH1 0x0 PUSH2 0x2993 CALLVALUE DUP5 PUSH2 0x3C71 JUMP JUMPDEST PUSH1 0x1 PUSH1 0x1 PUSH1 0xA0 SHL SUB DUP6 AND PUSH1 0x0 SWAP1 DUP2 MSTORE PUSH1 0x22 PUSH1 0x20 MSTORE PUSH1 0x40 DUP2 KECCAK256 PUSH1 0x1 DUP2 ADD SLOAD PUSH1 0x2 SWAP1 SWAP2 ADD SLOAD SWAP3 SWAP4 POP SWAP1 SWAP2 PUSH2 0x29D2 SWAP2 PUSH8 0xDE0B6B3A7640000 SWAP2 PUSH2 0x1845 SWAP2 PUSH2 0x3C8C JUMP JUMPDEST SWAP1 POP PUSH1 0x0 DUP2 DUP4 LT PUSH2 0x2A9E JUMPI POP PUSH1 0x1 PUSH1 0x1 PUSH1 0xA0 SHL SUB DUP6 AND PUSH1 0x0 SWAP1 DUP2 MSTORE PUSH1 0x22 PUSH1 0x20 MSTORE PUSH1 0x40 SWAP1 KECCAK256 PUSH1 0x2 ADD SLOAD CALLER PUSH2 0x8FC PUSH2 0x2A08 DUP6 DUP6 PUSH2 0x3C71 JUMP JUMPDEST PUSH1 0x40 MLOAD DUP2 ISZERO SWAP1 SWAP3 MUL SWAP2 PUSH1 0x0 DUP2 DUP2 DUP2 DUP6 DUP9 DUP9 CALL SWAP4 POP POP POP POP ISZERO DUP1 ISZERO PUSH2 0x2A30 JUMPI RETURNDATASIZE PUSH1 0x0 DUP1 RETURNDATACOPY RETURNDATASIZE PUSH1 0x0 REVERT JUMPDEST POP PUSH1 0x1 PUSH1 0x1 PUSH1 0xA0 SHL SUB DUP7 AND PUSH2 0x8FC PUSH2 0x2A48 DUP5 DUP8 PUSH2 0x3C71 JUMP JUMPDEST PUSH1 0x40 MLOAD DUP2 ISZERO SWAP1 SWAP3 MUL SWAP2 PUSH1 0x0 DUP2 DUP2 DUP2 DUP6 DUP9 DUP9 CALL SWAP4 POP POP POP POP ISZERO DUP1 ISZERO PUSH2 0x2A70 JUMPI RETURNDATASIZE PUSH1 0x0 DUP1 RETURNDATACOPY RETURNDATASIZE PUSH1 0x0 REVERT JUMPDEST POP PUSH1 0x1 PUSH1 0x1 PUSH1 0xA0 SHL SUB DUP7 AND PUSH1 0x0 SWAP1 DUP2 MSTORE PUSH1 0x22 PUSH1 0x20 MSTORE PUSH1 0x40 DUP2 KECCAK256 PUSH1 0x2 DUP2 ADD SWAP2 SWAP1 SWAP2 SSTORE DUP1 SLOAD PUSH1 0xFF NOT AND SWAP1 SSTORE PUSH2 0x2B52 JUMP JUMPDEST PUSH1 0x1 PUSH1 0x1 PUSH1 0xA0 SHL SUB DUP7 AND PUSH1 0x0 SWAP1 DUP2 MSTORE PUSH1 0x22 PUSH1 0x20 MSTORE PUSH1 0x40 SWAP1 KECCAK256 PUSH1 0x1 ADD SLOAD PUSH2 0x2AD0 SWAP1 PUSH2 0x1845 DUP6 PUSH8 0xDE0B6B3A7640000 PUSH2 0x4A86 JUMP JUMPDEST PUSH1 0x1 PUSH1 0x1 PUSH1 0xA0 SHL SUB DUP8 AND PUSH1 0x0 SWAP1 DUP2 MSTORE PUSH1 0x22 PUSH1 0x20 MSTORE PUSH1 0x40 SWAP1 KECCAK256 PUSH1 0x2 ADD SLOAD SWAP1 SWAP2 POP PUSH2 0x2AF9 SWAP1 DUP3 PUSH2 0x3C71 JUMP JUMPDEST PUSH1 0x1 PUSH1 0x1 PUSH1 0xA0 SHL SUB DUP8 AND PUSH1 0x0 DUP2 DUP2 MSTORE PUSH1 0x22 PUSH1 0x20 MSTORE PUSH1 0x40 SWAP1 KECCAK256 PUSH1 0x2 ADD SWAP2 SWAP1 SWAP2 SSTORE DUP4 SWAP3 POP PUSH2 0x8FC PUSH2 0x2B28 DUP5 DUP8 PUSH2 0x3C71 JUMP JUMPDEST PUSH1 0x40 MLOAD DUP2 ISZERO SWAP1 SWAP3 MUL SWAP2 PUSH1 0x0 DUP2 DUP2 DUP2 DUP6 DUP9 DUP9 CALL SWAP4 POP POP POP POP ISZERO DUP1 ISZERO PUSH2 0x2B50 JUMPI RETURNDATASIZE PUSH1 0x0 DUP1 RETURNDATACOPY RETURNDATASIZE PUSH1 0x0 REVERT JUMPDEST POP JUMPDEST PUSH1 0x1 PUSH1 0x1 PUSH1 0xA0 SHL SUB DUP7 AND PUSH1 0x0 DUP2 DUP2 MSTORE PUSH1 0x22 PUSH1 0x20 SWAP1 DUP2 MSTORE PUSH1 0x40 SWAP2 DUP3 SWAP1 KECCAK256 PUSH1 0x1 ADD SLOAD DUP3 MLOAD CALLER DUP2 MSTORE SWAP2 DUP3 ADD DUP7 SWAP1 MSTORE SWAP2 DUP2 ADD SWAP3 SWAP1 SWAP3 MSTORE PUSH1 0x60 DUP3 ADD DUP4 SWAP1 MSTORE PUSH1 0x80 DUP3 ADD MSTORE PUSH32 0xF8E95D915183C90F9FABAC4065E57B8B1D98B33D26A71846F3C290160208F559 SWAP1 PUSH1 0xA0 ADD PUSH1 0x40 MLOAD DUP1 SWAP2 SUB SWAP1 LOG1 PUSH1 0x40 MLOAD CALLER SWAP1 DUP6 ISZERO PUSH2 0x8FC MUL SWAP1 DUP7 SWAP1 PUSH1 0x0 DUP2 DUP2 DUP2 DUP6 DUP9 DUP9 CALL SWAP4 POP POP POP POP ISZERO DUP1 ISZERO PUSH2 0x2BEA JUMPI RETURNDATASIZE PUSH1 0x0 DUP1 RETURNDATACOPY RETURNDATASIZE PUSH1 0x0 REVERT JUMPDEST POP PUSH2 0x2BF6 DUP7 CALLER DUP4 PUSH2 0x4220 JUMP JUMPDEST PUSH1 0x0 PUSH2 0x2C0A PUSH1 0x4 SLOAD PUSH1 0x1 PUSH1 0x1 PUSH1 0xA0 SHL SUB AND SWAP1 JUMP JUMPDEST PUSH1 0x40 MLOAD SWAP1 SWAP2 POP PUSH1 0x1 PUSH1 0x1 PUSH1 0xA0 SHL SUB DUP3 AND SWAP1 DUP8 ISZERO PUSH2 0x8FC MUL SWAP1 DUP9 SWAP1 PUSH1 0x0 DUP2 DUP2 DUP2 DUP6 DUP9 DUP9 CALL SWAP4 POP POP POP POP ISZERO DUP1 ISZERO PUSH2 0x2C43 JUMPI RETURNDATASIZE PUSH1 0x0 DUP1 RETURNDATACOPY RETURNDATASIZE PUSH1 0x0 REVERT JUMPDEST POP PUSH1 0x40 DUP1 MLOAD CALLER DUP2 MSTORE PUSH1 0x1 PUSH1 0x1 PUSH1 0xA0 SHL SUB DUP1 DUP11 AND PUSH1 0x20 DUP4 ADD MSTORE DUP4 AND SWAP2 DUP2 ADD SWAP2 SWAP1 SWAP2 MSTORE PUSH1 0x60 DUP2 ADD DUP8 SWAP1 MSTORE PUSH32 0xBA90E8CF8805BBA5F2EAAD13CA5B91B6AE4EA1E0BC4CA3E38E41ABBB21E0A151 SWAP1 PUSH1 0x80 ADD PUSH2 0x1B5B JUMP JUMPDEST PUSH1 0x1 PUSH1 0x1 PUSH1 0xA0 SHL SUB DUP2 AND PUSH1 0x0 SWAP1 DUP2 MSTORE PUSH1 0x14 PUSH1 0x20 MSTORE PUSH1 0x40 SWAP1 KECCAK256 SLOAD PUSH2 0x2CB7 JUMPI PUSH1 0x0 DUP1 REVERT JUMPDEST PUSH2 0x2CBF PUSH2 0x1D6D JUMP JUMPDEST PUSH1 0x0 PUSH2 0x2CCA DUP3 PUSH2 0x15DC JUMP JUMPDEST SWAP1 POP PUSH1 0x0 PUSH2 0x2CD6 PUSH2 0x318E JUMP JUMPDEST SWAP1 POP PUSH1 0x0 PUSH2 0x2CE5 DUP3 PUSH1 0x2 PUSH2 0x3C71 JUMP JUMPDEST PUSH2 0x2CF0 DUP5 PUSH1 0x64 PUSH2 0x3C55 JUMP JUMPDEST LT ISZERO PUSH2 0x2D08 JUMPI PUSH2 0x2D01 DUP4 PUSH1 0x64 PUSH2 0x3C55 JUMP JUMPDEST SWAP1 POP PUSH2 0x2D16 JUMP JUMPDEST PUSH2 0x2D13 DUP3 PUSH1 0x2 PUSH2 0x3C71 JUMP JUMPDEST SWAP1 POP JUMPDEST PUSH1 0x0 DUP1 PUSH2 0x2D24 DUP6 PUSH1 0x1 PUSH2 0x3C55 JUMP JUMPDEST SWAP1 POP JUMPDEST DUP3 DUP2 GT PUSH2 0x2D5D JUMPI PUSH1 0x0 PUSH2 0x2D3A DUP8 DUP4 PUSH2 0x2F95 JUMP JUMPDEST POP SWAP1 POP PUSH2 0x2D47 DUP4 DUP3 PUSH2 0x3C55 JUMP JUMPDEST SWAP3 POP POP DUP1 DUP1 PUSH2 0x2D55 SWAP1 PUSH2 0x4A40 JUMP JUMPDEST SWAP2 POP POP PUSH2 0x2D27 JUMP JUMPDEST POP DUP1 ISZERO PUSH2 0x2DEE JUMPI PUSH1 0x40 MLOAD PUSH1 0x1 PUSH1 0x1 PUSH1 0xA0 SHL SUB DUP7 AND SWAP1 DUP3 ISZERO PUSH2 0x8FC MUL SWAP1 DUP4 SWAP1 PUSH1 0x0 DUP2 DUP2 DUP2 DUP6 DUP9 DUP9 CALL SWAP4 POP POP POP POP ISZERO DUP1 ISZERO PUSH2 0x2D9A JUMPI RETURNDATASIZE PUSH1 0x0 DUP1 RETURNDATACOPY RETURNDATASIZE PUSH1 0x0 REVERT JUMPDEST POP PUSH1 0x40 DUP1 MLOAD PUSH1 0x1 PUSH1 0x1 PUSH1 0xA0 SHL SUB DUP8 AND DUP2 MSTORE PUSH1 0x20 DUP2 ADD DUP4 SWAP1 MSTORE PUSH32 0xBC84835063C693975166F00CFFB19F01A94C2DB55B1BF259238C5DA3594E5066 SWAP2 ADD PUSH1 0x40 MLOAD DUP1 SWAP2 SUB SWAP1 LOG1 PUSH1 0x9 SLOAD PUSH2 0x2DEA SWAP1 DUP3 PUSH2 0x3C55 JUMP JUMPDEST PUSH1 0x9 SSTORE JUMPDEST POP PUSH1 0x1 PUSH1 0x1 PUSH1 0xA0 SHL SUB SWAP1 SWAP4 AND PUSH1 0x0 SWAP1 DUP2 MSTORE PUSH1 0x11 PUSH1 0x20 MSTORE PUSH1 0x40 SWAP1 KECCAK256 SWAP3 SWAP1 SWAP3 SSTORE POP POP JUMP JUMPDEST PUSH1 0x0 PUSH2 0x2E1B CALLER PUSH2 0x3B7B JUMP JUMPDEST GT PUSH2 0x2E25 JUMPI PUSH1 0x0 DUP1 REVERT JUMPDEST PUSH1 0xA PUSH1 0x2 SLOAD EQ PUSH2 0x2E34 JUMPI PUSH1 0x0 DUP1 REVERT JUMPDEST CALLER PUSH1 0x0 SWAP1 DUP2 MSTORE PUSH1 0x1E PUSH1 0x20 MSTORE PUSH1 0x40 SWAP1 KECCAK256 SLOAD PUSH1 0xFF AND ISZERO ISZERO DUP2 ISZERO ISZERO EQ PUSH2 0x1D56 JUMPI CALLER PUSH1 0x0 SWAP1 DUP2 MSTORE PUSH1 0x1E PUSH1 0x20 MSTORE PUSH1 0x40 SWAP1 KECCAK256 DUP1 SLOAD PUSH1 0xFF NOT AND DUP3 ISZERO DUP1 ISZERO SWAP2 SWAP1 SWAP2 OR SWAP1 SWAP2 SSTORE PUSH2 0x2E92 JUMPI PUSH2 0x2E8A PUSH2 0x2E81 CALLER PUSH2 0x3B7B JUMP JUMPDEST PUSH1 0x1F SLOAD SWAP1 PUSH2 0x3C55 JUMP JUMPDEST PUSH1 0x1F SSTORE PUSH2 0x2EAB JUMP JUMPDEST PUSH2 0x2EA7 PUSH2 0x2E9E CALLER PUSH2 0x3B7B JUMP JUMPDEST PUSH1 0x1F SLOAD SWAP1 PUSH2 0x3C71 JUMP JUMPDEST PUSH1 0x1F SSTORE JUMPDEST PUSH32 0x4E1A6BE6A2AE51EDFBDB07D7C3730FBFEB63A4BA7BE5955A52037EF5318BD3A7 CALLER PUSH1 0x0 PUSH1 0x1D PUSH2 0x2EDA DUP4 PUSH2 0x3B7B JUMP JUMPDEST DUP6 PUSH1 0x40 MLOAD PUSH2 0x2EEC SWAP6 SWAP5 SWAP4 SWAP3 SWAP2 SWAP1 PUSH2 0x4964 JUMP JUMPDEST PUSH1 0x40 MLOAD DUP1 SWAP2 SUB SWAP1 LOG1 POP JUMP JUMPDEST PUSH1 0x1D DUP1 SLOAD DUP2 SWAP1 PUSH2 0x2F06 SWAP1 PUSH2 0x492A JUMP JUMPDEST DUP1 PUSH1 0x1F ADD PUSH1 0x20 DUP1 SWAP2 DIV MUL PUSH1 0x20 ADD PUSH1 0x40 MLOAD SWAP1 DUP2 ADD PUSH1 0x40 MSTORE DUP1 SWAP3 SWAP2 SWAP1 DUP2 DUP2 MSTORE PUSH1 0x20 ADD DUP3 DUP1 SLOAD PUSH2 0x2F32 SWAP1 PUSH2 0x492A JUMP JUMPDEST DUP1 ISZERO PUSH2 0x2F7F JUMPI DUP1 PUSH1 0x1F LT PUSH2 0x2F54 JUMPI PUSH2 0x100 DUP1 DUP4 SLOAD DIV MUL DUP4 MSTORE SWAP2 PUSH1 0x20 ADD SWAP2 PUSH2 0x2F7F JUMP JUMPDEST DUP3 ADD SWAP2 SWAP1 PUSH1 0x0 MSTORE PUSH1 0x20 PUSH1 0x0 KECCAK256 SWAP1 JUMPDEST DUP2 SLOAD DUP2 MSTORE SWAP1 PUSH1 0x1 ADD SWAP1 PUSH1 0x20 ADD DUP1 DUP4 GT PUSH2 0x2F62 JUMPI DUP3 SWAP1 SUB PUSH1 0x1F AND DUP3 ADD SWAP2 JUMPDEST POP POP POP POP POP SWAP1 DUP1 PUSH1 0x2 ADD SLOAD SWAP1 DUP1 PUSH1 0x3 ADD SLOAD SWAP1 POP DUP4 JUMP JUMPDEST PUSH1 0x0 DUP1 PUSH1 0x0 PUSH2 0x2FA4 DUP5 DUP7 PUSH2 0x25D1 JUMP JUMPDEST SWAP1 POP PUSH1 0xA PUSH1 0x2 SLOAD LT ISZERO PUSH2 0x2FBC JUMPI PUSH1 0x0 SWAP3 POP SWAP1 POP PUSH2 0x30B0 JUMP JUMPDEST PUSH1 0x0 PUSH2 0x2FC7 DUP6 PUSH2 0x26F1 JUMP JUMPDEST PUSH1 0x0 DUP7 DUP2 MSTORE PUSH1 0x1C PUSH1 0x20 MSTORE PUSH1 0x40 DUP2 KECCAK256 PUSH1 0x2 ADD SLOAD SWAP2 SWAP3 POP DUP2 SWAP1 SUB PUSH2 0x309A JUMPI PUSH1 0x0 PUSH2 0x2FED PUSH2 0x318E JUMP JUMPDEST PUSH1 0x8 SLOAD SWAP1 SWAP2 POP PUSH1 0x0 DUP2 SWAP1 SUB PUSH2 0x300A JUMPI PUSH2 0x3007 DUP3 PUSH1 0x3 PUSH2 0x3C71 JUMP JUMPDEST SWAP1 POP JUMPDEST PUSH1 0x0 PUSH2 0x3017 DUP3 PUSH1 0x1 PUSH2 0x3C55 JUMP JUMPDEST SWAP1 POP DUP1 PUSH2 0x3025 DUP5 PUSH1 0x1 PUSH2 0x3C71 JUMP JUMPDEST GT ISZERO PUSH2 0x3096 JUMPI PUSH1 0x0 PUSH2 0x303C PUSH1 0x1 PUSH2 0x1DD8 DUP7 DUP6 PUSH2 0x3C71 JUMP JUMPDEST SWAP1 POP PUSH1 0x0 PUSH2 0x3061 PUSH1 0x17 SLOAD PUSH2 0x1DD8 PUSH1 0xA SLOAD PUSH2 0x1DD8 PUSH1 0x9 SLOAD SELFBALANCE PUSH2 0x3C55 SWAP1 SWAP2 SWAP1 PUSH4 0xFFFFFFFF AND JUMP JUMPDEST SWAP1 POP PUSH1 0x0 PUSH2 0x306F DUP3 DUP5 PUSH2 0x3CC1 JUMP JUMPDEST SWAP1 POP PUSH2 0x3090 PUSH2 0x307D DUP3 PUSH2 0x3927 JUMP JUMPDEST PUSH2 0x1DD8 PUSH2 0x3089 DUP5 PUSH2 0x1D59 JUMP JUMPDEST DUP5 SWAP1 PUSH2 0x3C71 JUMP JUMPDEST SWAP7 POP POP POP POP JUMPDEST POP POP POP JUMPDEST PUSH2 0x30A8 DUP3 PUSH2 0x1845 DUP6 DUP5 PUSH2 0x3C8C JUMP JUMPDEST SWAP5 POP SWAP2 SWAP3 POP POP POP JUMPDEST SWAP3 POP SWAP3 SWAP1 POP JUMP JUMPDEST PUSH1 0x0 DUP2 DUP1 ISZERO PUSH2 0x30DE JUMPI POP PUSH1 0x1 PUSH1 0x1 PUSH1 0xA0 SHL SUB DUP4 AND PUSH1 0x0 SWAP1 DUP2 MSTORE PUSH1 0x10 PUSH1 0x20 MSTORE PUSH1 0x40 SWAP1 KECCAK256 SLOAD PUSH1 0xFF AND JUMPDEST DUP1 PUSH2 0x310F JUMPI POP DUP2 ISZERO DUP1 ISZERO PUSH2 0x310F JUMPI POP PUSH1 0x1 PUSH1 0x1 PUSH1 0xA0 SHL SUB DUP4 AND PUSH1 0x0 SWAP1 DUP2 MSTORE PUSH1 0x10 PUSH1 0x20 MSTORE PUSH1 0x40 SWAP1 KECCAK256 SLOAD PUSH2 0x100 SWAP1 DIV PUSH1 0xFF AND JUMPDEST SWAP4 SWAP3 POP POP POP JUMP JUMPDEST PUSH1 0x0 PUSH2 0x3121 CALLER PUSH2 0x3B7B JUMP JUMPDEST GT PUSH2 0x312B JUMPI PUSH1 0x0 DUP1 REVERT JUMPDEST PUSH1 0xA PUSH1 0x2 SLOAD EQ PUSH2 0x313A JUMPI PUSH1 0x0 DUP1 REVERT JUMPDEST PUSH2 0x3155 PUSH1 0x64 PUSH2 0x1845 PUSH1 0x42 PUSH1 0x18 SLOAD PUSH2 0x3C8C SWAP1 SWAP2 SWAP1 PUSH4 0xFFFFFFFF AND JUMP JUMPDEST PUSH1 0x1F SLOAD LT ISZERO PUSH2 0x27A3 JUMPI PUSH1 0x0 DUP1 REVERT JUMPDEST CALLER PUSH2 0x3176 PUSH1 0x4 SLOAD PUSH1 0x1 PUSH1 0x1 PUSH1 0xA0 SHL SUB AND SWAP1 JUMP JUMPDEST PUSH1 0x1 PUSH1 0x1 PUSH1 0xA0 SHL SUB AND EQ PUSH2 0x3189 JUMPI PUSH1 0x0 DUP1 REVERT JUMPDEST PUSH1 0x5 SSTORE JUMP JUMPDEST PUSH1 0x0 PUSH2 0x31AA PUSH2 0x384 PUSH2 0x1845 PUSH2 0x31A3 NUMBER DUP4 PUSH2 0x467B JUMP JUMPDEST NUMBER SWAP1 PUSH2 0x3C71 JUMP JUMPDEST SWAP1 POP SWAP1 JUMP JUMPDEST PUSH1 0x0 PUSH2 0x31B9 PUSH2 0x318E JUMP JUMPDEST PUSH1 0x18 SLOAD PUSH1 0x0 DUP3 DUP2 MSTORE PUSH1 0x19 PUSH1 0x20 MSTORE PUSH1 0x40 SWAP1 KECCAK256 SSTORE PUSH1 0x1A SLOAD SWAP1 SWAP2 POP ISZERO PUSH2 0x3245 JUMPI PUSH1 0x1A DUP1 SLOAD DUP3 SWAP2 SWAP1 PUSH2 0x31E9 SWAP1 PUSH1 0x1 SWAP1 PUSH2 0x48E5 JUMP JUMPDEST DUP2 SLOAD DUP2 LT PUSH2 0x31F9 JUMPI PUSH2 0x31F9 PUSH2 0x48F8 JUMP JUMPDEST SWAP1 PUSH1 0x0 MSTORE PUSH1 0x20 PUSH1 0x0 KECCAK256 ADD SLOAD LT ISZERO PUSH2 0x3240 JUMPI PUSH1 0x1A DUP1 SLOAD PUSH1 0x1 DUP2 ADD DUP3 SSTORE PUSH1 0x0 SWAP2 SWAP1 SWAP2 MSTORE PUSH32 0x57C384A7D1C54F3A1B2E5E67B2617B8224FDFD1EA7234EEA573A6FF665FF63E ADD DUP2 SWAP1 SSTORE JUMPDEST PUSH2 0x327B JUMP JUMPDEST PUSH1 0x1A DUP1 SLOAD PUSH1 0x1 DUP2 ADD DUP3 SSTORE PUSH1 0x0 SWAP2 SWAP1 SWAP2 MSTORE PUSH32 0x57C384A7D1C54F3A1B2E5E67B2617B8224FDFD1EA7234EEA573A6FF665FF63E ADD DUP2 SWAP1 SSTORE JUMPDEST PUSH1 0x1B SLOAD PUSH1 0x18 SLOAD PUSH1 0x40 DUP1 MLOAD DUP5 DUP2 MSTORE PUSH1 0x20 DUP2 ADD SWAP4 SWAP1 SWAP4 MSTORE DUP3 ADD MSTORE PUSH32 0x80D22AA34216D742B2C5CB472135446B024327047C779A3A8CD28F17C0983C7B SWAP1 PUSH1 0x60 ADD PUSH2 0x2EEC JUMP JUMPDEST PUSH1 0x0 PUSH2 0x32C8 CALLER PUSH2 0x3B7B JUMP JUMPDEST GT PUSH2 0x32D2 JUMPI PUSH1 0x0 DUP1 REVERT JUMPDEST PUSH1 0xA PUSH1 0x2 SLOAD LT ISZERO PUSH2 0x32E2 JUMPI PUSH1 0x0 DUP1 REVERT JUMPDEST PUSH2 0x32EB CALLER PUSH2 0x3B7B JUMP JUMPDEST DUP3 GT ISZERO PUSH2 0x32F7 JUMPI PUSH1 0x0 DUP1 REVERT JUMPDEST CALLER PUSH1 0x0 SWAP1 DUP2 MSTORE PUSH1 0x22 PUSH1 0x20 MSTORE PUSH1 0x40 SWAP1 KECCAK256 PUSH1 0x1 DUP2 ADD DUP3 SWAP1 SSTORE PUSH1 0x2 ADD DUP3 SWAP1 SSTORE DUP2 ISZERO PUSH2 0x3338 JUMPI CALLER PUSH1 0x0 SWAP1 DUP2 MSTORE PUSH1 0x22 PUSH1 0x20 MSTORE PUSH1 0x40 SWAP1 KECCAK256 DUP1 SLOAD PUSH1 0xFF NOT AND PUSH1 0x1 OR SWAP1 SSTORE PUSH2 0x3350 JUMP JUMPDEST CALLER PUSH1 0x0 SWAP1 DUP2 MSTORE PUSH1 0x22 PUSH1 0x20 MSTORE PUSH1 0x40 SWAP1 KECCAK256 DUP1 SLOAD PUSH1 0xFF NOT AND SWAP1 SSTORE JUMPDEST PUSH1 0x40 DUP1 MLOAD CALLER DUP2 MSTORE PUSH1 0x20 DUP2 ADD DUP5 SWAP1 MSTORE SWAP1 DUP2 ADD DUP3 SWAP1 MSTORE PUSH32 0x2F8935C41288DF166E9B29F7B3AC57473233672EEAE5A4821E5BFE666784A49A SWAP1 PUSH1 0x60 ADD PUSH2 0x14B7 JUMP JUMPDEST PUSH1 0x0 PUSH2 0x1506 DUP3 PUSH2 0x665 PUSH2 0x318E JUMP JUMPDEST CALLER PUSH2 0x33AF PUSH1 0x4 SLOAD PUSH1 0x1 PUSH1 0x1 PUSH1 0xA0 SHL SUB AND SWAP1 JUMP JUMPDEST PUSH1 0x1 PUSH1 0x1 PUSH1 0xA0 SHL SUB AND EQ PUSH2 0x33C2 JUMPI PUSH1 0x0 DUP1 REVERT JUMPDEST PUSH1 0x24 SSTORE JUMP JUMPDEST PUSH1 0x0 DUP2 GT PUSH2 0x33D4 JUMPI PUSH1 0x0 DUP1 REVERT JUMPDEST PUSH1 0xA PUSH1 0x2 SLOAD LT PUSH2 0x1EAA JUMPI DUP1 NUMBER LT ISZERO PUSH2 0x33EB JUMPI PUSH1 0x0 DUP1 REVERT JUMPDEST PUSH1 0x1 PUSH1 0x1 PUSH1 0xA0 SHL SUB DUP3 AND PUSH1 0x0 SWAP1 DUP2 MSTORE PUSH1 0x10 PUSH1 0x20 SWAP1 DUP2 MSTORE PUSH1 0x40 DUP1 DUP4 KECCAK256 DUP5 DUP5 MSTORE PUSH1 0x1 ADD SWAP1 SWAP2 MSTORE SWAP1 KECCAK256 SLOAD PUSH2 0x341B JUMPI PUSH1 0x0 DUP1 REVERT JUMPDEST PUSH1 0x0 DUP2 DUP2 MSTORE PUSH1 0xF PUSH1 0x20 MSTORE PUSH1 0x40 SWAP1 KECCAK256 SLOAD PUSH2 0x3433 JUMPI PUSH1 0x0 DUP1 REVERT JUMPDEST PUSH1 0x1 PUSH1 0x1 PUSH1 0xA0 SHL SUB DUP3 AND PUSH1 0x0 SWAP1 DUP2 MSTORE PUSH1 0x10 PUSH1 0x20 SWAP1 DUP2 MSTORE PUSH1 0x40 DUP1 DUP4 KECCAK256 DUP5 DUP5 MSTORE PUSH1 0x1 SWAP1 DUP2 ADD DUP4 MSTORE DUP2 DUP5 KECCAK256 SLOAD PUSH1 0xF SWAP1 SWAP4 MSTORE SWAP1 DUP4 KECCAK256 SLOAD SWAP2 SWAP3 SELFBALANCE SWAP3 SWAP1 SWAP2 PUSH1 0x88 SWAP2 DUP7 SWAP2 PUSH2 0x347A SWAP2 SWAP1 PUSH2 0x3C71 JUMP JUMPDEST PUSH1 0x40 MLOAD PUSH1 0x24 DUP2 ADD SWAP3 SWAP1 SWAP3 MSTORE PUSH1 0x44 DUP3 ADD MSTORE PUSH1 0x64 ADD PUSH1 0x40 DUP1 MLOAD PUSH1 0x1F NOT DUP2 DUP5 SUB ADD DUP2 MSTORE SWAP2 DUP2 MSTORE PUSH1 0x20 DUP3 ADD DUP1 MLOAD PUSH1 0x1 PUSH1 0x1 PUSH1 0xE0 SHL SUB AND PUSH4 0x441A3E7 PUSH1 0xE4 SHL OR SWAP1 MSTORE MLOAD PUSH2 0x34C2 SWAP2 SWAP1 PUSH2 0x490E JUMP JUMPDEST PUSH1 0x0 PUSH1 0x40 MLOAD DUP1 DUP4 SUB DUP2 PUSH1 0x0 DUP7 GAS CALL SWAP2 POP POP RETURNDATASIZE DUP1 PUSH1 0x0 DUP2 EQ PUSH2 0x34FF JUMPI PUSH1 0x40 MLOAD SWAP2 POP PUSH1 0x1F NOT PUSH1 0x3F RETURNDATASIZE ADD AND DUP3 ADD PUSH1 0x40 MSTORE RETURNDATASIZE DUP3 MSTORE RETURNDATASIZE PUSH1 0x0 PUSH1 0x20 DUP5 ADD RETURNDATACOPY PUSH2 0x3504 JUMP JUMPDEST PUSH1 0x60 SWAP2 POP JUMPDEST POP POP SWAP1 POP DUP1 PUSH2 0x3512 JUMPI PUSH1 0x0 DUP1 REVERT JUMPDEST SELFBALANCE DUP4 PUSH2 0x351E DUP3 DUP6 PUSH2 0x3C71 JUMP JUMPDEST LT ISZERO PUSH2 0x3529 JUMPI PUSH1 0x0 DUP1 REVERT JUMPDEST PUSH1 0x1 PUSH1 0x1 PUSH1 0xA0 SHL SUB DUP7 AND PUSH1 0x0 DUP2 DUP2 MSTORE PUSH1 0x10 PUSH1 0x20 SWAP1 DUP2 MSTORE PUSH1 0x40 DUP1 DUP4 KECCAK256 DUP10 DUP5 MSTORE PUSH1 0x1 ADD DUP3 MSTORE DUP1 DUP4 KECCAK256 DUP4 SWAP1 SSTORE PUSH1 0xF SWAP1 SWAP2 MSTORE DUP1 DUP3 KECCAK256 DUP3 SWAP1 SSTORE MLOAD DUP7 ISZERO PUSH2 0x8FC MUL SWAP2 DUP8 SWAP2 SWAP1 DUP2 DUP2 DUP2 DUP6 DUP9 DUP9 CALL SWAP4 POP POP POP POP ISZERO DUP1 ISZERO PUSH2 0x3585 JUMPI RETURNDATASIZE PUSH1 0x0 DUP1 RETURNDATACOPY RETURNDATASIZE PUSH1 0x0 REVERT JUMPDEST POP PUSH1 0x40 DUP1 MLOAD PUSH1 0x1 PUSH1 0x1 PUSH1 0xA0 SHL SUB DUP9 AND DUP2 MSTORE PUSH1 0x20 DUP2 ADD DUP8 SWAP1 MSTORE SWAP1 DUP2 ADD DUP6 SWAP1 MSTORE PUSH32 0xF279E6A1F5E320CCA91135676D9CB6E44CA8A08C0B88342BCDB1144F6511B568 SWAP1 PUSH1 0x60 ADD JUMPDEST PUSH1 0x40 MLOAD DUP1 SWAP2 SUB SWAP1 LOG1 POP POP POP POP POP POP JUMP JUMPDEST PUSH1 0x0 PUSH2 0x35E4 CALLER PUSH2 0x3B7B JUMP JUMPDEST GT PUSH2 0x35EE JUMPI PUSH1 0x0 DUP1 REVERT JUMPDEST PUSH1 0x3 SLOAD PUSH1 0x1 PUSH1 0x1 PUSH1 0xA0 SHL SUB AND CALLER EQ DUP1 ISZERO PUSH2 0x360A JUMPI POP PUSH1 0x23 SLOAD PUSH1 0xFF AND JUMPDEST ISZERO PUSH2 0x362A JUMPI PUSH1 0x24 SLOAD PUSH2 0x361F DUP3 PUSH2 0x1DD8 CALLER PUSH2 0x3B7B JUMP JUMPDEST LT ISZERO PUSH2 0x362A JUMPI PUSH1 0x0 DUP1 REVERT JUMPDEST PUSH2 0x1EAA CALLER DUP4 DUP4 PUSH2 0x4220 JUMP JUMPDEST PUSH1 0x1B DUP2 DUP2 SLOAD DUP2 LT PUSH2 0x3645 JUMPI PUSH1 0x0 DUP1 REVERT JUMPDEST PUSH1 0x0 SWAP2 DUP3 MSTORE PUSH1 0x20 SWAP1 SWAP2 KECCAK256 ADD SLOAD PUSH1 0x1 PUSH1 0x1 PUSH1 0xA0 SHL SUB AND SWAP1 POP DUP2 JUMP JUMPDEST CALLER PUSH2 0x3672 PUSH1 0x4 SLOAD PUSH1 0x1 PUSH1 0x1 PUSH1 0xA0 SHL SUB AND SWAP1 JUMP JUMPDEST PUSH1 0x1 PUSH1 0x1 PUSH1 0xA0 SHL SUB AND EQ PUSH2 0x3685 JUMPI PUSH1 0x0 DUP1 REVERT JUMPDEST PUSH1 0x14 DUP2 GT ISZERO PUSH2 0x3693 JUMPI PUSH1 0x0 DUP1 REVERT JUMPDEST PUSH1 0xB SSTORE JUMP JUMPDEST PUSH1 0x1 PUSH1 0x1 PUSH1 0xA0 SHL SUB DUP2 AND PUSH1 0x0 SWAP1 DUP2 MSTORE PUSH1 0x10 PUSH1 0x20 SWAP1 DUP2 MSTORE PUSH1 0x40 SWAP2 DUP3 SWAP1 KECCAK256 PUSH1 0x2 ADD DUP1 SLOAD DUP4 MLOAD DUP2 DUP5 MUL DUP2 ADD DUP5 ADD SWAP1 SWAP5 MSTORE DUP1 DUP5 MSTORE PUSH1 0x60 SWAP4 SWAP3 DUP4 ADD DUP3 DUP3 DUP1 ISZERO PUSH2 0x36FB JUMPI PUSH1 0x20 MUL DUP3 ADD SWAP2 SWAP1 PUSH1 0x0 MSTORE PUSH1 0x20 PUSH1 0x0 KECCAK256 SWAP1 JUMPDEST DUP2 SLOAD DUP2 MSTORE PUSH1 0x20 ADD SWAP1 PUSH1 0x1 ADD SWAP1 DUP1 DUP4 GT PUSH2 0x36E7 JUMPI JUMPDEST POP POP POP POP POP SWAP1 POP SWAP2 SWAP1 POP JUMP JUMPDEST CALLER PUSH2 0x371A PUSH1 0x4 SLOAD PUSH1 0x1 PUSH1 0x1 PUSH1 0xA0 SHL SUB AND SWAP1 JUMP JUMPDEST PUSH1 0x1 PUSH1 0x1 PUSH1 0xA0 SHL SUB AND EQ PUSH2 0x372D JUMPI PUSH1 0x0 DUP1 REVERT JUMPDEST PUSH1 0x3 DUP1 SLOAD PUSH1 0x1 PUSH1 0x1 PUSH1 0xA0 SHL SUB NOT AND PUSH1 0x1 PUSH1 0x1 PUSH1 0xA0 SHL SUB SWAP3 SWAP1 SWAP3 AND SWAP2 SWAP1 SWAP2 OR SWAP1 SSTORE JUMP JUMPDEST PUSH1 0x0 PUSH2 0x376C PUSH1 0x64 PUSH2 0x1845 PUSH1 0x42 PUSH1 0x18 SLOAD PUSH2 0x3C8C SWAP1 SWAP2 SWAP1 PUSH4 0xFFFFFFFF AND JUMP JUMPDEST PUSH1 0x1F SLOAD LT ISZERO SWAP2 SWAP1 POP JUMP JUMPDEST CALLER PUSH2 0x3789 PUSH1 0x4 SLOAD PUSH1 0x1 PUSH1 0x1 PUSH1 0xA0 SHL SUB AND SWAP1 JUMP JUMPDEST PUSH1 0x1 PUSH1 0x1 PUSH1 0xA0 SHL SUB AND EQ PUSH2 0x379C JUMPI PUSH1 0x0 DUP1 REVERT JUMPDEST PUSH1 0x7 SSTORE PUSH1 0x6 SSTORE JUMP JUMPDEST PUSH1 0x1 PUSH1 0x1 PUSH1 0xA0 SHL SUB DUP2 AND PUSH1 0x0 SWAP1 DUP2 MSTORE PUSH1 0x14 PUSH1 0x20 MSTORE PUSH1 0x40 SWAP1 KECCAK256 SLOAD PUSH2 0x37C6 JUMPI PUSH1 0x0 DUP1 REVERT JUMPDEST PUSH1 0x0 PUSH2 0x37D1 DUP3 PUSH2 0x15DC JUMP JUMPDEST SWAP1 POP PUSH1 0x0 PUSH2 0x37DD PUSH2 0x318E JUMP JUMPDEST SWAP1 POP PUSH1 0x0 PUSH2 0x37EC DUP4 PUSH1 0x1 PUSH2 0x3C55 JUMP JUMPDEST SWAP1 POP PUSH2 0x37F9 DUP3 PUSH1 0x2 PUSH2 0x3C71 JUMP JUMPDEST DUP2 GT ISZERO PUSH2 0x3805 JUMPI PUSH1 0x0 DUP1 REVERT JUMPDEST PUSH2 0x380D PUSH2 0x1D6D JUMP JUMPDEST PUSH1 0x0 DUP1 PUSH2 0x381A DUP7 DUP5 PUSH2 0x2F95 JUMP JUMPDEST POP SWAP1 POP PUSH2 0x3827 DUP3 DUP3 PUSH2 0x3C55 JUMP JUMPDEST PUSH1 0x40 DUP1 MLOAD PUSH1 0x1 PUSH1 0x1 PUSH1 0xA0 SHL SUB DUP10 AND DUP2 MSTORE PUSH1 0x20 DUP2 ADD DUP5 SWAP1 MSTORE SWAP1 DUP2 ADD DUP6 SWAP1 MSTORE SWAP1 SWAP3 POP PUSH32 0x23CC5EFBE23324543E8856E030FA85B4E4A060569F02C44080A80F46B0851E99 SWAP1 PUSH1 0x60 ADD PUSH1 0x40 MLOAD DUP1 SWAP2 SUB SWAP1 LOG1 DUP2 ISZERO PUSH2 0x3904 JUMPI PUSH1 0x40 MLOAD PUSH1 0x1 PUSH1 0x1 PUSH1 0xA0 SHL SUB DUP8 AND SWAP1 DUP4 ISZERO PUSH2 0x8FC MUL SWAP1 DUP5 SWAP1 PUSH1 0x0 DUP2 DUP2 DUP2 DUP6 DUP9 DUP9 CALL SWAP4 POP POP POP POP ISZERO DUP1 ISZERO PUSH2 0x38B0 JUMPI RETURNDATASIZE PUSH1 0x0 DUP1 RETURNDATACOPY RETURNDATASIZE PUSH1 0x0 REVERT JUMPDEST POP PUSH1 0x40 DUP1 MLOAD PUSH1 0x1 PUSH1 0x1 PUSH1 0xA0 SHL SUB DUP9 AND DUP2 MSTORE PUSH1 0x20 DUP2 ADD DUP5 SWAP1 MSTORE PUSH32 0xBC84835063C693975166F00CFFB19F01A94C2DB55B1BF259238C5DA3594E5066 SWAP2 ADD PUSH1 0x40 MLOAD DUP1 SWAP2 SUB SWAP1 LOG1 PUSH1 0x9 SLOAD PUSH2 0x3900 SWAP1 DUP4 PUSH2 0x3C55 JUMP JUMPDEST PUSH1 0x9 SSTORE JUMPDEST POP POP PUSH1 0x1 PUSH1 0x1 PUSH1 0xA0 SHL SUB SWAP1 SWAP4 AND PUSH1 0x0 SWAP1 DUP2 MSTORE PUSH1 0x11 PUSH1 0x20 MSTORE PUSH1 0x40 SWAP1 KECCAK256 SWAP3 SWAP1 SWAP3 SSTORE POP POP JUMP JUMPDEST PUSH1 0x0 PUSH2 0x1506 PUSH1 0x64 PUSH2 0x1845 DUP5 PUSH2 0x183F PUSH1 0xD SLOAD SWAP1 JUMP JUMPDEST PUSH1 0x0 PUSH2 0x3946 CALLER PUSH2 0x3B7B JUMP JUMPDEST GT PUSH2 0x3950 JUMPI PUSH1 0x0 DUP1 REVERT JUMPDEST PUSH10 0xA968163F0A57B400000 SELFBALANCE LT ISZERO PUSH2 0x3967 JUMPI PUSH1 0x0 DUP1 REVERT JUMPDEST PUSH1 0xA PUSH1 0x2 SLOAD LT PUSH2 0x3976 JUMPI PUSH1 0x0 DUP1 REVERT JUMPDEST PUSH1 0x1 SLOAD PUSH1 0x40 MLOAD PUSH1 0x1 PUSH1 0x1 PUSH1 0xA0 SHL SUB SWAP1 SWAP2 AND PUSH1 0x24 DUP3 ADD MSTORE PUSH1 0x0 SWAP1 PUSH1 0x88 SWAP1 SELFBALANCE SWAP1 PUSH1 0x44 ADD PUSH1 0x40 DUP1 MLOAD PUSH1 0x1F NOT DUP2 DUP5 SUB ADD DUP2 MSTORE SWAP2 DUP2 MSTORE PUSH1 0x20 DUP3 ADD DUP1 MLOAD PUSH1 0x1 PUSH1 0x1 PUSH1 0xE0 SHL SUB AND PUSH32 0x126795100000000000000000000000000000000000000000000000000000000 OR SWAP1 MSTORE MLOAD PUSH2 0x39E5 SWAP2 SWAP1 PUSH2 0x490E JUMP JUMPDEST PUSH1 0x0 PUSH1 0x40 MLOAD DUP1 DUP4 SUB DUP2 DUP6 DUP8 GAS CALL SWAP3 POP POP POP RETURNDATASIZE DUP1 PUSH1 0x0 DUP2 EQ PUSH2 0x3A22 JUMPI PUSH1 0x40 MLOAD SWAP2 POP PUSH1 0x1F NOT PUSH1 0x3F RETURNDATASIZE ADD AND DUP3 ADD PUSH1 0x40 MSTORE RETURNDATASIZE DUP3 MSTORE RETURNDATASIZE PUSH1 0x0 PUSH1 0x20 DUP5 ADD RETURNDATACOPY PUSH2 0x3A27 JUMP JUMPDEST PUSH1 0x60 SWAP2 POP JUMPDEST POP POP SWAP1 POP DUP1 PUSH2 0x3A78 JUMPI PUSH1 0x40 MLOAD PUSH3 0x461BCD PUSH1 0xE5 SHL DUP2 MSTORE PUSH1 0x20 PUSH1 0x4 DUP3 ADD MSTORE PUSH1 0xE PUSH1 0x24 DUP3 ADD MSTORE PUSH32 0x70726F706F7365206661696C6564000000000000000000000000000000000000 PUSH1 0x44 DUP3 ADD MSTORE PUSH1 0x64 ADD PUSH2 0x140F JUMP JUMPDEST PUSH1 0xA PUSH1 0x2 SSTORE PUSH2 0x3A85 PUSH2 0x318E JUMP JUMPDEST PUSH1 0x20 SWAP1 DUP2 SSTORE PUSH1 0x40 MLOAD ADDRESS DUP2 MSTORE PUSH32 0xD16D50D8D566A5C6F1F5D89FFCFA821ADC9D9F4E780D153563ABC82E943FF0E3 SWAP2 ADD PUSH2 0x2EEC JUMP JUMPDEST CALLER PUSH2 0x3ACB PUSH1 0x4 SLOAD PUSH1 0x1 PUSH1 0x1 PUSH1 0xA0 SHL SUB AND SWAP1 JUMP JUMPDEST PUSH1 0x1 PUSH1 0x1 PUSH1 0xA0 SHL SUB AND EQ PUSH2 0x3ADE JUMPI PUSH1 0x0 DUP1 REVERT JUMPDEST PUSH1 0x1 PUSH1 0x1 PUSH1 0xA0 SHL SUB SWAP1 SWAP2 AND PUSH1 0x0 SWAP1 DUP2 MSTORE PUSH1 0x11 PUSH1 0x20 MSTORE PUSH1 0x40 SWAP1 KECCAK256 SSTORE JUMP JUMPDEST PUSH1 0x1 PUSH1 0x1 PUSH1 0xA0 SHL SUB DUP2 AND PUSH1 0x0 SWAP1 DUP2 MSTORE PUSH1 0x1E PUSH1 0x20 MSTORE PUSH1 0x40 DUP2 KECCAK256 SLOAD PUSH1 0xFF AND ISZERO PUSH2 0x3B3A JUMPI POP PUSH1 0x1 PUSH1 0x1 PUSH1 0xA0 SHL SUB AND PUSH1 0x0 SWAP1 DUP2 MSTORE PUSH1 0x1E PUSH1 0x20 MSTORE PUSH1 0x40 SWAP1 KECCAK256 SLOAD PUSH1 0xFF AND SWAP1 JUMP JUMPDEST POP PUSH1 0x0 SWAP2 SWAP1 POP JUMP JUMPDEST CALLER PUSH2 0x3B55 PUSH1 0x4 SLOAD PUSH1 0x1 PUSH1 0x1 PUSH1 0xA0 SHL SUB AND SWAP1 JUMP JUMPDEST PUSH1 0x1 PUSH1 0x1 PUSH1 0xA0 SHL SUB AND EQ PUSH2 0x3B68 JUMPI PUSH1 0x0 DUP1 REVERT JUMPDEST PUSH1 0x23 DUP1 SLOAD PUSH1 0xFF NOT AND SWAP2 ISZERO ISZERO SWAP2 SWAP1 SWAP2 OR SWAP1 SSTORE JUMP JUMPDEST PUSH1 0x0 PUSH2 0x1506 PUSH2 0x3B88 PUSH2 0x318E JUMP JUMPDEST DUP4 PUSH2 0x25D1 JUMP JUMPDEST PUSH1 0x0 DUP1 SLOAD PUSH2 0x3B9B SWAP1 PUSH2 0x492A JUMP JUMPDEST DUP1 PUSH1 0x1F ADD PUSH1 0x20 DUP1 SWAP2 DIV MUL PUSH1 0x20 ADD PUSH1 0x40 MLOAD SWAP1 DUP2 ADD PUSH1 0x40 MSTORE DUP1 SWAP3 SWAP2 SWAP1 DUP2 DUP2 MSTORE PUSH1 0x20 ADD DUP3 DUP1 SLOAD PUSH2 0x3BC7 SWAP1 PUSH2 0x492A JUMP JUMPDEST DUP1 ISZERO PUSH2 0x3C14 JUMPI DUP1 PUSH1 0x1F LT PUSH2 0x3BE9 JUMPI PUSH2 0x100 DUP1 DUP4 SLOAD DIV MUL DUP4 MSTORE SWAP2 PUSH1 0x20 ADD SWAP2 PUSH2 0x3C14 JUMP JUMPDEST DUP3 ADD SWAP2 SWAP1 PUSH1 0x0 MSTORE PUSH1 0x20 PUSH1 0x0 KECCAK256 SWAP1 JUMPDEST DUP2 SLOAD DUP2 MSTORE SWAP1 PUSH1 0x1 ADD SWAP1 PUSH1 0x20 ADD DUP1 DUP4 GT PUSH2 0x3BF7 JUMPI DUP3 SWAP1 SUB PUSH1 0x1F AND DUP3 ADD SWAP2 JUMPDEST POP POP POP POP POP DUP2 JUMP JUMPDEST CALLER PUSH2 0x3C2F PUSH1 0x4 SLOAD PUSH1 0x1 PUSH1 0x1 PUSH1 0xA0 SHL SUB AND SWAP1 JUMP JUMPDEST PUSH1 0x1 PUSH1 0x1 PUSH1 0xA0 SHL SUB AND EQ PUSH2 0x3C42 JUMPI PUSH1 0x0 DUP1 REVERT JUMPDEST PUSH1 0x14 DUP2 GT ISZERO PUSH2 0x3C50 JUMPI PUSH1 0x0 DUP1 REVERT JUMPDEST PUSH1 0xD SSTORE JUMP JUMPDEST PUSH1 0x0 DUP1 PUSH2 0x3C62 DUP4 DUP6 PUSH2 0x4A9D JUMP JUMPDEST SWAP1 POP DUP4 DUP2 LT ISZERO PUSH2 0x310F JUMPI PUSH1 0x0 DUP1 REVERT JUMPDEST PUSH1 0x0 DUP3 DUP3 GT ISZERO PUSH2 0x3C80 JUMPI PUSH1 0x0 DUP1 REVERT JUMPDEST PUSH1 0x0 PUSH2 0x1638 DUP4 DUP6 PUSH2 0x48E5 JUMP JUMPDEST PUSH1 0x0 DUP3 PUSH1 0x0 SUB PUSH2 0x3C9E JUMPI POP PUSH1 0x0 PUSH2 0x1506 JUMP JUMPDEST PUSH1 0x0 PUSH2 0x3CAA DUP4 DUP6 PUSH2 0x4A86 JUMP JUMPDEST SWAP1 POP DUP3 PUSH2 0x3CB7 DUP6 DUP4 PUSH2 0x4AC6 JUMP JUMPDEST EQ PUSH2 0x310F JUMPI PUSH1 0x0 DUP1 REVERT JUMPDEST PUSH1 0x0 DUP1 DUP3 GT PUSH2 0x3CCF JUMPI PUSH1 0x0 DUP1 REVERT JUMPDEST PUSH1 0x0 PUSH2 0x1638 DUP4 DUP6 PUSH2 0x4AC6 JUMP JUMPDEST PUSH1 0x0 DUP2 DUP2 MSTORE PUSH1 0x1C PUSH1 0x20 MSTORE PUSH1 0x40 DUP2 KECCAK256 PUSH1 0x1 ADD SLOAD PUSH1 0x21 SLOAD DUP3 SWAP2 SWAP1 DUP3 SWAP1 DUP6 GT DUP1 ISZERO PUSH2 0x3D03 JUMPI POP PUSH1 0x0 DUP3 GT JUMPDEST ISZERO PUSH2 0x3E92 JUMPI PUSH1 0x0 PUSH2 0x3D13 DUP4 PUSH2 0x1D59 JUMP JUMPDEST SWAP1 POP PUSH1 0x0 PUSH2 0x3D29 PUSH1 0x4 SLOAD PUSH1 0x1 PUSH1 0x1 PUSH1 0xA0 SHL SUB AND SWAP1 JUMP JUMPDEST SWAP1 POP DUP2 ISZERO PUSH2 0x3DB3 JUMPI PUSH1 0x40 MLOAD PUSH1 0x1 PUSH1 0x1 PUSH1 0xA0 SHL SUB DUP3 AND SWAP1 DUP4 ISZERO PUSH2 0x8FC MUL SWAP1 DUP5 SWAP1 PUSH1 0x0 DUP2 DUP2 DUP2 DUP6 DUP9 DUP9 CALL SWAP4 POP POP POP POP ISZERO DUP1 ISZERO PUSH2 0x3D67 JUMPI RETURNDATASIZE PUSH1 0x0 DUP1 RETURNDATACOPY RETURNDATASIZE PUSH1 0x0 REVERT JUMPDEST POP PUSH32 0xBBCE279F9ED60FFB489A37C1E015BB68C2DC3853842D04A597CE8A805185A5F0 DUP8 PUSH2 0x3D93 PUSH1 0xB SLOAD SWAP1 JUMP JUMPDEST PUSH1 0x40 DUP1 MLOAD SWAP3 DUP4 MSTORE PUSH1 0x20 DUP4 ADD SWAP2 SWAP1 SWAP2 MSTORE DUP2 ADD DUP5 SWAP1 MSTORE PUSH1 0x60 ADD PUSH1 0x40 MLOAD DUP1 SWAP2 SUB SWAP1 LOG1 JUMPDEST PUSH1 0x0 PUSH2 0x3DBE DUP6 PUSH2 0x3927 JUMP JUMPDEST SWAP1 POP DUP1 ISZERO PUSH2 0x3E4C JUMPI PUSH1 0x3 SLOAD PUSH1 0x40 MLOAD PUSH1 0x1 PUSH1 0x1 PUSH1 0xA0 SHL SUB SWAP1 SWAP2 AND SWAP1 DUP3 ISZERO PUSH2 0x8FC MUL SWAP1 DUP4 SWAP1 PUSH1 0x0 DUP2 DUP2 DUP2 DUP6 DUP9 DUP9 CALL SWAP4 POP POP POP POP ISZERO DUP1 ISZERO PUSH2 0x3E00 JUMPI RETURNDATASIZE PUSH1 0x0 DUP1 RETURNDATACOPY RETURNDATASIZE PUSH1 0x0 REVERT JUMPDEST POP PUSH32 0x49FB134B5AEFB13DAE321F724D5A24D45C3E0974603825EE6550C8207D714C2F DUP9 PUSH2 0x3E2C PUSH1 0xD SLOAD SWAP1 JUMP JUMPDEST PUSH1 0x40 DUP1 MLOAD SWAP3 DUP4 MSTORE PUSH1 0x20 DUP4 ADD SWAP2 SWAP1 SWAP2 MSTORE DUP2 ADD DUP4 SWAP1 MSTORE PUSH1 0x60 ADD PUSH1 0x40 MLOAD DUP1 SWAP2 SUB SWAP1 LOG1 JUMPDEST PUSH2 0x3E5A DUP2 PUSH2 0x1DD8 DUP8 DUP7 PUSH2 0x3C71 JUMP JUMPDEST PUSH1 0x0 DUP10 DUP2 MSTORE PUSH1 0x1C PUSH1 0x20 MSTORE PUSH1 0x40 SWAP1 KECCAK256 PUSH1 0x2 ADD SSTORE PUSH1 0x9 SLOAD PUSH2 0x3E7F SWAP1 DUP3 SWAP1 PUSH2 0x1236 SWAP1 DUP7 PUSH2 0x3C55 JUMP JUMPDEST PUSH1 0x9 SSTORE PUSH2 0x3E8C DUP4 DUP3 PUSH2 0x3C55 JUMP JUMPDEST SWAP4 POP POP POP POP JUMPDEST DUP5 PUSH1 0x21 SLOAD LT ISZERO PUSH2 0x3EA2 JUMPI PUSH1 0x21 DUP6 SWAP1 SSTORE JUMPDEST PUSH1 0x0 SWAP5 DUP6 MSTORE PUSH1 0x1C PUSH1 0x20 MSTORE PUSH1 0x40 SWAP1 SWAP5 KECCAK256 PUSH1 0x2 ADD SLOAD SWAP4 SWAP5 SWAP3 POP POP POP JUMP JUMPDEST PUSH1 0x18 SLOAD PUSH1 0x15 DUP2 SWAP1 SSTORE PUSH1 0x0 SWAP1 DUP2 SWAP1 PUSH2 0x3EDE SWAP1 PUSH10 0xA968163F0A57B400000 PUSH2 0x3C71 JUMP JUMPDEST PUSH1 0x1 SLOAD PUSH1 0x40 MLOAD PUSH1 0x1 PUSH1 0x1 PUSH1 0xA0 SHL SUB SWAP1 SWAP2 AND PUSH1 0x24 DUP3 ADD MSTORE PUSH1 0x44 DUP2 ADD DUP3 SWAP1 MSTORE SWAP1 SWAP2 POP PUSH1 0x88 SWAP1 PUSH1 0x64 ADD PUSH1 0x40 DUP1 MLOAD PUSH1 0x1F NOT DUP2 DUP5 SUB ADD DUP2 MSTORE SWAP2 DUP2 MSTORE PUSH1 0x20 DUP3 ADD DUP1 MLOAD PUSH1 0x1 PUSH1 0x1 PUSH1 0xE0 SHL SUB AND PUSH4 0x1554DF1 PUSH1 0xE1 SHL OR SWAP1 MSTORE MLOAD PUSH2 0x3F39 SWAP2 SWAP1 PUSH2 0x490E JUMP JUMPDEST PUSH1 0x0 PUSH1 0x40 MLOAD DUP1 DUP4 SUB DUP2 PUSH1 0x0 DUP7 GAS CALL SWAP2 POP POP RETURNDATASIZE DUP1 PUSH1 0x0 DUP2 EQ PUSH2 0x3F76 JUMPI PUSH1 0x40 MLOAD SWAP2 POP PUSH1 0x1F NOT PUSH1 0x3F RETURNDATASIZE ADD AND DUP3 ADD PUSH1 0x40 MSTORE RETURNDATASIZE DUP3 MSTORE RETURNDATASIZE PUSH1 0x0 PUSH1 0x20 DUP5 ADD RETURNDATACOPY PUSH2 0x3F7B JUMP JUMPDEST PUSH1 0x60 SWAP2 POP JUMPDEST POP POP DUP1 SWAP3 POP POP DUP2 PUSH2 0x3FBE JUMPI PUSH1 0x40 MLOAD PUSH3 0x461BCD PUSH1 0xE5 SHL DUP2 MSTORE PUSH1 0x20 PUSH1 0x4 DUP3 ADD MSTORE PUSH1 0xD PUSH1 0x24 DUP3 ADD MSTORE PUSH13 0x1C995CDA59DB8819985A5B1959 PUSH1 0x9A SHL PUSH1 0x44 DUP3 ADD MSTORE PUSH1 0x64 ADD PUSH2 0x140F JUMP JUMPDEST PUSH1 0x6 SLOAD PUSH1 0x0 SWAP1 PUSH2 0x3FCE SWAP1 NUMBER PUSH2 0x3C55 JUMP JUMPDEST ADDRESS PUSH1 0x0 SWAP1 DUP2 MSTORE PUSH1 0x10 PUSH1 0x20 SWAP1 DUP2 MSTORE PUSH1 0x40 DUP1 DUP4 KECCAK256 DUP5 DUP5 MSTORE PUSH1 0x1 ADD SWAP1 SWAP2 MSTORE SWAP1 KECCAK256 SLOAD SWAP1 SWAP2 POP PUSH2 0x3FF9 SWAP1 DUP4 PUSH2 0x3C55 JUMP JUMPDEST ADDRESS PUSH1 0x0 SWAP1 DUP2 MSTORE PUSH1 0x10 PUSH1 0x20 SWAP1 DUP2 MSTORE PUSH1 0x40 DUP1 DUP4 KECCAK256 DUP6 DUP5 MSTORE PUSH1 0x1 DUP1 DUP3 ADD DUP5 MSTORE DUP3 DUP6 KECCAK256 SWAP6 SWAP1 SWAP6 SSTORE PUSH1 0x2 ADD DUP1 SLOAD DUP1 DUP7 ADD DUP3 SSTORE SWAP1 DUP5 MSTORE DUP3 DUP5 KECCAK256 ADD DUP6 SWAP1 SSTORE PUSH1 0xC SLOAD DUP6 DUP5 MSTORE PUSH1 0xF SWAP1 SWAP3 MSTORE SWAP1 SWAP2 KECCAK256 DUP2 SWAP1 SSTORE PUSH2 0x404A SWAP2 PUSH2 0x3C55 JUMP JUMPDEST PUSH1 0xC SSTORE PUSH1 0x1 SLOAD PUSH1 0x40 MLOAD PUSH1 0x1 PUSH1 0x1 PUSH1 0xA0 SHL SUB SWAP1 SWAP2 AND PUSH1 0x24 DUP3 ADD MSTORE PUSH1 0x88 SWAP1 PUSH1 0x44 ADD PUSH1 0x40 DUP1 MLOAD PUSH1 0x1F NOT DUP2 DUP5 SUB ADD DUP2 MSTORE SWAP2 DUP2 MSTORE PUSH1 0x20 DUP3 ADD DUP1 MLOAD PUSH1 0x1 PUSH1 0x1 PUSH1 0xE0 SHL SUB AND PUSH32 0xAE6E43F500000000000000000000000000000000000000000000000000000000 OR SWAP1 MSTORE MLOAD PUSH2 0x40B7 SWAP2 SWAP1 PUSH2 0x490E JUMP JUMPDEST PUSH1 0x0 PUSH1 0x40 MLOAD DUP1 DUP4 SUB DUP2 PUSH1 0x0 DUP7 GAS CALL SWAP2 POP POP RETURNDATASIZE DUP1 PUSH1 0x0 DUP2 EQ PUSH2 0x40F4 JUMPI PUSH1 0x40 MLOAD SWAP2 POP PUSH1 0x1F NOT PUSH1 0x3F RETURNDATASIZE ADD AND DUP3 ADD PUSH1 0x40 MSTORE RETURNDATASIZE DUP3 MSTORE RETURNDATASIZE PUSH1 0x0 PUSH1 0x20 DUP5 ADD RETURNDATACOPY PUSH2 0x40F9 JUMP JUMPDEST PUSH1 0x60 SWAP2 POP JUMPDEST POP POP DUP1 SWAP4 POP POP DUP3 PUSH2 0x413C JUMPI PUSH1 0x40 MLOAD PUSH3 0x461BCD PUSH1 0xE5 SHL DUP2 MSTORE PUSH1 0x20 PUSH1 0x4 DUP3 ADD MSTORE PUSH1 0xD PUSH1 0x24 DUP3 ADD MSTORE PUSH13 0x1C995CDA59DB8819985A5B1959 PUSH1 0x9A SHL PUSH1 0x44 DUP3 ADD MSTORE PUSH1 0x64 ADD PUSH2 0x140F JUMP JUMPDEST PUSH1 0x64 PUSH1 0x2 SSTORE PUSH1 0x7 SLOAD PUSH2 0x414E SWAP1 NUMBER PUSH2 0x3C55 JUMP JUMPDEST SWAP1 POP PUSH2 0x418C PUSH2 0x4168 DUP4 PUSH1 0x18 SLOAD PUSH2 0x3C71 SWAP1 SWAP2 SWAP1 PUSH4 0xFFFFFFFF AND JUMP JUMPDEST ADDRESS PUSH1 0x0 SWAP1 DUP2 MSTORE PUSH1 0x10 PUSH1 0x20 SWAP1 DUP2 MSTORE PUSH1 0x40 DUP1 DUP4 KECCAK256 DUP7 DUP5 MSTORE PUSH1 0x1 ADD SWAP1 SWAP2 MSTORE SWAP1 KECCAK256 SLOAD SWAP1 PUSH2 0x3C55 JUMP JUMPDEST ADDRESS PUSH1 0x0 SWAP1 DUP2 MSTORE PUSH1 0x10 PUSH1 0x20 SWAP1 DUP2 MSTORE PUSH1 0x40 DUP1 DUP4 KECCAK256 DUP6 DUP5 MSTORE PUSH1 0x1 DUP1 DUP3 ADD DUP5 MSTORE DUP3 DUP6 KECCAK256 SWAP6 SWAP1 SWAP6 SSTORE PUSH1 0x2 ADD DUP1 SLOAD DUP1 DUP7 ADD DUP3 SSTORE SWAP1 DUP5 MSTORE DUP3 DUP5 KECCAK256 ADD DUP6 SWAP1 SSTORE PUSH1 0xC SLOAD DUP6 DUP5 MSTORE PUSH1 0xF SWAP1 SWAP3 MSTORE SWAP1 SWAP2 KECCAK256 DUP2 SWAP1 SSTORE PUSH2 0x41DD SWAP2 PUSH2 0x3C55 JUMP JUMPDEST PUSH1 0xC SSTORE PUSH1 0x40 MLOAD ADDRESS DUP2 MSTORE PUSH32 0x61AC3253C35E0A340886A3CEC6E1C1DD9C734ED689F0416BBE04D315108968A0 SWAP1 PUSH1 0x20 ADD PUSH1 0x40 MLOAD DUP1 SWAP2 SUB SWAP1 LOG1 PUSH1 0x0 PUSH1 0x18 SSTORE PUSH2 0x25AB PUSH2 0x31AF JUMP JUMPDEST PUSH1 0x0 DUP2 GT PUSH2 0x422D JUMPI PUSH1 0x0 DUP1 REVERT JUMPDEST PUSH1 0x64 PUSH1 0x2 SLOAD LT PUSH2 0x423C JUMPI PUSH1 0x0 DUP1 REVERT JUMPDEST PUSH1 0x0 PUSH2 0x4247 DUP5 PUSH2 0x3B7B JUMP JUMPDEST SWAP1 POP DUP2 DUP2 LT ISZERO PUSH2 0x42BF JUMPI PUSH1 0x40 MLOAD PUSH3 0x461BCD PUSH1 0xE5 SHL DUP2 MSTORE PUSH1 0x20 PUSH1 0x4 DUP3 ADD MSTORE PUSH1 0x30 PUSH1 0x24 DUP3 ADD MSTORE PUSH32 0x7472616E73666572656420616D6F756E7420697320686967686572207468616E PUSH1 0x44 DUP3 ADD MSTORE PUSH32 0x207468652063757272656E742063617000000000000000000000000000000000 PUSH1 0x64 DUP3 ADD MSTORE PUSH1 0x84 ADD PUSH2 0x140F JUMP JUMPDEST PUSH1 0x0 PUSH2 0x42C9 PUSH2 0x318E JUMP JUMPDEST SWAP1 POP PUSH2 0x42D5 DUP3 DUP5 PUSH2 0x3C71 JUMP JUMPDEST PUSH1 0x0 DUP3 DUP2 MSTORE PUSH1 0x13 PUSH1 0x20 SWAP1 DUP2 MSTORE PUSH1 0x40 DUP1 DUP4 KECCAK256 PUSH1 0x1 PUSH1 0x1 PUSH1 0xA0 SHL SUB DUP11 AND DUP5 MSTORE DUP3 MSTORE DUP1 DUP4 KECCAK256 SWAP4 SWAP1 SWAP4 SSTORE PUSH1 0x14 SWAP1 MSTORE KECCAK256 DUP1 SLOAD DUP3 SWAP2 SWAP1 PUSH2 0x4311 SWAP1 PUSH1 0x1 SWAP1 PUSH2 0x48E5 JUMP JUMPDEST DUP2 SLOAD DUP2 LT PUSH2 0x4321 JUMPI PUSH2 0x4321 PUSH2 0x48F8 JUMP JUMPDEST SWAP1 PUSH1 0x0 MSTORE PUSH1 0x20 PUSH1 0x0 KECCAK256 ADD SLOAD EQ PUSH2 0x435D JUMPI PUSH1 0x1 PUSH1 0x1 PUSH1 0xA0 SHL SUB DUP6 AND PUSH1 0x0 SWAP1 DUP2 MSTORE PUSH1 0x14 PUSH1 0x20 SWAP1 DUP2 MSTORE PUSH1 0x40 DUP3 KECCAK256 DUP1 SLOAD PUSH1 0x1 DUP2 ADD DUP3 SSTORE SWAP1 DUP4 MSTORE SWAP2 KECCAK256 ADD DUP2 SWAP1 SSTORE JUMPDEST PUSH2 0x4366 DUP6 PUSH2 0x3B7B JUMP JUMPDEST PUSH1 0x0 SUB PUSH2 0x4477 JUMPI PUSH1 0x0 JUMPDEST PUSH1 0x1B SLOAD DUP2 LT ISZERO PUSH2 0x4475 JUMPI DUP6 PUSH1 0x1 PUSH1 0x1 PUSH1 0xA0 SHL SUB AND PUSH1 0x1B DUP3 DUP2 SLOAD DUP2 LT PUSH2 0x4397 JUMPI PUSH2 0x4397 PUSH2 0x48F8 JUMP JUMPDEST PUSH1 0x0 SWAP2 DUP3 MSTORE PUSH1 0x20 SWAP1 SWAP2 KECCAK256 ADD SLOAD PUSH1 0x1 PUSH1 0x1 PUSH1 0xA0 SHL SUB AND SUB PUSH2 0x4463 JUMPI PUSH1 0x1B DUP1 SLOAD PUSH2 0x43C1 SWAP1 PUSH1 0x1 SWAP1 PUSH2 0x48E5 JUMP JUMPDEST DUP2 SLOAD DUP2 LT PUSH2 0x43D1 JUMPI PUSH2 0x43D1 PUSH2 0x48F8 JUMP JUMPDEST PUSH1 0x0 SWAP2 DUP3 MSTORE PUSH1 0x20 SWAP1 SWAP2 KECCAK256 ADD SLOAD PUSH1 0x1B DUP1 SLOAD PUSH1 0x1 PUSH1 0x1 PUSH1 0xA0 SHL SUB SWAP1 SWAP3 AND SWAP2 DUP4 SWAP1 DUP2 LT PUSH2 0x43FD JUMPI PUSH2 0x43FD PUSH2 0x48F8 JUMP JUMPDEST SWAP1 PUSH1 0x0 MSTORE PUSH1 0x20 PUSH1 0x0 KECCAK256 ADD PUSH1 0x0 PUSH2 0x100 EXP DUP2 SLOAD DUP2 PUSH1 0x1 PUSH1 0x1 PUSH1 0xA0 SHL SUB MUL NOT AND SWAP1 DUP4 PUSH1 0x1 PUSH1 0x1 PUSH1 0xA0 SHL SUB AND MUL OR SWAP1 SSTORE POP PUSH1 0x1B DUP1 SLOAD DUP1 PUSH2 0x443C JUMPI PUSH2 0x443C PUSH2 0x4A59 JUMP JUMPDEST PUSH1 0x0 DUP3 DUP2 MSTORE PUSH1 0x20 SWAP1 KECCAK256 DUP2 ADD PUSH1 0x0 NOT SWAP1 DUP2 ADD DUP1 SLOAD PUSH1 0x1 PUSH1 0x1 PUSH1 0xA0 SHL SUB NOT AND SWAP1 SSTORE ADD SWAP1 SSTORE PUSH2 0x4475 JUMP JUMPDEST DUP1 PUSH2 0x446D DUP2 PUSH2 0x4A40 JUMP JUMPDEST SWAP2 POP POP PUSH2 0x4370 JUMP JUMPDEST POP JUMPDEST PUSH1 0x0 PUSH2 0x4482 DUP6 PUSH2 0x3B7B JUMP JUMPDEST SWAP1 POP DUP1 PUSH1 0x0 SUB PUSH2 0x44D8 JUMPI PUSH1 0x1B DUP1 SLOAD PUSH1 0x1 DUP2 ADD DUP3 SSTORE PUSH1 0x0 SWAP2 SWAP1 SWAP2 MSTORE PUSH32 0x3AD8AA4F87544323A9D1E5DD902F40C356527A7955687113DB5F9A85AD579DC1 ADD DUP1 SLOAD PUSH1 0x1 PUSH1 0x1 PUSH1 0xA0 SHL SUB NOT AND PUSH1 0x1 PUSH1 0x1 PUSH1 0xA0 SHL SUB DUP8 AND OR SWAP1 SSTORE JUMPDEST PUSH2 0x44E2 DUP2 DUP6 PUSH2 0x3C55 JUMP JUMPDEST PUSH1 0x0 DUP4 DUP2 MSTORE PUSH1 0x13 PUSH1 0x20 SWAP1 DUP2 MSTORE PUSH1 0x40 DUP1 DUP4 KECCAK256 PUSH1 0x1 PUSH1 0x1 PUSH1 0xA0 SHL SUB DUP11 AND DUP5 MSTORE DUP3 MSTORE DUP1 DUP4 KECCAK256 SWAP4 SWAP1 SWAP4 SSTORE PUSH1 0x14 SWAP1 MSTORE KECCAK256 SLOAD ISZERO PUSH2 0x458D JUMPI PUSH1 0x1 PUSH1 0x1 PUSH1 0xA0 SHL SUB DUP6 AND PUSH1 0x0 SWAP1 DUP2 MSTORE PUSH1 0x14 PUSH1 0x20 MSTORE PUSH1 0x40 SWAP1 KECCAK256 DUP1 SLOAD DUP4 SWAP2 SWAP1 PUSH2 0x453C SWAP1 PUSH1 0x1 SWAP1 PUSH2 0x48E5 JUMP JUMPDEST DUP2 SLOAD DUP2 LT PUSH2 0x454C JUMPI PUSH2 0x454C PUSH2 0x48F8 JUMP JUMPDEST SWAP1 PUSH1 0x0 MSTORE PUSH1 0x20 PUSH1 0x0 KECCAK256 ADD SLOAD EQ PUSH2 0x4588 JUMPI PUSH1 0x1 PUSH1 0x1 PUSH1 0xA0 SHL SUB DUP6 AND PUSH1 0x0 SWAP1 DUP2 MSTORE PUSH1 0x14 PUSH1 0x20 SWAP1 DUP2 MSTORE PUSH1 0x40 DUP3 KECCAK256 DUP1 SLOAD PUSH1 0x1 DUP2 ADD DUP3 SSTORE SWAP1 DUP4 MSTORE SWAP2 KECCAK256 ADD DUP3 SWAP1 SSTORE JUMPDEST PUSH2 0x45B9 JUMP JUMPDEST PUSH1 0x1 PUSH1 0x1 PUSH1 0xA0 SHL SUB DUP6 AND PUSH1 0x0 SWAP1 DUP2 MSTORE PUSH1 0x14 PUSH1 0x20 SWAP1 DUP2 MSTORE PUSH1 0x40 DUP3 KECCAK256 DUP1 SLOAD PUSH1 0x1 DUP2 ADD DUP3 SSTORE SWAP1 DUP4 MSTORE SWAP2 KECCAK256 ADD DUP3 SWAP1 SSTORE JUMPDEST PUSH1 0x1 PUSH1 0x1 PUSH1 0xA0 SHL SUB DUP1 DUP7 AND PUSH1 0x0 SWAP1 DUP2 MSTORE PUSH1 0x1E PUSH1 0x20 MSTORE PUSH1 0x40 DUP1 DUP3 KECCAK256 SLOAD SWAP3 DUP10 AND DUP3 MSTORE SWAP1 KECCAK256 SLOAD PUSH1 0xFF SWAP1 DUP2 AND ISZERO ISZERO SWAP2 AND ISZERO ISZERO EQ PUSH2 0x4633 JUMPI PUSH1 0x1 PUSH1 0x1 PUSH1 0xA0 SHL SUB DUP6 AND PUSH1 0x0 SWAP1 DUP2 MSTORE PUSH1 0x1E PUSH1 0x20 MSTORE PUSH1 0x40 SWAP1 KECCAK256 SLOAD PUSH1 0xFF AND ISZERO PUSH2 0x4622 JUMPI PUSH1 0x1F SLOAD PUSH2 0x461A SWAP1 DUP6 PUSH2 0x3C55 JUMP JUMPDEST PUSH1 0x1F SSTORE PUSH2 0x4633 JUMP JUMPDEST PUSH1 0x1F SLOAD PUSH2 0x462F SWAP1 DUP6 PUSH2 0x3C71 JUMP JUMPDEST PUSH1 0x1F SSTORE JUMPDEST PUSH1 0x40 DUP1 MLOAD PUSH1 0x1 PUSH1 0x1 PUSH1 0xA0 SHL SUB DUP1 DUP10 AND DUP3 MSTORE DUP8 AND PUSH1 0x20 DUP3 ADD MSTORE SWAP1 DUP2 ADD DUP6 SWAP1 MSTORE PUSH32 0xA5C7720DA5835A5D7B6C0AFB0047711348A91E86C5EDAE9C61E40A746A036958 SWAP1 PUSH1 0x60 ADD PUSH2 0x35C9 JUMP JUMPDEST PUSH1 0x0 DUP2 PUSH1 0x0 SUB PUSH2 0x468A JUMPI PUSH1 0x0 DUP1 REVERT JUMPDEST PUSH2 0x310F DUP3 DUP5 PUSH2 0x4ADA JUMP JUMPDEST PUSH1 0x1 PUSH1 0x1 PUSH1 0xA0 SHL SUB DUP2 AND DUP2 EQ PUSH2 0x1D56 JUMPI PUSH1 0x0 DUP1 REVERT JUMPDEST PUSH1 0x0 DUP1 PUSH1 0x40 DUP4 DUP6 SUB SLT ISZERO PUSH2 0x46BC JUMPI PUSH1 0x0 DUP1 REVERT JUMPDEST DUP3 CALLDATALOAD PUSH2 0x46C7 DUP2 PUSH2 0x4694 JUMP JUMPDEST SWAP5 PUSH1 0x20 SWAP4 SWAP1 SWAP4 ADD CALLDATALOAD SWAP4 POP POP POP JUMP JUMPDEST PUSH1 0x0 PUSH1 0x20 DUP3 DUP5 SUB SLT ISZERO PUSH2 0x46E7 JUMPI PUSH1 0x0 DUP1 REVERT JUMPDEST DUP2 CALLDATALOAD PUSH2 0x310F DUP2 PUSH2 0x4694 JUMP JUMPDEST DUP1 CALLDATALOAD DUP1 ISZERO ISZERO DUP2 EQ PUSH2 0x4702 JUMPI PUSH1 0x0 DUP1 REVERT JUMPDEST SWAP2 SWAP1 POP JUMP JUMPDEST PUSH1 0x0 DUP1 PUSH1 0x40 DUP4 DUP6 SUB SLT ISZERO PUSH2 0x471A JUMPI PUSH1 0x0 DUP1 REVERT JUMPDEST DUP3 CALLDATALOAD PUSH2 0x4725 DUP2 PUSH2 0x4694 JUMP JUMPDEST SWAP2 POP PUSH2 0x4733 PUSH1 0x20 DUP5 ADD PUSH2 0x46F2 JUMP JUMPDEST SWAP1 POP SWAP3 POP SWAP3 SWAP1 POP JUMP JUMPDEST PUSH1 0x0 PUSH1 0x20 DUP3 DUP5 SUB SLT ISZERO PUSH2 0x474E JUMPI PUSH1 0x0 DUP1 REVERT JUMPDEST POP CALLDATALOAD SWAP2 SWAP1 POP JUMP JUMPDEST PUSH1 0x20 DUP1 DUP3 MSTORE DUP3 MLOAD DUP3 DUP3 ADD DUP2 SWAP1 MSTORE PUSH1 0x0 SWAP2 SWAP1 DUP5 DUP3 ADD SWAP1 PUSH1 0x40 DUP6 ADD SWAP1 DUP5 JUMPDEST DUP2 DUP2 LT ISZERO PUSH2 0x4796 JUMPI DUP4 MLOAD PUSH1 0x1 PUSH1 0x1 PUSH1 0xA0 SHL SUB AND DUP4 MSTORE SWAP3 DUP5 ADD SWAP3 SWAP2 DUP5 ADD SWAP2 PUSH1 0x1 ADD PUSH2 0x4771 JUMP JUMPDEST POP SWAP1 SWAP7 SWAP6 POP POP POP POP POP POP JUMP JUMPDEST PUSH1 0x0 DUP1 PUSH1 0x40 DUP4 DUP6 SUB SLT ISZERO PUSH2 0x47B5 JUMPI PUSH1 0x0 DUP1 REVERT JUMPDEST DUP3 CALLDATALOAD SWAP2 POP PUSH1 0x20 DUP4 ADD CALLDATALOAD PUSH2 0x47C7 DUP2 PUSH2 0x4694 JUMP JUMPDEST DUP1 SWAP2 POP POP SWAP3 POP SWAP3 SWAP1 POP JUMP JUMPDEST PUSH1 0x0 PUSH1 0x20 DUP3 DUP5 SUB SLT ISZERO PUSH2 0x47E4 JUMPI PUSH1 0x0 DUP1 REVERT JUMPDEST PUSH2 0x310F DUP3 PUSH2 0x46F2 JUMP JUMPDEST PUSH1 0x0 JUMPDEST DUP4 DUP2 LT ISZERO PUSH2 0x4808 JUMPI DUP2 DUP2 ADD MLOAD DUP4 DUP3 ADD MSTORE PUSH1 0x20 ADD PUSH2 0x47F0 JUMP JUMPDEST POP POP PUSH1 0x0 SWAP2 ADD MSTORE JUMP JUMPDEST PUSH1 0x0 DUP2 MLOAD DUP1 DUP5 MSTORE PUSH2 0x4829 DUP2 PUSH1 0x20 DUP7 ADD PUSH1 0x20 DUP7 ADD PUSH2 0x47ED JUMP JUMPDEST PUSH1 0x1F ADD PUSH1 0x1F NOT AND SWAP3 SWAP1 SWAP3 ADD PUSH1 0x20 ADD SWAP3 SWAP2 POP POP JUMP JUMPDEST PUSH1 0x60 DUP2 MSTORE PUSH1 0x0 PUSH2 0x4850 PUSH1 0x60 DUP4 ADD DUP7 PUSH2 0x4811 JUMP JUMPDEST PUSH1 0x20 DUP4 ADD SWAP5 SWAP1 SWAP5 MSTORE POP PUSH1 0x40 ADD MSTORE SWAP2 SWAP1 POP JUMP JUMPDEST PUSH1 0x0 DUP1 PUSH1 0x40 DUP4 DUP6 SUB SLT ISZERO PUSH2 0x4875 JUMPI PUSH1 0x0 DUP1 REVERT JUMPDEST POP POP DUP1 CALLDATALOAD SWAP3 PUSH1 0x20 SWAP1 SWAP2 ADD CALLDATALOAD SWAP2 POP JUMP JUMPDEST PUSH1 0x20 DUP1 DUP3 MSTORE DUP3 MLOAD DUP3 DUP3 ADD DUP2 SWAP1 MSTORE PUSH1 0x0 SWAP2 SWAP1 DUP5 DUP3 ADD SWAP1 PUSH1 0x40 DUP6 ADD SWAP1 DUP5 JUMPDEST DUP2 DUP2 LT ISZERO PUSH2 0x4796 JUMPI DUP4 MLOAD DUP4 MSTORE SWAP3 DUP5 ADD SWAP3 SWAP2 DUP5 ADD SWAP2 PUSH1 0x1 ADD PUSH2 0x48A0 JUMP JUMPDEST PUSH1 0x20 DUP2 MSTORE PUSH1 0x0 PUSH2 0x310F PUSH1 0x20 DUP4 ADD DUP5 PUSH2 0x4811 JUMP JUMPDEST PUSH4 0x4E487B71 PUSH1 0xE0 SHL PUSH1 0x0 MSTORE PUSH1 0x11 PUSH1 0x4 MSTORE PUSH1 0x24 PUSH1 0x0 REVERT JUMPDEST DUP2 DUP2 SUB DUP2 DUP2 GT ISZERO PUSH2 0x1506 JUMPI PUSH2 0x1506 PUSH2 0x48CF JUMP JUMPDEST PUSH4 0x4E487B71 PUSH1 0xE0 SHL PUSH1 0x0 MSTORE PUSH1 0x32 PUSH1 0x4 MSTORE PUSH1 0x24 PUSH1 0x0 REVERT JUMPDEST PUSH1 0x0 DUP3 MLOAD PUSH2 0x4920 DUP2 DUP5 PUSH1 0x20 DUP8 ADD PUSH2 0x47ED JUMP JUMPDEST SWAP2 SWAP1 SWAP2 ADD SWAP3 SWAP2 POP POP JUMP JUMPDEST PUSH1 0x1 DUP2 DUP2 SHR SWAP1 DUP3 AND DUP1 PUSH2 0x493E JUMPI PUSH1 0x7F DUP3 AND SWAP2 POP JUMPDEST PUSH1 0x20 DUP3 LT DUP2 SUB PUSH2 0x495E JUMPI PUSH4 0x4E487B71 PUSH1 0xE0 SHL PUSH1 0x0 MSTORE PUSH1 0x22 PUSH1 0x4 MSTORE PUSH1 0x24 PUSH1 0x0 REVERT JUMPDEST POP SWAP2 SWAP1 POP JUMP JUMPDEST PUSH1 0x1 PUSH1 0x1 PUSH1 0xA0 SHL SUB DUP7 AND DUP2 MSTORE PUSH1 0x0 PUSH1 0x20 DUP7 DUP2 DUP5 ADD MSTORE PUSH1 0xA0 PUSH1 0x40 DUP5 ADD MSTORE PUSH1 0x0 DUP7 SLOAD DUP2 PUSH1 0x1 DUP3 DUP2 SHR SWAP2 POP DUP1 DUP4 AND DUP1 PUSH2 0x499B JUMPI PUSH1 0x7F DUP4 AND SWAP3 POP JUMPDEST DUP6 DUP4 LT DUP2 SUB PUSH2 0x49B8 JUMPI PUSH4 0x4E487B71 PUSH1 0xE0 SHL DUP6 MSTORE PUSH1 0x22 PUSH1 0x4 MSTORE PUSH1 0x24 DUP6 REVERT JUMPDEST PUSH1 0xA0 DUP9 ADD DUP4 SWAP1 MSTORE PUSH1 0xC0 DUP9 ADD DUP2 DUP1 ISZERO PUSH2 0x49D7 JUMPI PUSH1 0x1 DUP2 EQ PUSH2 0x49ED JUMPI PUSH2 0x4A18 JUMP JUMPDEST PUSH1 0xFF NOT DUP7 AND DUP3 MSTORE DUP5 ISZERO ISZERO PUSH1 0x5 SHL DUP3 ADD SWAP7 POP PUSH2 0x4A18 JUMP JUMPDEST PUSH1 0x0 DUP14 DUP2 MSTORE PUSH1 0x20 SWAP1 KECCAK256 PUSH1 0x0 JUMPDEST DUP7 DUP2 LT ISZERO PUSH2 0x4A12 JUMPI DUP2 SLOAD DUP5 DUP3 ADD MSTORE SWAP1 DUP6 ADD SWAP1 DUP10 ADD PUSH2 0x49F9 JUMP JUMPDEST DUP4 ADD SWAP8 POP POP JUMPDEST POP POP POP POP POP PUSH1 0x60 DUP6 ADD DUP8 SWAP1 MSTORE POP DUP5 ISZERO ISZERO PUSH1 0x80 DUP6 ADD MSTORE SWAP2 POP PUSH2 0x4A36 SWAP1 POP JUMP JUMPDEST SWAP7 SWAP6 POP POP POP POP POP POP JUMP JUMPDEST PUSH1 0x0 PUSH1 0x1 DUP3 ADD PUSH2 0x4A52 JUMPI PUSH2 0x4A52 PUSH2 0x48CF JUMP JUMPDEST POP PUSH1 0x1 ADD SWAP1 JUMP JUMPDEST PUSH4 0x4E487B71 PUSH1 0xE0 SHL PUSH1 0x0 MSTORE PUSH1 0x31 PUSH1 0x4 MSTORE PUSH1 0x24 PUSH1 0x0 REVERT JUMPDEST PUSH1 0x0 DUP2 PUSH2 0x4A7E JUMPI PUSH2 0x4A7E PUSH2 0x48CF JUMP JUMPDEST POP PUSH1 0x0 NOT ADD SWAP1 JUMP JUMPDEST DUP1 DUP3 MUL DUP2 ISZERO DUP3 DUP3 DIV DUP5 EQ OR PUSH2 0x1506 JUMPI PUSH2 0x1506 PUSH2 0x48CF JUMP JUMPDEST DUP1 DUP3 ADD DUP1 DUP3 GT ISZERO PUSH2 0x1506 JUMPI PUSH2 0x1506 PUSH2 0x48CF JUMP JUMPDEST PUSH4 0x4E487B71 PUSH1 0xE0 SHL PUSH1 0x0 MSTORE PUSH1 0x12 PUSH1 0x4 MSTORE PUSH1 0x24 PUSH1 0x0 REVERT JUMPDEST PUSH1 0x0 DUP3 PUSH2 0x4AD5 JUMPI PUSH2 0x4AD5 PUSH2 0x4AB0 JUMP JUMPDEST POP DIV SWAP1 JUMP JUMPDEST PUSH1 0x0 DUP3 PUSH2 0x4AE9 JUMPI PUSH2 0x4AE9 PUSH2 0x4AB0 JUMP JUMPDEST POP MOD SWAP1 JUMP INVALID LOG2 PUSH5 0x6970667358 0x22 SLT KECCAK256 0xC 0xB3 0x5F 0xB8 EXP DUP8 0xBC 0x2C PUSH25 0xA585A2127044C2B425872C9E1608859AA44AF492DBC7526473 PUSH16 0x6C634300081300330000000000000000 "},"methodIdentifiers":{"BLOCK_PER_EPOCH()":"9b95a00d","CandidateName()":"f66d9332","CapBeforeResign()":"62fa411e","EpochsAtWhichCapChange(address,uint256)":"06d98fd0","EpochsReward(uint256)":"db49479e","ListStaker(uint256)":"a32b36ae","NUM_EPOCH_UNDER60k_TO_RESIGN()":"fa7ceeec","PENDING_STATUS()":"1c1e474e","PROPOSED_STATUS()":"8276bd19","RESIGNED_STATUS()":"0f2fe557","RemainingStakeAfterResign()":"672d58b1","StakeExchange(address)":"ace197ea","StakerRewardWithdrawState(address)":"381ecb85","StakersCapacity(uint256,address)":"abbe5f02","StakersTotalReward(address)":"9e915cb7","TotalRewardEpochFilled()":"042e1118","TotalRewardWithdrawn()":"7fe9f730","buyStake(address)":"54cf5ca2","canResign()":"b4ad4fa4","candidateStatus()":"a54f5f7b","candidateWithdrawDelay()":"d161c767","capacity()":"5cfc1a51","capacityChanges(uint256)":"34382b72","capacityHistory(uint256)":"b19ca21e","coinbaseAddr()":"567db47d","communityVote(bool)":"5a7c1f83","computeStakerRewardByEpoch(address,uint256)":"5e89c173","computeTotalStakerReward(address)":"11b65a76","confirmTeam()":"1cdacae4","currentEpoch()":"76671808","fillRewardsPerEpoch()":"2b967e6e","getCapacityByEpoch(uint256)":"466e47c4","getCurrentStakerCap(address)":"d9859744","getHardwareFee(uint256)":"28e2afbc","getHardwareFeePercentage()":"29d86d5b","getLastWithdrawEpochOfStaker(address)":"1772cfb2","getListStaker()":"2db49fbc","getRefBonus(uint256)":"c134b2f4","getRefBonusPercentage()":"ee9bf182","getReferralAddress()":"31c359fa","getRewardByEpoch(address,uint256)":"06f381aa","getStakeExchange(address)":"91141794","getStakerCapacityByEpoch(uint256,address)":"42c89561","getStakerCurrentReward(address)":"96c7944f","getStakerTotalReward(address)":"48427329","getWithdrawBlockNumbers(address)":"acc77b87","getWithdrawCap(address,uint256)":"a3af4e39","governance()":"5aa6e675","hardwareFeePercentage()":"0b896d4f","indexes(uint256)":"92f8eb94","isAlreadyWithdrawAfterResign(address,bool)":"657db4bf","isCandidateLockWithdraw()":"481b2b0f","isRequireReferralLock()":"0f8178e6","isStakeLockWithdrawn()":"ece0c459","isVoted(address)":"cbff75cb","isWithdrawAfterResignAvailable(address,bool)":"1a786586","isWithdrawn(uint256)":"c30184b7","lastEpochRewardFilled()":"ada6b16e","maxCap()":"23548b8b","propose()":"c198f8ba","referralAddress()":"15a88d22","referralPercentage()":"96ea8b9c","requireLockAmount()":"1a247222","resign()":"69652fcf","resignByTeam()":"4b1731c1","saveCapacityHistory()":"7cded514","setHardwareFeePercentage(uint256)":"a79aa45f","setLastWithdrawEpochOfStaker(address,uint256)":"c9803614","setMaxCap(uint256)":"763265de","setRefBonusPercentage(uint256)":"fed5117b","setReferralAddress(address)":"b3caba5a","setRequireLockAmount(uint256)":"9f923378","setRequireReferralLock(bool)":"d11b1327","setSellStake(uint256,uint256)":"88caed01","setTeam(address)":"095cf5c6","setWithdrawDelay(uint256,uint256)":"bd010c64","stake()":"3a4b66f1","stakerWithdrawDelay()":"7a11c3da","teamAddr()":"4a5ff749","teamAddress()":"1c75f085","transferStake(address,uint256)":"a28f8847","unstake(uint256)":"2e17de78","validator()":"3a5381b5","withdrawAfterResign(address,bool)":"2217a361","withdrawAllRewardsOfStaker(address)":"539b2bde","withdrawIndex()":"0e5ef41a","withdrawRewardStakerOneEpoch(address)":"c03f3f62","withdrawRewardStakerOneHundredEpoch(address)":"558f2b7b","withdrawStake(uint256)":"25d5971f","withdrawStakeByAnyOne(address,uint256)":"9fd10735"}}}}}