{
  "_format": "hh-sol-artifact-1",
  "contractName": "CandidateContract",
  "sourceName": "contracts/TomoPool.sol",
  "abi": [
    {
      "inputs": [
        {
          "internalType": "string",
          "name": "_candidateName",
          "type": "string"
        },
        {
          "internalType": "address",
          "name": "_coinbase",
          "type": "address"
        }
      ],
      "stateMutability": "nonpayable",
      "type": "constructor"
    },
    {
      "anonymous": false,
      "inputs": [
        {
          "indexed": false,
          "internalType": "address",
          "name": "_buyer",
          "type": "address"
        },
        {
          "indexed": false,
          "internalType": "uint256",
          "name": "_amountNormalTomo",
          "type": "uint256"
        },
        {
          "indexed": false,
          "internalType": "address",
          "name": "_seller",
          "type": "address"
        },
        {
          "indexed": false,
          "internalType": "uint256",
          "name": "_amountStakeTomo",
          "type": "uint256"
        },
        {
          "indexed": false,
          "internalType": "uint256",
          "name": "_price",
          "type": "uint256"
        }
      ],
      "name": "BuyStake",
      "type": "event"
    },
    {
      "anonymous": false,
      "inputs": [
        {
          "indexed": false,
          "internalType": "address",
          "name": "_staker",
          "type": "address"
        },
        {
          "indexed": false,
          "internalType": "uint256",
          "name": "_code",
          "type": "uint256"
        },
        {
          "indexed": false,
          "internalType": "string",
          "name": "_des",
          "type": "string"
        },
        {
          "indexed": false,
          "internalType": "uint256",
          "name": "_cap",
          "type": "uint256"
        },
        {
          "indexed": false,
          "internalType": "bool",
          "name": "_support",
          "type": "bool"
        }
      ],
      "name": "CommunityVote",
      "type": "event"
    },
    {
      "anonymous": false,
      "inputs": [
        {
          "indexed": false,
          "internalType": "uint256",
          "name": "_epoch",
          "type": "uint256"
        },
        {
          "indexed": false,
          "internalType": "uint256",
          "name": "_hardwareFeePercentage",
          "type": "uint256"
        },
        {
          "indexed": false,
          "internalType": "uint256",
          "name": "_amount",
          "type": "uint256"
        }
      ],
      "name": "PaymentHardware",
      "type": "event"
    },
    {
      "anonymous": false,
      "inputs": [
        {
          "indexed": false,
          "internalType": "uint256",
          "name": "_epoch",
          "type": "uint256"
        },
        {
          "indexed": false,
          "internalType": "uint256",
          "name": "_refPercentage",
          "type": "uint256"
        },
        {
          "indexed": false,
          "internalType": "uint256",
          "name": "_amount",
          "type": "uint256"
        }
      ],
      "name": "PaymentRef",
      "type": "event"
    },
    {
      "anonymous": false,
      "inputs": [
        {
          "indexed": false,
          "internalType": "address",
          "name": "_candidate",
          "type": "address"
        }
      ],
      "name": "Propose",
      "type": "event"
    },
    {
      "anonymous": false,
      "inputs": [
        {
          "indexed": false,
          "internalType": "address",
          "name": "_candidate",
          "type": "address"
        }
      ],
      "name": "Resign",
      "type": "event"
    },
    {
      "anonymous": false,
      "inputs": [
        {
          "indexed": false,
          "internalType": "uint256",
          "name": "_epoch",
          "type": "uint256"
        },
        {
          "indexed": false,
          "internalType": "uint256",
          "name": "_totalStaker",
          "type": "uint256"
        },
        {
          "indexed": false,
          "internalType": "uint256",
          "name": "_capacity",
          "type": "uint256"
        }
      ],
      "name": "SaveCapacityByEpoch",
      "type": "event"
    },
    {
      "anonymous": false,
      "inputs": [
        {
          "indexed": false,
          "internalType": "address",
          "name": "_staker",
          "type": "address"
        },
        {
          "indexed": false,
          "internalType": "uint256",
          "name": "_saleAmount",
          "type": "uint256"
        },
        {
          "indexed": false,
          "internalType": "uint256",
          "name": "_salePrice",
          "type": "uint256"
        }
      ],
      "name": "SetSellStake",
      "type": "event"
    },
    {
      "anonymous": false,
      "inputs": [
        {
          "indexed": false,
          "internalType": "address",
          "name": "_staker",
          "type": "address"
        },
        {
          "indexed": false,
          "internalType": "uint256",
          "name": "_amount",
          "type": "uint256"
        }
      ],
      "name": "Stake",
      "type": "event"
    },
    {
      "anonymous": false,
      "inputs": [
        {
          "indexed": false,
          "internalType": "address",
          "name": "_buyer",
          "type": "address"
        },
        {
          "indexed": false,
          "internalType": "address",
          "name": "_seller",
          "type": "address"
        },
        {
          "indexed": false,
          "internalType": "address",
          "name": "_team",
          "type": "address"
        },
        {
          "indexed": false,
          "internalType": "uint256",
          "name": "_fee",
          "type": "uint256"
        }
      ],
      "name": "TradingFee",
      "type": "event"
    },
    {
      "anonymous": false,
      "inputs": [
        {
          "indexed": false,
          "internalType": "address",
          "name": "_from",
          "type": "address"
        },
        {
          "indexed": false,
          "internalType": "address",
          "name": "_to",
          "type": "address"
        },
        {
          "indexed": false,
          "internalType": "uint256",
          "name": "_amount",
          "type": "uint256"
        }
      ],
      "name": "TransferStake",
      "type": "event"
    },
    {
      "anonymous": false,
      "inputs": [
        {
          "indexed": false,
          "internalType": "address",
          "name": "_staker",
          "type": "address"
        },
        {
          "indexed": false,
          "internalType": "uint256",
          "name": "_amount",
          "type": "uint256"
        }
      ],
      "name": "UnStake",
      "type": "event"
    },
    {
      "anonymous": false,
      "inputs": [
        {
          "indexed": false,
          "internalType": "address",
          "name": "_owner",
          "type": "address"
        },
        {
          "indexed": false,
          "internalType": "uint256",
          "name": "_blockNumber",
          "type": "uint256"
        },
        {
          "indexed": false,
          "internalType": "uint256",
          "name": "_cap",
          "type": "uint256"
        }
      ],
      "name": "Withdraw",
      "type": "event"
    },
    {
      "anonymous": false,
      "inputs": [
        {
          "indexed": false,
          "internalType": "address",
          "name": "_staker",
          "type": "address"
        },
        {
          "indexed": false,
          "internalType": "bool",
          "name": "_isStakeLocked",
          "type": "bool"
        },
        {
          "indexed": false,
          "internalType": "uint256",
          "name": "_withdrawalCap",
          "type": "uint256"
        }
      ],
      "name": "WithdrawAfterResign",
      "type": "event"
    },
    {
      "anonymous": false,
      "inputs": [
        {
          "indexed": false,
          "internalType": "address",
          "name": "_staker",
          "type": "address"
        },
        {
          "indexed": false,
          "internalType": "uint256",
          "name": "_reward",
          "type": "uint256"
        }
      ],
      "name": "WithdrawReward",
      "type": "event"
    },
    {
      "anonymous": false,
      "inputs": [
        {
          "indexed": false,
          "internalType": "address",
          "name": "_staker",
          "type": "address"
        },
        {
          "indexed": false,
          "internalType": "uint256",
          "name": "_reward",
          "type": "uint256"
        },
        {
          "indexed": false,
          "internalType": "uint256",
          "name": "_epoch",
          "type": "uint256"
        }
      ],
      "name": "WithdrawRewardPerEpoch",
      "type": "event"
    },
    {
      "inputs": [],
      "name": "BLOCK_PER_EPOCH",
      "outputs": [
        {
          "internalType": "uint256",
          "name": "",
          "type": "uint256"
        }
      ],
      "stateMutability": "view",
      "type": "function"
    },
    {
      "inputs": [],
      "name": "CandidateName",
      "outputs": [
        {
          "internalType": "string",
          "name": "",
          "type": "string"
        }
      ],
      "stateMutability": "view",
      "type": "function"
    },
    {
      "inputs": [],
      "name": "CapBeforeResign",
      "outputs": [
        {
          "internalType": "uint256",
          "name": "",
          "type": "uint256"
        }
      ],
      "stateMutability": "view",
      "type": "function"
    },
    {
      "inputs": [
        {
          "internalType": "address",
          "name": "",
          "type": "address"
        },
        {
          "internalType": "uint256",
          "name": "",
          "type": "uint256"
        }
      ],
      "name": "EpochsAtWhichCapChange",
      "outputs": [
        {
          "internalType": "uint256",
          "name": "",
          "type": "uint256"
        }
      ],
      "stateMutability": "view",
      "type": "function"
    },
    {
      "inputs": [
        {
          "internalType": "uint256",
          "name": "",
          "type": "uint256"
        }
      ],
      "name": "EpochsReward",
      "outputs": [
        {
          "internalType": "bool",
          "name": "IsRewardPaid",
          "type": "bool"
        },
        {
          "internalType": "uint256",
          "name": "rewards",
          "type": "uint256"
        },
        {
          "internalType": "uint256",
          "name": "actualRewards",
          "type": "uint256"
        }
      ],
      "stateMutability": "view",
      "type": "function"
    },
    {
      "inputs": [
        {
          "internalType": "uint256",
          "name": "",
          "type": "uint256"
        }
      ],
      "name": "ListStaker",
      "outputs": [
        {
          "internalType": "address",
          "name": "",
          "type": "address"
        }
      ],
      "stateMutability": "view",
      "type": "function"
    },
    {
      "inputs": [],
      "name": "NUM_EPOCH_UNDER60k_TO_RESIGN",
      "outputs": [
        {
          "internalType": "uint256",
          "name": "",
          "type": "uint256"
        }
      ],
      "stateMutability": "view",
      "type": "function"
    },
    {
      "inputs": [],
      "name": "PENDING_STATUS",
      "outputs": [
        {
          "internalType": "uint256",
          "name": "",
          "type": "uint256"
        }
      ],
      "stateMutability": "view",
      "type": "function"
    },
    {
      "inputs": [],
      "name": "PROPOSED_STATUS",
      "outputs": [
        {
          "internalType": "uint256",
          "name": "",
          "type": "uint256"
        }
      ],
      "stateMutability": "view",
      "type": "function"
    },
    {
      "inputs": [],
      "name": "RESIGNED_STATUS",
      "outputs": [
        {
          "internalType": "uint256",
          "name": "",
          "type": "uint256"
        }
      ],
      "stateMutability": "view",
      "type": "function"
    },
    {
      "inputs": [],
      "name": "RemainingStakeAfterResign",
      "outputs": [
        {
          "internalType": "uint256",
          "name": "",
          "type": "uint256"
        }
      ],
      "stateMutability": "view",
      "type": "function"
    },
    {
      "inputs": [
        {
          "internalType": "address",
          "name": "",
          "type": "address"
        }
      ],
      "name": "StakeExchange",
      "outputs": [
        {
          "internalType": "bool",
          "name": "isForSale",
          "type": "bool"
        },
        {
          "internalType": "uint256",
          "name": "sellStakePrice",
          "type": "uint256"
        },
        {
          "internalType": "uint256",
          "name": "amountForSale",
          "type": "uint256"
        }
      ],
      "stateMutability": "view",
      "type": "function"
    },
    {
      "inputs": [
        {
          "internalType": "address",
          "name": "",
          "type": "address"
        }
      ],
      "name": "StakerRewardWithdrawState",
      "outputs": [
        {
          "internalType": "uint256",
          "name": "",
          "type": "uint256"
        }
      ],
      "stateMutability": "view",
      "type": "function"
    },
    {
      "inputs": [
        {
          "internalType": "uint256",
          "name": "",
          "type": "uint256"
        },
        {
          "internalType": "address",
          "name": "",
          "type": "address"
        }
      ],
      "name": "StakersCapacity",
      "outputs": [
        {
          "internalType": "uint256",
          "name": "",
          "type": "uint256"
        }
      ],
      "stateMutability": "view",
      "type": "function"
    },
    {
      "inputs": [
        {
          "internalType": "address",
          "name": "",
          "type": "address"
        }
      ],
      "name": "StakersTotalReward",
      "outputs": [
        {
          "internalType": "uint256",
          "name": "",
          "type": "uint256"
        }
      ],
      "stateMutability": "view",
      "type": "function"
    },
    {
      "inputs": [],
      "name": "TotalRewardEpochFilled",
      "outputs": [
        {
          "internalType": "uint256",
          "name": "",
          "type": "uint256"
        }
      ],
      "stateMutability": "view",
      "type": "function"
    },
    {
      "inputs": [],
      "name": "TotalRewardWithdrawn",
      "outputs": [
        {
          "internalType": "uint256",
          "name": "",
          "type": "uint256"
        }
      ],
      "stateMutability": "view",
      "type": "function"
    },
    {
      "inputs": [
        {
          "internalType": "address payable",
          "name": "_sellStaker",
          "type": "address"
        }
      ],
      "name": "buyStake",
      "outputs": [],
      "stateMutability": "payable",
      "type": "function"
    },
    {
      "inputs": [],
      "name": "canResign",
      "outputs": [
        {
          "internalType": "bool",
          "name": "",
          "type": "bool"
        }
      ],
      "stateMutability": "view",
      "type": "function"
    },
    {
      "inputs": [],
      "name": "candidateStatus",
      "outputs": [
        {
          "internalType": "uint256",
          "name": "",
          "type": "uint256"
        }
      ],
      "stateMutability": "view",
      "type": "function"
    },
    {
      "inputs": [],
      "name": "candidateWithdrawDelay",
      "outputs": [
        {
          "internalType": "uint256",
          "name": "",
          "type": "uint256"
        }
      ],
      "stateMutability": "view",
      "type": "function"
    },
    {
      "inputs": [],
      "name": "capacity",
      "outputs": [
        {
          "internalType": "uint256",
          "name": "",
          "type": "uint256"
        }
      ],
      "stateMutability": "view",
      "type": "function"
    },
    {
      "inputs": [
        {
          "internalType": "uint256",
          "name": "",
          "type": "uint256"
        }
      ],
      "name": "capacityChanges",
      "outputs": [
        {
          "internalType": "uint256",
          "name": "",
          "type": "uint256"
        }
      ],
      "stateMutability": "view",
      "type": "function"
    },
    {
      "inputs": [
        {
          "internalType": "uint256",
          "name": "",
          "type": "uint256"
        }
      ],
      "name": "capacityHistory",
      "outputs": [
        {
          "internalType": "uint256",
          "name": "",
          "type": "uint256"
        }
      ],
      "stateMutability": "view",
      "type": "function"
    },
    {
      "inputs": [],
      "name": "coinbaseAddr",
      "outputs": [
        {
          "internalType": "address",
          "name": "",
          "type": "address"
        }
      ],
      "stateMutability": "view",
      "type": "function"
    },
    {
      "inputs": [
        {
          "internalType": "bool",
          "name": "support",
          "type": "bool"
        }
      ],
      "name": "communityVote",
      "outputs": [],
      "stateMutability": "nonpayable",
      "type": "function"
    },
    {
      "inputs": [
        {
          "internalType": "address",
          "name": "_staker",
          "type": "address"
        },
        {
          "internalType": "uint256",
          "name": "_epoch",
          "type": "uint256"
        }
      ],
      "name": "computeStakerRewardByEpoch",
      "outputs": [
        {
          "internalType": "uint256",
          "name": "",
          "type": "uint256"
        },
        {
          "internalType": "uint256",
          "name": "",
          "type": "uint256"
        }
      ],
      "stateMutability": "view",
      "type": "function"
    },
    {
      "inputs": [
        {
          "internalType": "address",
          "name": "_staker",
          "type": "address"
        }
      ],
      "name": "computeTotalStakerReward",
      "outputs": [
        {
          "internalType": "uint256",
          "name": "",
          "type": "uint256"
        }
      ],
      "stateMutability": "view",
      "type": "function"
    },
    {
      "inputs": [],
      "name": "confirmTeam",
      "outputs": [],
      "stateMutability": "nonpayable",
      "type": "function"
    },
    {
      "inputs": [],
      "name": "currentEpoch",
      "outputs": [
        {
          "internalType": "uint256",
          "name": "",
          "type": "uint256"
        }
      ],
      "stateMutability": "view",
      "type": "function"
    },
    {
      "inputs": [],
      "name": "fillRewardsPerEpoch",
      "outputs": [],
      "stateMutability": "nonpayable",
      "type": "function"
    },
    {
      "inputs": [
        {
          "internalType": "uint256",
          "name": "epoch",
          "type": "uint256"
        }
      ],
      "name": "getCapacityByEpoch",
      "outputs": [
        {
          "internalType": "uint256",
          "name": "",
          "type": "uint256"
        }
      ],
      "stateMutability": "view",
      "type": "function"
    },
    {
      "inputs": [
        {
          "internalType": "address",
          "name": "staker",
          "type": "address"
        }
      ],
      "name": "getCurrentStakerCap",
      "outputs": [
        {
          "internalType": "uint256",
          "name": "",
          "type": "uint256"
        }
      ],
      "stateMutability": "view",
      "type": "function"
    },
    {
      "inputs": [
        {
          "internalType": "uint256",
          "name": "_reward",
          "type": "uint256"
        }
      ],
      "name": "getHardwareFee",
      "outputs": [
        {
          "internalType": "uint256",
          "name": "",
          "type": "uint256"
        }
      ],
      "stateMutability": "view",
      "type": "function"
    },
    {
      "inputs": [],
      "name": "getHardwareFeePercentage",
      "outputs": [
        {
          "internalType": "uint256",
          "name": "",
          "type": "uint256"
        }
      ],
      "stateMutability": "view",
      "type": "function"
    },
    {
      "inputs": [
        {
          "internalType": "address",
          "name": "_staker",
          "type": "address"
        }
      ],
      "name": "getLastWithdrawEpochOfStaker",
      "outputs": [
        {
          "internalType": "uint256",
          "name": "",
          "type": "uint256"
        }
      ],
      "stateMutability": "view",
      "type": "function"
    },
    {
      "inputs": [],
      "name": "getListStaker",
      "outputs": [
        {
          "internalType": "address[]",
          "name": "",
          "type": "address[]"
        }
      ],
      "stateMutability": "view",
      "type": "function"
    },
    {
      "inputs": [
        {
          "internalType": "uint256",
          "name": "_reward",
          "type": "uint256"
        }
      ],
      "name": "getRefBonus",
      "outputs": [
        {
          "internalType": "uint256",
          "name": "",
          "type": "uint256"
        }
      ],
      "stateMutability": "view",
      "type": "function"
    },
    {
      "inputs": [],
      "name": "getRefBonusPercentage",
      "outputs": [
        {
          "internalType": "uint256",
          "name": "",
          "type": "uint256"
        }
      ],
      "stateMutability": "view",
      "type": "function"
    },
    {
      "inputs": [],
      "name": "getReferralAddress",
      "outputs": [
        {
          "internalType": "address payable",
          "name": "",
          "type": "address"
        }
      ],
      "stateMutability": "view",
      "type": "function"
    },
    {
      "inputs": [
        {
          "internalType": "address",
          "name": "_staker",
          "type": "address"
        },
        {
          "internalType": "uint256",
          "name": "_epoch",
          "type": "uint256"
        }
      ],
      "name": "getRewardByEpoch",
      "outputs": [
        {
          "internalType": "uint256",
          "name": "",
          "type": "uint256"
        }
      ],
      "stateMutability": "view",
      "type": "function"
    },
    {
      "inputs": [
        {
          "internalType": "address",
          "name": "_addr",
          "type": "address"
        }
      ],
      "name": "getStakeExchange",
      "outputs": [
        {
          "internalType": "bool",
          "name": "",
          "type": "bool"
        },
        {
          "internalType": "uint256",
          "name": "",
          "type": "uint256"
        },
        {
          "internalType": "uint256",
          "name": "",
          "type": "uint256"
        }
      ],
      "stateMutability": "view",
      "type": "function"
    },
    {
      "inputs": [
        {
          "internalType": "uint256",
          "name": "epoch",
          "type": "uint256"
        },
        {
          "internalType": "address",
          "name": "addr",
          "type": "address"
        }
      ],
      "name": "getStakerCapacityByEpoch",
      "outputs": [
        {
          "internalType": "uint256",
          "name": "",
          "type": "uint256"
        }
      ],
      "stateMutability": "view",
      "type": "function"
    },
    {
      "inputs": [
        {
          "internalType": "address",
          "name": "_staker",
          "type": "address"
        }
      ],
      "name": "getStakerCurrentReward",
      "outputs": [
        {
          "internalType": "uint256",
          "name": "",
          "type": "uint256"
        }
      ],
      "stateMutability": "view",
      "type": "function"
    },
    {
      "inputs": [
        {
          "internalType": "address",
          "name": "_staker",
          "type": "address"
        }
      ],
      "name": "getStakerTotalReward",
      "outputs": [
        {
          "internalType": "uint256",
          "name": "",
          "type": "uint256"
        }
      ],
      "stateMutability": "view",
      "type": "function"
    },
    {
      "inputs": [
        {
          "internalType": "address",
          "name": "_staker",
          "type": "address"
        }
      ],
      "name": "getWithdrawBlockNumbers",
      "outputs": [
        {
          "internalType": "uint256[]",
          "name": "",
          "type": "uint256[]"
        }
      ],
      "stateMutability": "view",
      "type": "function"
    },
    {
      "inputs": [
        {
          "internalType": "address",
          "name": "_staker",
          "type": "address"
        },
        {
          "internalType": "uint256",
          "name": "_blockNumber",
          "type": "uint256"
        }
      ],
      "name": "getWithdrawCap",
      "outputs": [
        {
          "internalType": "uint256",
          "name": "",
          "type": "uint256"
        }
      ],
      "stateMutability": "view",
      "type": "function"
    },
    {
      "inputs": [],
      "name": "governance",
      "outputs": [
        {
          "internalType": "string",
          "name": "description",
          "type": "string"
        },
        {
          "internalType": "uint256",
          "name": "supportCap",
          "type": "uint256"
        },
        {
          "internalType": "uint256",
          "name": "epochStart",
          "type": "uint256"
        }
      ],
      "stateMutability": "view",
      "type": "function"
    },
    {
      "inputs": [],
      "name": "hardwareFeePercentage",
      "outputs": [
        {
          "internalType": "uint256",
          "name": "",
          "type": "uint256"
        }
      ],
      "stateMutability": "view",
      "type": "function"
    },
    {
      "inputs": [
        {
          "internalType": "uint256",
          "name": "",
          "type": "uint256"
        }
      ],
      "name": "indexes",
      "outputs": [
        {
          "internalType": "uint256",
          "name": "",
          "type": "uint256"
        }
      ],
      "stateMutability": "view",
      "type": "function"
    },
    {
      "inputs": [
        {
          "internalType": "address",
          "name": "_staker",
          "type": "address"
        },
        {
          "internalType": "bool",
          "name": "checkStakeLock",
          "type": "bool"
        }
      ],
      "name": "isAlreadyWithdrawAfterResign",
      "outputs": [
        {
          "internalType": "bool",
          "name": "",
          "type": "bool"
        }
      ],
      "stateMutability": "view",
      "type": "function"
    },
    {
      "inputs": [],
      "name": "isCandidateLockWithdraw",
      "outputs": [
        {
          "internalType": "bool",
          "name": "",
          "type": "bool"
        }
      ],
      "stateMutability": "view",
      "type": "function"
    },
    {
      "inputs": [],
      "name": "isRequireReferralLock",
      "outputs": [
        {
          "internalType": "bool",
          "name": "",
          "type": "bool"
        }
      ],
      "stateMutability": "view",
      "type": "function"
    },
    {
      "inputs": [],
      "name": "isStakeLockWithdrawn",
      "outputs": [
        {
          "internalType": "bool",
          "name": "",
          "type": "bool"
        }
      ],
      "stateMutability": "view",
      "type": "function"
    },
    {
      "inputs": [
        {
          "internalType": "address",
          "name": "_staker",
          "type": "address"
        }
      ],
      "name": "isVoted",
      "outputs": [
        {
          "internalType": "bool",
          "name": "",
          "type": "bool"
        }
      ],
      "stateMutability": "view",
      "type": "function"
    },
    {
      "inputs": [
        {
          "internalType": "address",
          "name": "_staker",
          "type": "address"
        },
        {
          "internalType": "bool",
          "name": "checkStakeLock",
          "type": "bool"
        }
      ],
      "name": "isWithdrawAfterResignAvailable",
      "outputs": [
        {
          "internalType": "bool",
          "name": "",
          "type": "bool"
        }
      ],
      "stateMutability": "view",
      "type": "function"
    },
    {
      "inputs": [
        {
          "internalType": "uint256",
          "name": "_blockNumber",
          "type": "uint256"
        }
      ],
      "name": "isWithdrawn",
      "outputs": [
        {
          "internalType": "bool",
          "name": "",
          "type": "bool"
        }
      ],
      "stateMutability": "view",
      "type": "function"
    },
    {
      "inputs": [],
      "name": "lastEpochRewardFilled",
      "outputs": [
        {
          "internalType": "uint256",
          "name": "",
          "type": "uint256"
        }
      ],
      "stateMutability": "view",
      "type": "function"
    },
    {
      "inputs": [],
      "name": "maxCap",
      "outputs": [
        {
          "internalType": "uint256",
          "name": "",
          "type": "uint256"
        }
      ],
      "stateMutability": "view",
      "type": "function"
    },
    {
      "inputs": [],
      "name": "propose",
      "outputs": [],
      "stateMutability": "nonpayable",
      "type": "function"
    },
    {
      "inputs": [],
      "name": "referralAddress",
      "outputs": [
        {
          "internalType": "address payable",
          "name": "",
          "type": "address"
        }
      ],
      "stateMutability": "view",
      "type": "function"
    },
    {
      "inputs": [],
      "name": "referralPercentage",
      "outputs": [
        {
          "internalType": "uint256",
          "name": "",
          "type": "uint256"
        }
      ],
      "stateMutability": "view",
      "type": "function"
    },
    {
      "inputs": [],
      "name": "requireLockAmount",
      "outputs": [
        {
          "internalType": "uint256",
          "name": "",
          "type": "uint256"
        }
      ],
      "stateMutability": "view",
      "type": "function"
    },
    {
      "inputs": [],
      "name": "resign",
      "outputs": [],
      "stateMutability": "nonpayable",
      "type": "function"
    },
    {
      "inputs": [],
      "name": "resignByTeam",
      "outputs": [],
      "stateMutability": "nonpayable",
      "type": "function"
    },
    {
      "inputs": [],
      "name": "saveCapacityHistory",
      "outputs": [],
      "stateMutability": "nonpayable",
      "type": "function"
    },
    {
      "inputs": [
        {
          "internalType": "uint256",
          "name": "_hardwareFee",
          "type": "uint256"
        }
      ],
      "name": "setHardwareFeePercentage",
      "outputs": [],
      "stateMutability": "nonpayable",
      "type": "function"
    },
    {
      "inputs": [
        {
          "internalType": "address",
          "name": "_staker",
          "type": "address"
        },
        {
          "internalType": "uint256",
          "name": "_epochNumber",
          "type": "uint256"
        }
      ],
      "name": "setLastWithdrawEpochOfStaker",
      "outputs": [],
      "stateMutability": "nonpayable",
      "type": "function"
    },
    {
      "inputs": [
        {
          "internalType": "uint256",
          "name": "_maxCap",
          "type": "uint256"
        }
      ],
      "name": "setMaxCap",
      "outputs": [],
      "stateMutability": "nonpayable",
      "type": "function"
    },
    {
      "inputs": [
        {
          "internalType": "uint256",
          "name": "_bonus",
          "type": "uint256"
        }
      ],
      "name": "setRefBonusPercentage",
      "outputs": [],
      "stateMutability": "nonpayable",
      "type": "function"
    },
    {
      "inputs": [
        {
          "internalType": "address payable",
          "name": "_r",
          "type": "address"
        }
      ],
      "name": "setReferralAddress",
      "outputs": [],
      "stateMutability": "nonpayable",
      "type": "function"
    },
    {
      "inputs": [
        {
          "internalType": "uint256",
          "name": "_amount",
          "type": "uint256"
        }
      ],
      "name": "setRequireLockAmount",
      "outputs": [],
      "stateMutability": "nonpayable",
      "type": "function"
    },
    {
      "inputs": [
        {
          "internalType": "bool",
          "name": "_lock",
          "type": "bool"
        }
      ],
      "name": "setRequireReferralLock",
      "outputs": [],
      "stateMutability": "nonpayable",
      "type": "function"
    },
    {
      "inputs": [
        {
          "internalType": "uint256",
          "name": "_amount",
          "type": "uint256"
        },
        {
          "internalType": "uint256",
          "name": "_price",
          "type": "uint256"
        }
      ],
      "name": "setSellStake",
      "outputs": [],
      "stateMutability": "nonpayable",
      "type": "function"
    },
    {
      "inputs": [
        {
          "internalType": "address payable",
          "name": "_team",
          "type": "address"
        }
      ],
      "name": "setTeam",
      "outputs": [],
      "stateMutability": "nonpayable",
      "type": "function"
    },
    {
      "inputs": [
        {
          "internalType": "uint256",
          "name": "_stake",
          "type": "uint256"
        },
        {
          "internalType": "uint256",
          "name": "_candidate",
          "type": "uint256"
        }
      ],
      "name": "setWithdrawDelay",
      "outputs": [],
      "stateMutability": "nonpayable",
      "type": "function"
    },
    {
      "inputs": [],
      "name": "stake",
      "outputs": [],
      "stateMutability": "payable",
      "type": "function"
    },
    {
      "inputs": [],
      "name": "stakerWithdrawDelay",
      "outputs": [
        {
          "internalType": "uint256",
          "name": "",
          "type": "uint256"
        }
      ],
      "stateMutability": "view",
      "type": "function"
    },
    {
      "inputs": [],
      "name": "teamAddr",
      "outputs": [
        {
          "internalType": "address payable",
          "name": "",
          "type": "address"
        }
      ],
      "stateMutability": "view",
      "type": "function"
    },
    {
      "inputs": [],
      "name": "teamAddress",
      "outputs": [
        {
          "internalType": "address payable",
          "name": "",
          "type": "address"
        }
      ],
      "stateMutability": "view",
      "type": "function"
    },
    {
      "inputs": [
        {
          "internalType": "address",
          "name": "to",
          "type": "address"
        },
        {
          "internalType": "uint256",
          "name": "_amount",
          "type": "uint256"
        }
      ],
      "name": "transferStake",
      "outputs": [],
      "stateMutability": "nonpayable",
      "type": "function"
    },
    {
      "inputs": [
        {
          "internalType": "uint256",
          "name": "_amount",
          "type": "uint256"
        }
      ],
      "name": "unstake",
      "outputs": [],
      "stateMutability": "nonpayable",
      "type": "function"
    },
    {
      "inputs": [],
      "name": "validator",
      "outputs": [
        {
          "internalType": "address payable",
          "name": "",
          "type": "address"
        }
      ],
      "stateMutability": "view",
      "type": "function"
    },
    {
      "inputs": [
        {
          "internalType": "address payable",
          "name": "_staker",
          "type": "address"
        },
        {
          "internalType": "bool",
          "name": "checkStakeLock",
          "type": "bool"
        }
      ],
      "name": "withdrawAfterResign",
      "outputs": [],
      "stateMutability": "nonpayable",
      "type": "function"
    },
    {
      "inputs": [
        {
          "internalType": "address payable",
          "name": "_staker",
          "type": "address"
        }
      ],
      "name": "withdrawAllRewardsOfStaker",
      "outputs": [],
      "stateMutability": "nonpayable",
      "type": "function"
    },
    {
      "inputs": [],
      "name": "withdrawIndex",
      "outputs": [
        {
          "internalType": "uint256",
          "name": "",
          "type": "uint256"
        }
      ],
      "stateMutability": "view",
      "type": "function"
    },
    {
      "inputs": [
        {
          "internalType": "address payable",
          "name": "_staker",
          "type": "address"
        }
      ],
      "name": "withdrawRewardStakerOneEpoch",
      "outputs": [],
      "stateMutability": "nonpayable",
      "type": "function"
    },
    {
      "inputs": [
        {
          "internalType": "address payable",
          "name": "_staker",
          "type": "address"
        }
      ],
      "name": "withdrawRewardStakerOneHundredEpoch",
      "outputs": [],
      "stateMutability": "nonpayable",
      "type": "function"
    },
    {
      "inputs": [
        {
          "internalType": "uint256",
          "name": "_blockNumber",
          "type": "uint256"
        }
      ],
      "name": "withdrawStake",
      "outputs": [],
      "stateMutability": "nonpayable",
      "type": "function"
    },
    {
      "inputs": [
        {
          "internalType": "address payable",
          "name": "_staker",
          "type": "address"
        },
        {
          "internalType": "uint256",
          "name": "_blockNumber",
          "type": "uint256"
        }
      ],
      "name": "withdrawStakeByAnyOne",
      "outputs": [],
      "stateMutability": "nonpayable",
      "type": "function"
    },
    {
      "stateMutability": "payable",
      "type": "receive"
    }
  ],
  "bytecode": "0x60806040526934f086f3b33b684000006005556200002161038460606200020c565b600655620000346103846105a06200020c565b60075560006009819055600a819055600f600b556001600c819055600d8290556101e0600e5560158290556016805461ffff1916905560178290556021919091556023805460ff1916909117905569054b40b1f852bda000006024553480156200009d57600080fd5b506040516200502a3803806200502a833981016040819052620000c09162000259565b6000620000ce8382620003d0565b50600180546001600160a01b0319166001600160a01b0383161781556002556000600855620000fc62000161565b602090815560408051808201909152601481527f566f74696e6720666f722072657369676e696e6700000000000000000000000091810191909152601d90620001469082620003d0565b5050600480546001600160a01b0319163317905550620004f6565b600062000189610384620001826200017a43836200018e565b4390620001b3565b90620001d9565b905090565b6000816000036200019e57600080fd5b620001aa8284620004b2565b90505b92915050565b600082821115620001c357600080fd5b6000620001d18385620004c9565b949350505050565b6000808211620001e857600080fd5b6000620001d18385620004df565b634e487b7160e01b600052601160045260246000fd5b8082028115828204841417620001ad57620001ad620001f6565b634e487b7160e01b600052604160045260246000fd5b80516001600160a01b03811681146200025457600080fd5b919050565b600080604083850312156200026d57600080fd5b82516001600160401b03808211156200028557600080fd5b818501915085601f8301126200029a57600080fd5b815181811115620002af57620002af62000226565b604051601f8201601f19908116603f01168101908382118183101715620002da57620002da62000226565b81604052828152602093508884848701011115620002f757600080fd5b600091505b828210156200031b5784820184015181830185015290830190620002fc565b6000848483010152809650505050620003368186016200023c565b925050509250929050565b600181811c908216806200035657607f821691505b6020821081036200037757634e487b7160e01b600052602260045260246000fd5b50919050565b601f821115620003cb57600081815260208120601f850160051c81016020861015620003a65750805b601f850160051c820191505b81811015620003c757828155600101620003b2565b5050505b505050565b81516001600160401b03811115620003ec57620003ec62000226565b6200040481620003fd845462000341565b846200037d565b602080601f8311600181146200043c5760008415620004235750858301515b600019600386901b1c1916600185901b178555620003c7565b600085815260208120601f198616915b828110156200046d578886015182559484019460019091019084016200044c565b50858210156200048c5787850151600019600388901b60f8161c191681555b5050505050600190811b01905550565b634e487b7160e01b600052601260045260246000fd5b600082620004c457620004c46200049c565b500690565b81810381811115620001ad57620001ad620001f6565b600082620004f157620004f16200049c565b500490565b614b2480620005066000396000f3fe6080604052600436106105e55760003560e01c8063672d58b111610301578063abbe5f021161019a578063c30184b7116100ec578063db49479e11610095578063f66d93321161006f578063f66d9332146110f9578063fa7ceeec1461111b578063fed5117b1461113157600080fd5b8063db49479e1461108a578063ece0c459146110ca578063ee9bf182146110e457600080fd5b8063d11b1327116100c6578063d11b132714611034578063d161c76714611054578063d98597441461106a57600080fd5b8063c30184b714610fc6578063c980361414610ff4578063cbff75cb1461101457600080fd5b8063b3caba5a1161014e578063c03f3f6211610128578063c03f3f6214610f71578063c134b2f414610f91578063c198f8ba14610fb157600080fd5b8063b3caba5a14610f1c578063b4ad4fa414610f3c578063bd010c6414610f5157600080fd5b8063ace197ea1161017f578063ace197ea14610e99578063ada6b16e14610ed9578063b19ca21e14610eef57600080fd5b8063abbe5f0214610e34578063acc77b8714610e6c57600080fd5b806396c7944f116102535780639fd1073511610207578063a3af4e39116101e1578063a3af4e3914610db7578063a54f5f7b14610dfe578063a79aa45f14610e1457600080fd5b80639fd1073514610d57578063a28f884714610d77578063a32b36ae14610d9757600080fd5b80639b95a00d116102385780639b95a00d14610cf45780639e915cb714610d0a5780639f92337814610d3757600080fd5b806396c7944f14610cbe57806396ea8b9c14610cde57600080fd5b80637cded514116102b557806388caed011161028f57806388caed0114610c0d5780639114179414610c2d57806392f8eb9414610c9157600080fd5b80637cded51414610bcd5780637fe9f73014610be25780638276bd1914610bf857600080fd5b8063763265de116102e6578063763265de14610b825780637667180814610ba25780637a11c3da14610bb757600080fd5b8063672d58b114610b5757806369652fcf14610b6d57600080fd5b80632db49fbc1161047e5780634a5ff749116103d05780635a7c1f83116103795780635e89c173116103535780635e89c17314610aec57806362fa411e14610b21578063657db4bf14610b3757600080fd5b80635a7c1f8314610a925780635aa6e67514610ab25780635cfc1a5114610ad657600080fd5b806354cf5ca2116103aa57806354cf5ca214610a3f578063558f2b7b14610a52578063567db47d14610a7257600080fd5b80634a5ff749146109ea5780634b1731c114610a0a578063539b2bde14610a1f57600080fd5b80633a4b66f111610432578063466e47c41161040c578063466e47c414610975578063481b2b0f1461099557806348427329146109b457600080fd5b80633a4b66f1146109385780633a5381b51461094057806342c895611461095557600080fd5b806331c359fa1161046357806331c359fa146108cd57806334382b72146108eb578063381ecb851461090b57600080fd5b80632db49fbc1461088b5780632e17de78146108ad57600080fd5b80631a247222116105375780632217a361116104eb57806328e2afbc116104c557806328e2afbc1461084157806329d86d5b146108615780632b967e6e1461087657600080fd5b80632217a361146107eb57806323548b8b1461080b57806325d5971f1461082157600080fd5b80631c1e474e1161051c5780631c1e474e146107a35780631c75f085146107b85780631cdacae4146107d657600080fd5b80631a2472221461076d5780631a7865861461078357600080fd5b80630e5ef41a1161059957806311b65a761161057357806311b65a76146106f557806315a88d22146107155780631772cfb21461074d57600080fd5b80630e5ef41a146106a05780630f2fe557146106b65780630f8178e6146106cb57600080fd5b806306f381aa116105ca57806306f381aa1461064a578063095cf5c61461066a5780630b896d4f1461068a57600080fd5b8063042e11181461060157806306d98fd01461062a57600080fd5b366105fc57336088146105fa576105fa611151565b005b600080fd5b34801561060d57600080fd5b50610617600a5481565b6040519081526020015b60405180910390f35b34801561063657600080fd5b506106176106453660046146a9565b6114c3565b34801561065657600080fd5b506106176106653660046146a9565b6114f4565b34801561067657600080fd5b506105fa6106853660046146d5565b61150c565b34801561069657600080fd5b50610617600b5481565b3480156106ac57600080fd5b50610617600c5481565b3480156106c257600080fd5b50610617606481565b3480156106d757600080fd5b506023546106e59060ff1681565b6040519015158152602001610621565b34801561070157600080fd5b506106176107103660046146d5565b611554565b34801561072157600080fd5b50600354610735906001600160a01b031681565b6040516001600160a01b039091168152602001610621565b34801561075957600080fd5b506106176107683660046146d5565b6115dc565b34801561077957600080fd5b5061061760245481565b34801561078f57600080fd5b506106e561079e366004614707565b611640565b3480156107af57600080fd5b50610617600181565b3480156107c457600080fd5b506004546001600160a01b0316610735565b3480156107e257600080fd5b506105fa6116be565b3480156107f757600080fd5b506105fa610806366004614707565b6116f9565b34801561081757600080fd5b5061061760055481565b34801561082d57600080fd5b506105fa61083c36600461473c565b611b6c565b34801561084d57600080fd5b5061061761085c36600461473c565b611d59565b34801561086d57600080fd5b50600b54610617565b34801561088257600080fd5b506105fa611d6d565b34801561089757600080fd5b506108a0611eae565b6040516106219190614755565b3480156108b957600080fd5b506105fa6108c836600461473c565b611f10565b3480156108d957600080fd5b506003546001600160a01b0316610735565b3480156108f757600080fd5b5061061761090636600461473c565b6125b0565b34801561091757600080fd5b506106176109263660046146d5565b60116020526000908152604090205481565b6105fa611151565b34801561094c57600080fd5b50610735608881565b34801561096157600080fd5b506106176109703660046147a2565b6125d1565b34801561098157600080fd5b5061061761099036600461473c565b6126f1565b3480156109a157600080fd5b506016546106e590610100900460ff1681565b3480156109c057600080fd5b506106176109cf3660046146d5565b6001600160a01b031660009081526012602052604090205490565b3480156109f657600080fd5b50600454610735906001600160a01b031681565b348015610a1657600080fd5b506105fa61277d565b348015610a2b57600080fd5b506105fa610a3a3660046146d5565b6127ad565b6105fa610a4d3660046146d5565b6128ff565b348015610a5e57600080fd5b506105fa610a6d3660046146d5565b612c95565b348015610a7e57600080fd5b50600154610735906001600160a01b031681565b348015610a9e57600080fd5b506105fa610aad3660046147d2565b612e10565b348015610abe57600080fd5b50610ac7612ef7565b6040516106219392919061483d565b348015610ae257600080fd5b5061061760185481565b348015610af857600080fd5b50610b0c610b073660046146a9565b612f95565b60408051928352602083019190915201610621565b348015610b2d57600080fd5b5061061760155481565b348015610b4357600080fd5b506106e5610b52366004614707565b6130b7565b348015610b6357600080fd5b5061061760175481565b348015610b7957600080fd5b506105fa613116565b348015610b8e57600080fd5b506105fa610b9d36600461473c565b613163565b348015610bae57600080fd5b5061061761318e565b348015610bc357600080fd5b5061061760065481565b348015610bd957600080fd5b506105fa6131af565b348015610bee57600080fd5b5061061760095481565b348015610c0457600080fd5b50610617600a81565b348015610c1957600080fd5b506105fa610c28366004614862565b6132bd565b348015610c3957600080fd5b50610c74610c483660046146d5565b6001600160a01b031660009081526022602052604090208054600182015460029092015460ff90911692565b604080519315158452602084019290925290820152606001610621565b348015610c9d57600080fd5b50610617610cac36600461473c565b600f6020526000908152604090205481565b348015610cca57600080fd5b50610617610cd93660046146d5565b61338e565b348015610cea57600080fd5b50610617600d5481565b348015610d0057600080fd5b5061061761038481565b348015610d1657600080fd5b50610617610d253660046146d5565b60126020526000908152604090205481565b348015610d4357600080fd5b506105fa610d5236600461473c565b61339c565b348015610d6357600080fd5b506105fa610d723660046146a9565b6133c7565b348015610d8357600080fd5b506105fa610d923660046146a9565b6135d9565b348015610da357600080fd5b50610735610db236600461473c565b613635565b348015610dc357600080fd5b50610617610dd23660046146a9565b6001600160a01b0391909116600090815260106020908152604080832093835260019093019052205490565b348015610e0a57600080fd5b5061061760025481565b348015610e2057600080fd5b506105fa610e2f36600461473c565b61365f565b348015610e4057600080fd5b50610617610e4f3660046147a2565b601360209081526000928352604080842090915290825290205481565b348015610e7857600080fd5b50610e8c610e873660046146d5565b613698565b6040516106219190614884565b348015610ea557600080fd5b50610c74610eb43660046146d5565b60226020526000908152604090208054600182015460029092015460ff909116919083565b348015610ee557600080fd5b5061061760085481565b348015610efb57600080fd5b50610617610f0a36600461473c565b60196020526000908152604090205481565b348015610f2857600080fd5b506105fa610f373660046146d5565b613707565b348015610f4857600080fd5b506106e561374f565b348015610f5d57600080fd5b506105fa610f6c366004614862565b613776565b348015610f7d57600080fd5b506105fa610f8c3660046146d5565b6137a4565b348015610f9d57600080fd5b50610617610fac36600461473c565b613927565b348015610fbd57600080fd5b506105fa61393b565b348015610fd257600080fd5b506106e5610fe136600461473c565b6000908152600f60205260409020541590565b34801561100057600080fd5b506105fa61100f3660046146a9565b613ab8565b34801561102057600080fd5b506106e561102f3660046146d5565b613afa565b34801561104057600080fd5b506105fa61104f3660046147d2565b613b42565b34801561106057600080fd5b5061061760075481565b34801561107657600080fd5b506106176110853660046146d5565b613b7b565b34801561109657600080fd5b50610c746110a536600461473c565b601c6020526000908152604090208054600182015460029092015460ff909116919083565b3480156110d657600080fd5b506016546106e59060ff1681565b3480156110f057600080fd5b50600d54610617565b34801561110557600080fd5b5061110e613b8e565b60405161062191906148bc565b34801561112757600080fd5b50610617600e5481565b34801561113d57600080fd5b506105fa61114c36600461473c565b613c1c565b3460055461116a82601854613c5590919063ffffffff16565b111561117557600080fd5b60235460ff16156111a357602454600354611198906001600160a01b0316613b7b565b10156111a357600080fd5b6064600254106111b257600080fd5b6111bb33613b7b565b60000361121d57601b80546001810182556000919091527f3ad8aa4f87544323a9d1e5dd902f40c356527a7955687113db5f9a85ad579dc10180546001600160a01b0319163317905561120c61318e565b336000908152601160205260409020555b600061122761318e565b905061123c3461123633613b7b565b90613c55565b6000828152601360209081526040808320338452825280832093909355601490522054156112cc573360009081526014602052604090208054829190611284906001906148e5565b81548110611294576112946148f8565b9060005260206000200154146112c757336000908152601460209081526040822080546001810182559083529120018190555b6112ef565b336000908152601460209081526040822080546001810182559083529120018190555b6018546112fc9034613c55565b6018556113076131af565b600a60025403611486576001546040516001600160a01b039091166024820152600090608890349060440160408051601f198184030181529181526020820180516001600160e01b03167f6dd7d8ea0000000000000000000000000000000000000000000000000000000017905251611380919061490e565b60006040518083038185875af1925050503d80600081146113bd576040519150601f19603f3d011682016040523d82523d6000602084013e6113c2565b606091505b50509050806114185760405162461bcd60e51b815260206004820152600960248201527f566f7465206661696c000000000000000000000000000000000000000000000060448201526064015b60405180910390fd5b336000908152601e602052604090205460ff161561148457601f5461143d9034613c55565b601f556040517f4e1a6be6a2ae51edfbdb07d7c3730fbfeb63a4ba7be5955a52037ef5318bd3a79061147b903390600090601d903490600190614964565b60405180910390a15b505b604080513381523460208201527febedb8b3c678666e7f36970bc8f57abf6d8fa2e828c0da91ea5b75bf68ed101a91015b60405180910390a15050565b601460205281600052604060002081815481106114df57600080fd5b90600052602060002001600091509150505481565b6000806115018484612f95565b509150505b92915050565b3361151f6004546001600160a01b031690565b6001600160a01b03161461153257600080fd5b602580546001600160a01b0319166001600160a01b0392909216919091179055565b6000600a600254101561156957506000919050565b6000611574836115dc565b9050600061158061318e565b9050600080611590846001613c55565b90505b61159e836002613c71565b81116115d35760006115b08783612f95565b5090506115bd8382613c55565b92505080806115cb90614a40565b915050611593565b50949350505050565b6001600160a01b0381166000908152601160209081526040808320546014909252822080548391908290611612576116126148f8565b9060005260206000200154905080821161163657611631816001613c71565b611638565b815b949350505050565b600061164c83836130b7565b1561165957506000611506565b6064600254106116b557600082611671576001611674565b60005b30600090815260106020526040902060020180549192509060ff831690811061169f5761169f6148f8565b9060005260206000200154431015915050611506565b50600092915050565b6025546001600160a01b031633146116d557600080fd5b602554600480546001600160a01b0319166001600160a01b03909216919091179055565b6117038282611640565b61179b5760405162461bcd60e51b815260206004820152604260248201527f5769746864726177616c206973206e6f7420617661696c61626c65206f72205360448201527f74616b657220616c72656164792077697468647261776564207468652073746160648201527f6b65000000000000000000000000000000000000000000000000000000000000608482015260a40161140f565b60006117a683613b7b565b6001600160a01b038416600090815260106020526040902054909150819060ff161580156117f257506001600160a01b038416600090815260106020526040902054610100900460ff16155b15611899578215611852576001600160a01b0384166000908152601060205260409020805460ff1916600117905560155461184b906118458461183f83690a968163f0a57b400000613c71565b90613c8c565b90613cc1565b91506118bf565b60155461186d9061184584690a968163f0a57b400000613c8c565b6001600160a01b0385166000908152601060205260409020805461ff00191661010017905591506118bf565b6001600160a01b0384166000908152601060205260409020805461ffff19166101011790555b60006118c961318e565b90506118d58284613c71565b60008281526013602090815260408083206001600160a01b038a16845282528083209390935560148152918120805460018101825590825291812090910182905584611922576001611925565b60005b3060009081526010602052604081206002018054929350909160ff8416908110611951576119516148f8565b9060005260206000200154905085801561196e575060165460ff16155b8061198a57508515801561198a5750601654610100900460ff16155b15611ad0576000818152600f602052604081205447919060889084906119b1906001613c71565b6040516024810192909252604482015260640160408051601f198184030181529181526020820180516001600160e01b0316630441a3e760e41b179052516119f9919061490e565b6000604051808303816000865af19150503d8060008114611a36576040519150601f19603f3d011682016040523d82523d6000602084013e611a3b565b606091505b5050905080611a8c5760405162461bcd60e51b815260206004820152600f60248201527f7769746864726177206661696c65640000000000000000000000000000000000604482015260640161140f565b8715611aa4576016805460ff19166001179055611ab4565b6016805461ff0019166101001790555b611aca611ac14784613c71565b60175490613c55565b60175550505b601754611add9086613c71565b6017556040516001600160a01b0388169086156108fc029087906000818181858888f19350505050158015611b16573d6000803e3d6000fd5b50604080516001600160a01b038916815287151560208201529081018690527f9530a9230363309d20b643de1420b49a63c742d26aa552b7578659c0b823f37c906060015b60405180910390a150505050505050565b60008111611b7957600080fd5b600a60025410611d565780431015611b9057600080fd5b336000908152601060209081526040808320848452600101909152902054611bb757600080fd5b6000818152600f6020526040902054611bcf57600080fd5b3360009081526010602090815260408083208484526001908101835281842054600f909352908320549192479290916088918691611c0d9190613c71565b6040516024810192909252604482015260640160408051601f198184030181529181526020820180516001600160e01b0316630441a3e760e41b17905251611c55919061490e565b6000604051808303816000865af19150503d8060008114611c92576040519150601f19603f3d011682016040523d82523d6000602084013e611c97565b606091505b5050905080611ca557600080fd5b4783611cb18285613c71565b1015611cbc57600080fd5b3360008181526010602090815260408083208984526001018252808320839055600f9091528082208290555186156108fc0291879190818181858888f19350505050158015611d0f573d6000803e3d6000fd5b5060408051338152602081018790529081018590527ff279e6a1f5e320cca91135676d9cb6e44ca8a08c0b88342bcdb1144f6511b5689060600160405180910390a1505050505b50565b600061150660646118458461183f600b5490565b600a6002541015611d7d57600080fd5b6000611d8761318e565b9050600854600003611da257611d9e816003613c71565b6008555b600854600090611db3906001613c55565b905080611dc1836001613c71565b1115611eaa576000611dde6001611dd88585613c71565b90613c71565b90506000611df16001611dd88585613c55565b90506000611e16601754611dd8600a54611dd860095447613c5590919063ffffffff16565b90506000611e248285613cc1565b905081855b84811015611e6f576000818152601c60205260409020600101839055611e4f8284613c71565b9150611e5a81613cdb565b50508080611e6790614a40565b915050611e29565b506000848152601c602052604090206001018190556008849055611e9284613cdb565b5050600a54611ea19084613c55565b600a5550505050505b5050565b6060601b805480602002602001604051908101604052809291908181526020018280548015611f0657602002820191906000526020600020905b81546001600160a01b03168152600190910190602001808311611ee8575b5050505050905090565b3360009081526022602052604090205460ff1615611f2d57600080fd5b80611f3733613b7b565b1015611f4257600080fd5b6003546001600160a01b031633148015611f5e575060235460ff165b15611f7e57602454611f7382611dd833613b7b565b1015611f7e57600080fd5b6000611f8861318e565b905060016002540361206157611fa182611dd833613b7b565b6000828152601360209081526040808320338452909152902055601854611fc89083613c71565b60185533600090815260146020908152604082208054600181018255908352912001819055611ff56131af565b604051339083156108fc029084906000818181858888f19350505050158015612022573d6000803e3d6000fd5b5060408051338152602081018490527fb24546d975e2628748efc9aced80665e0fad66272033e5c0ea25fd3afac99795910160405180910390a1612493565b6064600254106120d95760405162461bcd60e51b815260206004820152602f60248201527f7374616b65722063616e6e6f7420756e7374616b65206f6e636520746865206e60448201527f6f64652069732072657369676e65640000000000000000000000000000000000606482015260840161140f565b601854690a968163f0a57b400000906120f29084613c71565b101561218c5760405162461bcd60e51b815260206004820152604760248201527f756e7374616b6520616d6f756e7420746f6f206c617267652c206e656564207460448201527f6f2072657369676e20746865206e6f6465206265666f726520756e7374616b6960648201527f6e67206d6f726500000000000000000000000000000000000000000000000000608482015260a40161140f565b61219982611dd833613b7b565b60008281526013602090815260408083203384529091529020556018546121c09083613c71565b601855336000908152601460209081526040822080546001810182559083529120018190556121ed6131af565b6006546000906121fd9043613c55565b6000818152600f6020526040902054909150156122825760405162461bcd60e51b815260206004820152602a60248201527f616e6f7468657220766f74657220616c726561647920756e766f746520696e2060448201527f7468697320626c6f636b00000000000000000000000000000000000000000000606482015260840161140f565b3360009081526010602090815260408083208484526001019091529020546122aa9084613c55565b33600090815260106020908152604080832085845260018082018452828520959095556002018054808601825590845282842001859055600c54858452600f9092529091208190556122fb91613c55565b600c556001546040516001600160a01b0390911660248201526044810184905260009060889060640160408051601f198184030181529181526020820180516001600160e01b03166301554df160e11b17905251612359919061490e565b6000604051808303816000865af19150503d8060008114612396576040519150601f19603f3d011682016040523d82523d6000602084013e61239b565b606091505b50509050806123ec5760405162461bcd60e51b815260206004820152600d60248201527f756e766f7465206661696c656400000000000000000000000000000000000000604482015260640161140f565b60408051338152602081018690527fb24546d975e2628748efc9aced80665e0fad66272033e5c0ea25fd3afac99795910160405180910390a1336000908152601e602052604090205460ff161561249057601f5461244a9085613c71565b601f556040517f4e1a6be6a2ae51edfbdb07d7c3730fbfeb63a4ba7be5955a52037ef5318bd3a790612487903390600090601d9089908390614964565b60405180910390a15b50505b61249c33613b7b565b600003611eaa5760005b601b548110156125ab57336001600160a01b0316601b82815481106124cd576124cd6148f8565b6000918252602090912001546001600160a01b03160361259957601b80546124f7906001906148e5565b81548110612507576125076148f8565b600091825260209091200154601b80546001600160a01b039092169183908110612533576125336148f8565b9060005260206000200160006101000a8154816001600160a01b0302191690836001600160a01b03160217905550601b80548061257257612572614a59565b600082815260209020810160001990810180546001600160a01b0319169055019055505050565b806125a381614a40565b9150506124a6565b505050565b601a81815481106125c057600080fd5b600091825260209091200154905081565b6001600160a01b03811660009081526014602052604081205481036125f857506000611506565b6001600160a01b03821660009081526014602052604081205461261d906001906148e5565b90505b6001600160a01b038316600090815260146020526040902080548290811061264a5761264a6148f8565b906000526020600020015484106126cf576001600160a01b0383166000908152601460205260408120805460139291908490811061268a5761268a6148f8565b906000526020600020015481526020019081526020016000206000846001600160a01b03166001600160a01b0316815260200190815260200160002054915050611506565b80156126e757806126df81614a6f565b915050612620565b5060009392505050565b601a546000908190612705906001906148e5565b90505b601a818154811061271b5761271b6148f8565b906000526020600020015483106127655760196000601a8381548110612743576127436148f8565b9060005260206000200154815260200190815260200160002054915050919050565b80156116b5578061277581614a6f565b915050612708565b336127906004546001600160a01b031690565b6001600160a01b0316146127a357600080fd5b6127ab613ebd565b565b6001600160a01b0381166000908152601460205260409020546127cf57600080fd5b6127d7611d6d565b60006127e2826115dc565b905060006127ee61318e565b90506000806127fe846001613c55565b90505b61280c836002613c71565b811161284157600061281e8683612f95565b50905061282b8382613c55565b925050808061283990614a40565b915050612801565b5080156128d2576040516001600160a01b0385169082156108fc029083906000818181858888f1935050505015801561287e573d6000803e3d6000fd5b50604080516001600160a01b0386168152602081018390527fbc84835063c693975166f00cffb19f01a94c2db55b1bf259238c5da3594e5066910160405180910390a16009546128ce9082613c55565b6009555b6128dd826002613c71565b6001600160a01b03909416600090815260116020526040902093909355505050565b600a600254101561290f57600080fd5b6001600160a01b03811660009081526022602052604090205460ff1661293457600080fd5b6001600160a01b03811660009081526022602052604090206002015461295957600080fd5b68056bc75e2d6310000034101561296f57600080fd5b670de0b6b3a76400006000612985826002613cc1565b905060006129933484613c71565b6001600160a01b0385166000908152602260205260408120600181015460029091015492935090916129d291670de0b6b3a76400009161184591613c8c565b90506000818310612a9e57506001600160a01b038516600090815260226020526040902060020154336108fc612a088585613c71565b6040518115909202916000818181858888f19350505050158015612a30573d6000803e3d6000fd5b506001600160a01b0386166108fc612a488487613c71565b6040518115909202916000818181858888f19350505050158015612a70573d6000803e3d6000fd5b506001600160a01b03861660009081526022602052604081206002810191909155805460ff19169055612b52565b6001600160a01b038616600090815260226020526040902060010154612ad09061184585670de0b6b3a7640000614a86565b6001600160a01b038716600090815260226020526040902060020154909150612af99082613c71565b6001600160a01b0387166000818152602260205260409020600201919091558392506108fc612b288487613c71565b6040518115909202916000818181858888f19350505050158015612b50573d6000803e3d6000fd5b505b6001600160a01b038616600081815260226020908152604091829020600101548251338152918201869052918101929092526060820183905260808201527ff8e95d915183c90f9fabac4065e57b8b1d98b33d26a71846f3c290160208f5599060a00160405180910390a1604051339085156108fc029086906000818181858888f19350505050158015612bea573d6000803e3d6000fd5b50612bf6863383614220565b6000612c0a6004546001600160a01b031690565b6040519091506001600160a01b0382169087156108fc029088906000818181858888f19350505050158015612c43573d6000803e3d6000fd5b50604080513381526001600160a01b03808a166020830152831691810191909152606081018790527fba90e8cf8805bba5f2eaad13ca5b91b6ae4ea1e0bc4ca3e38e41abbb21e0a15190608001611b5b565b6001600160a01b038116600090815260146020526040902054612cb757600080fd5b612cbf611d6d565b6000612cca826115dc565b90506000612cd661318e565b90506000612ce5826002613c71565b612cf0846064613c55565b1015612d0857612d01836064613c55565b9050612d16565b612d13826002613c71565b90505b600080612d24856001613c55565b90505b828111612d5d576000612d3a8783612f95565b509050612d478382613c55565b9250508080612d5590614a40565b915050612d27565b508015612dee576040516001600160a01b0386169082156108fc029083906000818181858888f19350505050158015612d9a573d6000803e3d6000fd5b50604080516001600160a01b0387168152602081018390527fbc84835063c693975166f00cffb19f01a94c2db55b1bf259238c5da3594e5066910160405180910390a1600954612dea9082613c55565b6009555b506001600160a01b039093166000908152601160205260409020929092555050565b6000612e1b33613b7b565b11612e2557600080fd5b600a60025414612e3457600080fd5b336000908152601e602052604090205460ff16151581151514611d5657336000908152601e60205260409020805460ff19168215801591909117909155612e9257612e8a612e8133613b7b565b601f5490613c55565b601f55612eab565b612ea7612e9e33613b7b565b601f5490613c71565b601f555b7f4e1a6be6a2ae51edfbdb07d7c3730fbfeb63a4ba7be5955a52037ef5318bd3a7336000601d612eda83613b7b565b85604051612eec959493929190614964565b60405180910390a150565b601d80548190612f069061492a565b80601f0160208091040260200160405190810160405280929190818152602001828054612f329061492a565b8015612f7f5780601f10612f5457610100808354040283529160200191612f7f565b820191906000526020600020905b815481529060010190602001808311612f6257829003601f168201915b5050505050908060020154908060030154905083565b6000806000612fa484866125d1565b9050600a6002541015612fbc576000925090506130b0565b6000612fc7856126f1565b6000868152601c602052604081206002015491925081900361309a576000612fed61318e565b600854909150600081900361300a57613007826003613c71565b90505b6000613017826001613c55565b905080613025846001613c71565b111561309657600061303c6001611dd88685613c71565b90506000613061601754611dd8600a54611dd860095447613c5590919063ffffffff16565b9050600061306f8284613cc1565b905061309061307d82613927565b611dd861308984611d59565b8490613c71565b96505050505b5050505b6130a8826118458584613c8c565b945091925050505b9250929050565b60008180156130de57506001600160a01b03831660009081526010602052604090205460ff165b8061310f57508115801561310f57506001600160a01b038316600090815260106020526040902054610100900460ff165b9392505050565b600061312133613b7b565b1161312b57600080fd5b600a6002541461313a57600080fd5b61315560646118456042601854613c8c90919063ffffffff16565b601f5410156127a357600080fd5b336131766004546001600160a01b031690565b6001600160a01b03161461318957600080fd5b600555565b60006131aa6103846118456131a3438361467b565b4390613c71565b905090565b60006131b961318e565b601854600082815260196020526040902055601a549091501561324557601a80548291906131e9906001906148e5565b815481106131f9576131f96148f8565b9060005260206000200154101561324057601a80546001810182556000919091527f057c384a7d1c54f3a1b2e5e67b2617b8224fdfd1ea7234eea573a6ff665ff63e018190555b61327b565b601a80546001810182556000919091527f057c384a7d1c54f3a1b2e5e67b2617b8224fdfd1ea7234eea573a6ff665ff63e018190555b601b546018546040805184815260208101939093528201527f80d22aa34216d742b2c5cb472135446b024327047c779a3a8cd28f17c0983c7b90606001612eec565b60006132c833613b7b565b116132d257600080fd5b600a60025410156132e257600080fd5b6132eb33613b7b565b8211156132f757600080fd5b33600090815260226020526040902060018101829055600201829055811561333857336000908152602260205260409020805460ff19166001179055613350565b336000908152602260205260409020805460ff191690555b60408051338152602081018490529081018290527f2f8935c41288df166e9b29f7b3ac57473233672eeae5a4821e5bfe666784a49a906060016114b7565b60006115068261066561318e565b336133af6004546001600160a01b031690565b6001600160a01b0316146133c257600080fd5b602455565b600081116133d457600080fd5b600a60025410611eaa57804310156133eb57600080fd5b6001600160a01b038216600090815260106020908152604080832084845260010190915290205461341b57600080fd5b6000818152600f602052604090205461343357600080fd5b6001600160a01b03821660009081526010602090815260408083208484526001908101835281842054600f90935290832054919247929091608891869161347a9190613c71565b6040516024810192909252604482015260640160408051601f198184030181529181526020820180516001600160e01b0316630441a3e760e41b179052516134c2919061490e565b6000604051808303816000865af19150503d80600081146134ff576040519150601f19603f3d011682016040523d82523d6000602084013e613504565b606091505b505090508061351257600080fd5b478361351e8285613c71565b101561352957600080fd5b6001600160a01b03861660008181526010602090815260408083208984526001018252808320839055600f9091528082208290555186156108fc0291879190818181858888f19350505050158015613585573d6000803e3d6000fd5b50604080516001600160a01b0388168152602081018790529081018590527ff279e6a1f5e320cca91135676d9cb6e44ca8a08c0b88342bcdb1144f6511b568906060015b60405180910390a1505050505050565b60006135e433613b7b565b116135ee57600080fd5b6003546001600160a01b03163314801561360a575060235460ff165b1561362a5760245461361f82611dd833613b7b565b101561362a57600080fd5b611eaa338383614220565b601b818154811061364557600080fd5b6000918252602090912001546001600160a01b0316905081565b336136726004546001600160a01b031690565b6001600160a01b03161461368557600080fd5b601481111561369357600080fd5b600b55565b6001600160a01b0381166000908152601060209081526040918290206002018054835181840281018401909452808452606093928301828280156136fb57602002820191906000526020600020905b8154815260200190600101908083116136e7575b50505050509050919050565b3361371a6004546001600160a01b031690565b6001600160a01b03161461372d57600080fd5b600380546001600160a01b0319166001600160a01b0392909216919091179055565b600061376c60646118456042601854613c8c90919063ffffffff16565b601f541015919050565b336137896004546001600160a01b031690565b6001600160a01b03161461379c57600080fd5b600755600655565b6001600160a01b0381166000908152601460205260409020546137c657600080fd5b60006137d1826115dc565b905060006137dd61318e565b905060006137ec836001613c55565b90506137f9826002613c71565b81111561380557600080fd5b61380d611d6d565b60008061381a8684612f95565b5090506138278282613c55565b604080516001600160a01b0389168152602081018490529081018590529092507f23cc5efbe23324543e8856e030fa85b4e4a060569f02c44080a80f46b0851e999060600160405180910390a18115613904576040516001600160a01b0387169083156108fc029084906000818181858888f193505050501580156138b0573d6000803e3d6000fd5b50604080516001600160a01b0388168152602081018490527fbc84835063c693975166f00cffb19f01a94c2db55b1bf259238c5da3594e5066910160405180910390a16009546139009083613c55565b6009555b50506001600160a01b039093166000908152601160205260409020929092555050565b600061150660646118458461183f600d5490565b600061394633613b7b565b1161395057600080fd5b690a968163f0a57b40000047101561396757600080fd5b600a6002541061397657600080fd5b6001546040516001600160a01b039091166024820152600090608890479060440160408051601f198184030181529181526020820180516001600160e01b03167f0126795100000000000000000000000000000000000000000000000000000000179052516139e5919061490e565b60006040518083038185875af1925050503d8060008114613a22576040519150601f19603f3d011682016040523d82523d6000602084013e613a27565b606091505b5050905080613a785760405162461bcd60e51b815260206004820152600e60248201527f70726f706f7365206661696c6564000000000000000000000000000000000000604482015260640161140f565b600a600255613a8561318e565b60209081556040513081527fd16d50d8d566a5c6f1f5d89ffcfa821adc9d9f4e780d153563abc82e943ff0e39101612eec565b33613acb6004546001600160a01b031690565b6001600160a01b031614613ade57600080fd5b6001600160a01b03909116600090815260116020526040902055565b6001600160a01b0381166000908152601e602052604081205460ff1615613b3a57506001600160a01b03166000908152601e602052604090205460ff1690565b506000919050565b33613b556004546001600160a01b031690565b6001600160a01b031614613b6857600080fd5b6023805460ff1916911515919091179055565b6000611506613b8861318e565b836125d1565b60008054613b9b9061492a565b80601f0160208091040260200160405190810160405280929190818152602001828054613bc79061492a565b8015613c145780601f10613be957610100808354040283529160200191613c14565b820191906000526020600020905b815481529060010190602001808311613bf757829003601f168201915b505050505081565b33613c2f6004546001600160a01b031690565b6001600160a01b031614613c4257600080fd5b6014811115613c5057600080fd5b600d55565b600080613c628385614a9d565b90508381101561310f57600080fd5b600082821115613c8057600080fd5b600061163883856148e5565b600082600003613c9e57506000611506565b6000613caa8385614a86565b905082613cb78583614ac6565b1461310f57600080fd5b6000808211613ccf57600080fd5b60006116388385614ac6565b6000818152601c6020526040812060010154602154829190829085118015613d035750600082115b15613e92576000613d1383611d59565b90506000613d296004546001600160a01b031690565b90508115613db3576040516001600160a01b0382169083156108fc029084906000818181858888f19350505050158015613d67573d6000803e3d6000fd5b507fbbce279f9ed60ffb489a37c1e015bb68c2dc3853842d04a597ce8a805185a5f087613d93600b5490565b604080519283526020830191909152810184905260600160405180910390a15b6000613dbe85613927565b90508015613e4c576003546040516001600160a01b039091169082156108fc029083906000818181858888f19350505050158015613e00573d6000803e3d6000fd5b507f49fb134b5aefb13dae321f724d5a24d45c3e0974603825ee6550c8207d714c2f88613e2c600d5490565b604080519283526020830191909152810183905260600160405180910390a15b613e5a81611dd88786613c71565b6000898152601c6020526040902060020155600954613e7f9082906112369086613c55565b600955613e8c8382613c55565b93505050505b846021541015613ea25760218590555b6000948552601c602052604090942060020154939492505050565b60185460158190556000908190613ede90690a968163f0a57b400000613c71565b6001546040516001600160a01b0390911660248201526044810182905290915060889060640160408051601f198184030181529181526020820180516001600160e01b03166301554df160e11b17905251613f39919061490e565b6000604051808303816000865af19150503d8060008114613f76576040519150601f19603f3d011682016040523d82523d6000602084013e613f7b565b606091505b50508092505081613fbe5760405162461bcd60e51b815260206004820152600d60248201526c1c995cda59db8819985a5b1959609a1b604482015260640161140f565b600654600090613fce9043613c55565b306000908152601060209081526040808320848452600101909152902054909150613ff99083613c55565b30600090815260106020908152604080832085845260018082018452828520959095556002018054808601825590845282842001859055600c54858452600f90925290912081905561404a91613c55565b600c556001546040516001600160a01b03909116602482015260889060440160408051601f198184030181529181526020820180516001600160e01b03167fae6e43f500000000000000000000000000000000000000000000000000000000179052516140b7919061490e565b6000604051808303816000865af19150503d80600081146140f4576040519150601f19603f3d011682016040523d82523d6000602084013e6140f9565b606091505b5050809350508261413c5760405162461bcd60e51b815260206004820152600d60248201526c1c995cda59db8819985a5b1959609a1b604482015260640161140f565b606460025560075461414e9043613c55565b905061418c61416883601854613c7190919063ffffffff16565b30600090815260106020908152604080832086845260010190915290205490613c55565b30600090815260106020908152604080832085845260018082018452828520959095556002018054808601825590845282842001859055600c54858452600f9092529091208190556141dd91613c55565b600c556040513081527f61ac3253c35e0a340886a3cec6e1c1dd9c734ed689f0416bbe04d315108968a09060200160405180910390a160006018556125ab6131af565b6000811161422d57600080fd5b60646002541061423c57600080fd5b600061424784613b7b565b9050818110156142bf5760405162461bcd60e51b815260206004820152603060248201527f7472616e73666572656420616d6f756e7420697320686967686572207468616e60448201527f207468652063757272656e742063617000000000000000000000000000000000606482015260840161140f565b60006142c961318e565b90506142d58284613c71565b60008281526013602090815260408083206001600160a01b038a16845282528083209390935560149052208054829190614311906001906148e5565b81548110614321576143216148f8565b90600052602060002001541461435d576001600160a01b0385166000908152601460209081526040822080546001810182559083529120018190555b61436685613b7b565b6000036144775760005b601b5481101561447557856001600160a01b0316601b8281548110614397576143976148f8565b6000918252602090912001546001600160a01b03160361446357601b80546143c1906001906148e5565b815481106143d1576143d16148f8565b600091825260209091200154601b80546001600160a01b0390921691839081106143fd576143fd6148f8565b9060005260206000200160006101000a8154816001600160a01b0302191690836001600160a01b03160217905550601b80548061443c5761443c614a59565b600082815260209020810160001990810180546001600160a01b0319169055019055614475565b8061446d81614a40565b915050614370565b505b600061448285613b7b565b9050806000036144d857601b80546001810182556000919091527f3ad8aa4f87544323a9d1e5dd902f40c356527a7955687113db5f9a85ad579dc10180546001600160a01b0319166001600160a01b0387161790555b6144e28185613c55565b60008381526013602090815260408083206001600160a01b038a1684528252808320939093556014905220541561458d576001600160a01b0385166000908152601460205260409020805483919061453c906001906148e5565b8154811061454c5761454c6148f8565b906000526020600020015414614588576001600160a01b0385166000908152601460209081526040822080546001810182559083529120018290555b6145b9565b6001600160a01b0385166000908152601460209081526040822080546001810182559083529120018290555b6001600160a01b038086166000908152601e602052604080822054928916825290205460ff90811615159116151514614633576001600160a01b0385166000908152601e602052604090205460ff161561462257601f5461461a9085613c55565b601f55614633565b601f5461462f9085613c71565b601f555b604080516001600160a01b038089168252871660208201529081018590527fa5c7720da5835a5d7b6c0afb0047711348a91e86c5edae9c61e40a746a036958906060016135c9565b60008160000361468a57600080fd5b61310f8284614ada565b6001600160a01b0381168114611d5657600080fd5b600080604083850312156146bc57600080fd5b82356146c781614694565b946020939093013593505050565b6000602082840312156146e757600080fd5b813561310f81614694565b8035801515811461470257600080fd5b919050565b6000806040838503121561471a57600080fd5b823561472581614694565b9150614733602084016146f2565b90509250929050565b60006020828403121561474e57600080fd5b5035919050565b6020808252825182820181905260009190848201906040850190845b818110156147965783516001600160a01b031683529284019291840191600101614771565b50909695505050505050565b600080604083850312156147b557600080fd5b8235915060208301356147c781614694565b809150509250929050565b6000602082840312156147e457600080fd5b61310f826146f2565b60005b838110156148085781810151838201526020016147f0565b50506000910152565b600081518084526148298160208601602086016147ed565b601f01601f19169290920160200192915050565b6060815260006148506060830186614811565b60208301949094525060400152919050565b6000806040838503121561487557600080fd5b50508035926020909101359150565b6020808252825182820181905260009190848201906040850190845b81811015614796578351835292840192918401916001016148a0565b60208152600061310f6020830184614811565b634e487b7160e01b600052601160045260246000fd5b81810381811115611506576115066148cf565b634e487b7160e01b600052603260045260246000fd5b600082516149208184602087016147ed565b9190910192915050565b600181811c9082168061493e57607f821691505b60208210810361495e57634e487b7160e01b600052602260045260246000fd5b50919050565b6001600160a01b038616815260006020868184015260a060408401526000865481600182811c91508083168061499b57607f831692505b85831081036149b857634e487b7160e01b85526022600452602485fd5b60a0880183905260c088018180156149d757600181146149ed57614a18565b60ff198616825284151560051b82019650614a18565b60008d81526020902060005b86811015614a12578154848201529085019089016149f9565b83019750505b5050505050606085018790525084151560808501529150614a369050565b9695505050505050565b600060018201614a5257614a526148cf565b5060010190565b634e487b7160e01b600052603160045260246000fd5b600081614a7e57614a7e6148cf565b506000190190565b8082028115828204841417611506576115066148cf565b80820180821115611506576115066148cf565b634e487b7160e01b600052601260045260246000fd5b600082614ad557614ad5614ab0565b500490565b600082614ae957614ae9614ab0565b50069056fea26469706673582212200cb35fb80a87bc2c78a585a2127044c2b425872c9e1608859aa44af492dbc75264736f6c63430008130033",
  "linkReferences": {},
  "deployedLinkReferences": {}
}